:020000040800F2
:10000000104A0020E9020008971E00080B1D000896
:10001000951E000843050008552200080000000056
:10002000000000000000000000000000290200089D
:10003000A10600080000000085020008111F00084A
:100040000303000803030008030300080303000878
:100050000303000803030008030300080303000868
:100060000303000803030008030300080303000858
:100070000303000803030008030300080303000848
:100080000303000803030008030300080303000838
:100090004505000851050008030300080303000894
:1000A0000303000803030008030300080303000818
:1000B0000303000803030008030300080303000808
:1000C00003030008030300080303000803030008F8
:1000D00003030008030300080303000803030008E8
:1000E00003030008030300080303000803030008D8
:1000F00003030008030300080303000803030008C8
:1001000003030008030300080303000803030008B7
:100110000303000803030008E11F000803030008AD
:100120000303000803030008030300080303000897
:100130000303000803030008030300080303000887
:100140000303000803030008030300080303000877
:100150000303000803030008030300080303000867
:100160000303000803030008030300080303000857
:100170000303000803030008030300080000000055
:10018000030300080303000800F002F800F03CF845
:100190000AA090E8000C82448344AAF10107DA45E2
:1001A00001D100F031F8AFF2090EBAE80F0013F0F8
:1001B000010F18BFFB1A43F001031847B8340000C1
:1001C000D8340000103A24BF78C878C1FAD8520752
:1001D00024BF30C830C144BF04680C6070470000C1
:1001E0000023002400250026103A28BF78C1FBD840
:1001F000520728BF30C148BF0B6070471FB503F0DE
:10020000E4F91FBD10B510BD00F061F91146FFF70C
:10021000F5FF02F0FFF800F07FF903B4FFF7F2FFFB
:1002200003BC00F087F900002C4B19680868B0E89F
:10023000F04F80F30988BFF36F8F4FF0000080F319
:10024000118870470000000008480068006880F3CB
:1002500008884FF0000080F3148862B661B6BFF3DF
:100260004F8FBFF36F8F00DF00BF00BF08ED00E0CE
:10027000DFF80C00016841F470010160704700BFB5
:1002800088ED00E0EFF30980BFF36F8F134B1A681E
:100290001EF0100F08BF20ED108A20E9F04F10600B
:1002A00009B44FF0500080F31188BFF34F8FBFF3B4
:1002B0006F8F02F021FE4FF0000080F3118809BC1F
:1002C00019680868B0E8F04F1EF0100F08BFB0ECD6
:1002D000108A80F30988BFF36F8F70471C000020DD
:1002E000EFF3058070470000094880470948004740
:1002F000FEE7FEE7FEE7FEE7FEE7FEE7FEE7FEE7D6
:10030000FEE7FEE704480549054A064B7047000032
:10031000D11F00088901000810440020104A002065
:10032000104600201046002053EA020C00F06980BD
:100330002DE9F04B4FF00006002B1FBFB3FA83F5F9
:1003400003FA05F424FA05F65E4012BF1643B2FA2A
:1003500082F502FA05F4C5F120051EBF22FA05FC5C
:1003600044EA0C04203556EA044C4FEA144418BF02
:10037000641C4FF000084FF00009904271EB030C31
:1003800039D3002919BFB1FA81F701FA07F6B0FA9B
:1003900080F700FA07F6C7F120071EBF20FA07FC16
:1003A00046EA0C062037B6FBF4FCA7EB0507103F26
:1003B00007F01F0BCBF120060CFA0BFB2CFA06F60C
:1003C00044BFB3460026202FA4BF5E464FF0000B6B
:1003D0005BEA060C08BF4FF0010B19EB0B09ABFBF6
:1003E000027C48EB0608C01B06FB02CC0BFB03CCCF
:1003F00071EB0C01C1E70B46024641464846BDE899
:10040000F08B13B54FF000004FF00001AFF3008008
:10041000BDE81C40704710B5203AC0F00B80B1E831
:100420001850203AA0E81850B1E81850A0E8185029
:10043000BFF4F5AF5FEA027C24BFB1E81850A0E832
:10044000185044BF18C918C0BDE810405FEA827C4C
:1004500024BF51F8043B40F8043B08BF7047D20763
:1004600028BF31F8023B48BF11F8012B28BF20F804
:10047000023B48BF00F8012B70474FF0000200B567
:10048000134694469646203922BFA0E80C50A0E8B7
:100490000C50B1F12001BFF4F7AF090728BFA0E865
:1004A0000C5048BF0CC05DF804EB890028BF40F831
:1004B000042B08BF704748BF20F8022B11F0804F73
:1004C00018BF00F8012B704770477047704775469A
:1004D00000F02CF8AE4605006946534620F00700B0
:1004E000854618B020B5FFF70DFFBDE820404FF05E
:1004F00000064FF000074FF000084FF0000B21F00E
:100500000701AC46ACE8C009ACE8C009ACE8C009DA
:10051000ACE8C0098D46704710B50446AFF30080C3
:100520002046BDE81040FFF778BE00000048704745
:10053000B043002001491820ABBEFEE726000200B0
:100540007047FEE7014800F02ABA000008030020C7
:10055000014800F024BA0000080300202DED068BAE
:1005600082B001F08DFF454E40F27440DFF81081FB
:1005700030809FED449B9FED45ABDFF81891464FCF
:1005800008F11005052001F0E1FFB6F9000000EECA
:10059000100A3B48B8EEC00A01F07EFE98ED018AD1
:1005A00018EE100A02F0A0FF53EC192B02F09EFE89
:1005B00002F06AFE686018EE100A02F095FF53EC34
:1005C0001A2B02F093FE02F05FFEE86685ED358A95
:1005D000B1EE480A85ED4F0AB9F900005FF000045A
:1005E00000EE100AB8EEC00A85ED690A04EBC400FB
:1005F00037F9200000EE100A04EB840000EBC40081
:1006000005EBC000B8EEC00A416E8847641C052C9B
:10061000ECDB95ED5B0ABDEEC00A10EE100A95ED1D
:10062000410A00B2BDEEC00A10EE101A09B2CDE9BF
:10063000001095ED270A4FF40071BDEEC00A10EED0
:10064000100A95ED0D0A03B2BDEEC00A10EE100AB5
:1006500002B2124802F002FB00200090019095EDDA
:10066000750A002340F2FF11BDEEC00A10EE100A19
:1006700002B20A4802F0F2FA84E70000B00000205B
:10068000984100203EF8E0830F3EE83F3EF8E083CB
:100690000F3EE8BFA6000020B04000200803002065
:1006A000704772B6FEE790F82020012A07D0022A90
:1006B00005D0416A41F48021416201207047006801
:1006C00042690A43426100207047F0B590F820501B
:1006D0000468A468012D05D0022D03D0416A41F4BD
:1006E00080215DE014F0406F01D1E50055D5C4F3E1
:1006F0000164022C03D9416A41F4000150E0012554
:10070000A5401D608D684FF4C0739DB1CE68354320
:100710004E6845EAC605066803EB0417F5514FF429
:10072000C275076805EB04150E697E51097D012924
:1007300005D009E00E88CD6845EA4655EBE701682B
:100740004E5946F480764E511179D579567941EA61
:10075000056195792D0445EA062529434FF4C676AF
:10076000056806EB0416A9511178D57841EA0561B0
:10077000957852782D0445EA022211434FF4C4754E
:10078000026805EB04155151006803EB041142584F
:1007900042F0010242500020F0BD416A41F40011D4
:1007A00041620120F0BD000010B590F82020012A20
:1007B00007D0022A05D0416A41F48021416201201C
:1007C00010BD3B48D0F8002242F00102C0F80022E0
:1007D000D0F8002222F47C52C0F80022D0F8002287
:1007E0004B6A42EA0322C0F800220A7D02F01F038E
:1007F00001229A40D0F81C329343C0F81C32CB69D6
:10080000B3B9D0F80C329343C0F80C328C894B68E2
:1008100064F31F434C6900EBC404C4F840320C89F4
:100820000B6864F31F434C6900EBC404C4F8443202
:10083000CB69012B16D1D0F80C321343C0F80C321F
:100840000C884B6864F31F434C6900EBC404C4F884
:1008500040320C89CB6864F31F434C6900EBC4043D
:10086000C4F844328B69002BD0F804320ED0134305
:10087000C0F804320B69002BD0F8143208D01343AF
:10088000C0F81432096A012904D008E09343EFE765
:100890009343F5E7D0F81C121143C0F81C12D0F8AE
:1008A000001221F00101C0F80012002010BD00006C
:1008B00000640040704730B590F82040012C05D00E
:1008C000022C03D0416A41F480215DE004680029D4
:1008D00055D02469A40754D04FF4D874056804EBAC
:1008E00001142D5915F00405956005682D594ED059
:1008F000ED08556005682C5904F00204D4604FF4EB
:10090000DA74056804EB01142D5905F00F05156123
:1009100005682D59C5F30725956105682C59240CE8
:1009200054614FF4DC72046802EB0112A4581C708D
:100930000468A458240A5C700468A458240C9C70B1
:100940000468A258120EDA704FF4DE72046802EBEB
:100950000112A4581C710468A458240A5C7104682C
:10096000A458240C9C710468A258120EDA71006815
:1009700081B1016941F020010161002030BDE468CE
:10098000A8E7416A41F400114162012030BD6D0DBC
:100990001560AFE7C16841F02001C160EDE72DE9C6
:1009A000F05F0546006800244669D0F80490876827
:1009B000D0F80CB0D0F810A0D0F81880F10748D0CB
:1009C000F90714D001218160B80703D5284600F04B
:1009D00014FA0CE0780702D54FF4006407E03807FA
:1009E00002D54FF4805402E0284600F005FAF805DD
:1009F00016D529684FF480708860B80503D528465D
:100A000000F0FDF90CE0780502D544F4005407E04D
:100A1000380502D544F4804402E0284600F0EEF99F
:100A2000F80316D529684FF480308860B80303D5E1
:100A3000284600F0E6F90CE0780302D544F40044BF
:100A400007E0380302D544F4803402E0284600F081
:100A5000D7F9300707D55FEACB6004D529681020A5
:100A600044F40074C86070074FF0080707D55FEAC8
:100A70000B7004D52868C760284600F05FF9B007FE
:100A800006D52868C068800702D0284600F058F9CB
:100A9000700607D55FEACA6004D52968102044F4BF
:100AA00080640861B00607D55FEA0A7004D528683B
:100AB0000761284600F070F9F00606D5286800693D
:100AC000800702D0284600F068F9B00308D55FEA35
:100AD000C96005D5296810204860284600F05EF9F5
:100AE000F00307D55FEA097004D5286847602846F7
:100AF00000F088F9300446D55FEA497040D5F0052A
:100B000004D55FEAC87001D044F00104B00504D5F3
:100B10005FEA887001D544F00204700504D55FEAED
:100B2000487001D544F00404300529D518F0700F41
:100B300026D008F07000402815D006DC102809D017
:100B400020280AD0302816D10AE050280ED060287C
:100B500011D10EE044F008040DE044F010040AE066
:100B600044F0200407E044F0400404E044F0800432
:100B700001E044F480742868816921F0700181618A
:100B8000296804204860002C05D0686A2043686208
:100B90002846FFF78FFEBDE8F09F70B5040003D034
:100BA00094F8200010B104E0012070BD204600F050
:100BB00081F82068016841F00101016000F038FA15
:100BC0000546052604E000F033FA401B0A2811D838
:100BD00020684068C007F6D02068016821F0020153
:100BE000016000F025FA05460BE000F021FA401BF9
:100BF0000A2806D9606A40F40030606284F82060F8
:100C0000D2E7206840688007EFD4207E0128206862
:100C100001683DD021F080010160607E01282068DC
:100C2000016838D021F040010160A07E01282068D1
:100C3000016833D021F020010160E07E01282068A6
:100C400001682ED041F010010160207F012820684A
:100C5000016829D021F008010160607F0128206827
:100C6000016824D021F004010160D4E902010843A5
:100C7000D4E90412114308436168491E08432168FE
:100C8000C86100206062012084F82000002070BD4F
:100C900041F08001C0E741F04001C5E741F020018B
:100CA000CAE721F01001CFE741F00801D4E741F095
:100CB0000401D9E710B586B0044614216846FFF751
:100CC000DCFB1B49206888422FD11A4800210268AA
:100CD00042F000720260006800F000700590154854
:100CE0001038026842F0080202600068022200F038
:100CF000080005900320CDE90210CDE9000209208B
:100D0000049069460C4800F091F800220521142057
:100D100000F02CFA142000F01BFA00220521152007
:100D200000F024FA152000F013FA06B010BD000000
:100D30000064004040380240000C02407047000050
:100D400010B5114A0168914217D1104B104A002189
:100D5000FFF7B1FD0E480068A0F2012004280CD86E
:100D60000A49C0B208390870094900EBC000CC3903
:100D700001EB8000054901F0C1FA064800684169AD
:100D800041F00201416110BD006400408C00002070
:100D90007C41002008030020704770477047000026
:100DA00070B5044690F82000012804D0606A40F431
:100DB0000020606218E0022084F8200020680168AA
:100DC00021F00101016000F033F905460EE000BF9B
:100DD00000F02EF9401B0A2808D9606A40F4003060
:100DE0006062052084F82000012070BD2068406802
:100DF000C007EDD1606270BD7047704770477047A3
:100E0000704770477047000070B5044600F010F955
:100E10000546601C02D004480078044400F008F93C
:100E2000401BA042FAD370BD0C0000202DE9F84F02
:100E3000DFF8BCA10022012503264FF00F090AF1BB
:100E4000040BAAF1040E00BF0B6805FA02F423405C
:100E5000A34270D10F7907F00307012F01D0022FB1
:100E600016D187684FEA420806FA08FC27EA0C0701
:100E7000D1F80CC00CFA08FC4CEA070CC0F808C00A
:100E80004768A7430C79C4F3001494403C43446082
:100E90000C79E443A4070AD0C4684FEA420C06FA6E
:100EA0000CF7BC438F6807FA0CF72743C7600C792F
:100EB00004F00304022C12D1D40800EB840CDCF8FB
:100EC00020405707FF0E09FA07F824EA0804D1F872
:100ED000108008FA07F848EA0408CCF82080046873
:100EE0004FEA420C06FA0CF7BC430F7907F00307F0
:100EF00007FA0CF7274307604C6814F4403F70D0A2
:100F00003C4C276847F480472760246822F0030799
:100F100004F480440094384C07EB040CDCF80848D7
:100F200097074FEA177809FA08F7BC43334FB842DE
:100F300002D1002724E054E0314FB84201D101270B
:100F40001EE0304FB84201D1022719E02E4FB842BF
:100F500001D1032714E02D4FB84201D104270FE03F
:100F60002B4FB84201D105270AE02A4FB84201D1E0
:100F7000062705E0284FB84201D1072700E00827DF
:100F800007FA08F72743CCF80878DAF80040574604
:100F9000D1F804C09C435FEACC2C00D51C433C60D4
:100FA000DBF800405F46D1F804C09C435FEA8C2C1C
:100FB00000D51C433C60DEF800407746D1F804C001
:100FC0009C435FEA8C3C00D51C433C60084F083FC3
:100FD0003C68D1F804C09C435FEACC3C00D51C437C
:100FE0003C60521C102AFFF42FAFBDE8F88F0000C0
:100FF000083C0140443802400030014000000240FB
:101000000004024000080240000C024000100240B0
:101010000014024000180240001C02400069084011
:1010200000D0012070470AB1816170470904FBE7D5
:1010300001488068704700000C0000200248816869
:1010400002781144816070470C0000200B4810B5F5
:10105000016841F400710160016841F48061016040
:10106000016841F480710160032000F09FF80F20B7
:1010700000F006F800F050F8002010BD003C0240DF
:1010800030B505461F4887B00024016841F01001C3
:101090000160006806A900F01000009001A800F0AF
:1010A00031F90498A8B100F04DF940001649174AEB
:1010B000B0FBF1F11648491E026040F2E732C0E988
:1010C0000324C0E90114846100F07EFB040003D016
:1010D00015E000F037F9E9E70D4800F0DFFB040008
:1010E0000DD1362000F034F8102D07D20022294609
:1010F000362000F03BF80748056000E0012407B007
:10110000204630BD4038024040420F0000100040F1
:1011100078030020100000200C4882B0016841F4E0
:1011200080410160006800F4804000900748001F83
:10113000016841F0805101600068002200F0805099
:1011400000900F21901E02B000F010B84438024009
:10115000002809DB00F01F020121914040098000B6
:1011600000F1E020C0F8001170470000F0B40E4B11
:101170001B680C46C3F30223C3F10705042D00D9F5
:101180000425191D072901D2002300E0DB1E0126DA
:1011900006FA05F1491E214099409E40761E1640F0
:1011A0003143F0BC01F057B80CED00E0064900F007
:1011B000070208684FF6FF03184040EA0220034A7E
:1011C00010430860704700000CED00E00000FA05D5
:1011D0002DE9F0470E46050065D0DFF81481D8F8F8
:1011E0000000F7B200F00700B04207D288F80070A4
:1011F000D8F8000000F00700B04254D128683D4CF8
:10120000810712D5400703D5206840F4E0502060E4
:101210002878000703D5206840F4604020602068EB
:10122000A96820F0F000084320602878C0072DD07E
:10123000304968680839012812D0022813D00328E1
:1012400011D00968890700292DDA216821F00301EE
:1012500001432160FFF7ECFE814641F2883A0EE03F
:1012600009688903EFE709688901ECE7FFF7E0FE09
:10127000A0EB0901514502D90320BDE8F0872068A1
:10128000696800F00C00B0EB810FEFD1D8F80010C6
:10129000404601F00701B14207D90770006800F02D
:1012A0000700B04201D00120E7E72878400705D5C4
:1012B0002068E96820F4E05008432060287800079F
:1012C00006D52068296920F4604040EAC10020600A
:1012D00000F048F82168084AC1F30311515CC84086
:1012E0000649086006480068FFF7CAFE0020C4E708
:1012F000003C024008380240343600081800002044
:10130000100000200F2202600C4A136803F0030350
:101310004360136803F0F0038360136803F4E05341
:10132000C36012684FF4E05303EAD202026104483A
:10133000006800F0070008607047000008380240AD
:10134000003C02400448054900680968044AC1F3AA
:101350008221515CC84070471800002008380240C4
:1013600044360008154810B5006810F00C02144807
:1013700013D01449042A0FD0082A0ED10F4C241F71
:101380002268236802F03F025B0207D52068C0F3A1
:101390008810A0FB010106E0084610BD2168C1F3DA
:1013A0008811A1FB00010023FEF7BEFF2168C1F3F5
:1013B0000141491C4900B0FBF1F010BD0838024062
:1013C0000024F400001BB7002DE9F84F04006ED094
:1013D0002078DFF84C93C007A9F104054AD009F141
:1013E00004000168C1F38101012908D00068C0F33D
:1013F000810002280AD1D9F80000400206D52868E9
:10140000800337D560680028E1D033E06068B0F52C
:10141000803F10D0B0F5A02F286810D020F4803085
:101420002860286820F4802028606068A8B1FFF751
:10143000FFFD06460DE0286840F48030F4E740F4F4
:1014400080202860F7E700BFFFF7F2FD801B6428CB
:1014500073D828688003F7D50CE0FFF7E9FD06464E
:1014600005E000BFFFF7E4FD801B6428F0D8286882
:101470008003F7D42078DFF8AC8280074FF0000AB1
:101480003ED5A748001D016811F00C0F08D0006878
:10149000C0F3810002280BD1D9F80000400207D424
:1014A0002868800716D5E068012800D112E033E1F2
:1014B000E068B8B10120C8F80000FFF7B9FD0646A2
:1014C00005E000BFFFF7B4FD801B0228C0D82868E4
:1014D0008007F7D52868216920F0F80040EAC100AC
:1014E00028600DE0C8F800A0FFF7A2FD064604E062
:1014F000FFF79EFD801B02281FD828688007F7D4BD
:101500002078000722D5864F87486169703771B10E
:1015100001210160FFF78CFD064604E0FFF788FD1E
:10152000801B022809D838688007F7D50EE0C0F87C
:1015300000A0FFF77DFD064605E082E0FFF778FD9D
:10154000801B02287DD838688007F7D420784007B0
:1015500068D5DFF8CCB100270BF13C0BDBF80000BD
:10156000C0000BD4DBF8001041F08051CBF8001024
:10157000DBF80000012700F0805000906B4E3068CF
:10158000C00510D4306840F480703060FFF750FD23
:10159000009005E0FFF74CFD0099401A022850D852
:1015A0003068C005F6D55E4EA0686C3601280FD0B5
:1015B0000528306810D020F001003060306820F03D
:1015C00004003060A068B8B1FFF732FD00900FE072
:1015D000306840F00100F4E740F004003060F7E7C5
:1015E000FFF726FD0099411A41F28830814266D802
:1015F00030688007F4D50EE0FFF71AFD009007E091
:10160000FFF716FD0099411A41F28830814256D801
:1016100030688007F4D42FB1DBF8001021F080513E
:10162000CBF80010A069C8B33D49091D0968C1F392
:10163000810102294AD00228504607D0C8F860002C
:1016400000E03CE0FFF7F4FC04463BE04746C8F806
:101650006000FFF7EDFC064605E000BFFFF7E8FC81
:10166000801B02282BD828688001F7D4D4E9070111
:101670000843A16A2E4A490802EB0141626A41EA25
:101680008211084394F82C1040EA0161C9F8001057
:1016900001203866FFF7CCFC044606E03EE000BFC0
:1016A000FFF7C6FC001B022809D828688001F7D57F
:1016B00034E000BFFFF7BCFC001B022802D9032066
:1016C000BDE8F88F28688001F4D427E00128F7D01E
:1016D000D9F80000E26900F4800191421CD1226A2D
:1016E00000F03F01914217D147F6C071626A014094
:1016F000B1EB821F10D1A26A4FF0FF3300F44031EA
:1017000003EB5202B1EB024F06D194F82C1000F01B
:101710007060B0EB016F01D00120D1E70020CFE76E
:101720000438024000004742800E474200700040EB
:101730000000FFFF7047704770B590F83C20012A09
:1017400032D0012480F83C40022280F83D2003681A
:101750005A689D6822F070060A6832435A60134B3B
:1017600002689A4214D0B2F1804F11D0104B9A42C5
:101770000ED0104B9A420BD00F4B9A4208D00F4B11
:101780009A4205D00E4B9A4202D00E4B9A4204D197
:10179000496825F080031943916080F83D4000219D
:1017A00080F83C10084670BD022070BD000001406A
:1017B0000004004000080040000C0040000401400C
:1017C000004001400018004010B5040003D094F818
:1017D0003D0010B107E0012010BD002084F83C005E
:1017E000204600F01EF8022084F83D00211D2068EC
:1017F00000F0FCFB012084F8460084F83E0084F8E9
:101800003F0084F8400084F8410084F8420084F8E6
:10181000430084F8440084F8450084F83D0000202B
:1018200010BD704790F83D10012901D0012070478C
:10183000022180F83D1000681149884214D0B0F1AF
:10184000804F11D00F4988420ED00F4988420BD0EB
:101850000E49884208D00E49884205D00D49884279
:1018600002D00D49884204D1816801F007010629A0
:1018700003D0016841F001010160002070470000C1
:10188000000001400004004000080040000C00403F
:1018900000040140004001400018004090F83D1055
:1018A000012901D001207047022180F83D10016814
:1018B000CA6842F00102CA6000681149884214D027
:1018C000B0F1804F11D00F4988420ED00E498842A6
:1018D0000BD00E49884208D00D49884205D00D49E9
:1018E000884202D00C49884204D1816801F0070186
:1018F000062903D0016841F0010101600020704712
:10190000000001400004004000080040000C0040BE
:10191000000401400040014000180040704770B5CD
:101920000446006801694FF00005C943890715D4D2
:10193000C168C943890711D4E91E016101202077DC
:10194000206880698007204602D0FFF7E7FF04E0A7
:1019500000F0C2F8204600F067F925772068016999
:10196000C943490717D4C168C943490713D46FF065
:1019700004010161022020772068806910F4407F13
:10198000204602D0FFF7CAFF04E000F0A5F8204689
:1019900000F04AF9257720680169C943090716D480
:1019A000C168C943090712D46FF00801016104201E
:1019B00020772068C0698007204602D0FFF7AEFF7D
:1019C00004E000F089F8204600F02EF92577206821
:1019D0000169C943C90617D4C168C943C90613D4EC
:1019E0006FF010010161082020772068C06910F4B1
:1019F000407F204602D0FFF791FF04E000F06CF832
:101A0000204600F011F9257720680169C943C9070C
:101A100008D1C168C943C90704D1891E01612046A4
:101A200000F068F920680169C943090609D4C16852
:101A3000C943090605D46FF0800101612046FFF714
:101A400079FE20680169C943490609D4C168C943C0
:101A5000490605D46FF040010161204600F054F9B9
:101A600020680169C94389060BD4C168C943890646
:101A700007D46FF0200101612046BDE87040FFF7F8
:101A80005ABE70BD10B586B0044614216846FEF7F4
:101A9000F4FC0E492068884215D10D4800210268E7
:101AA00042F008020260006800F0080005904FF460
:101AB000804000900220CDE90101CDE90310694684
:101AC0000448FFF7B3F906B010BD0000000800405D
:101AD00030380240000C0240704770B5044690F860
:101AE0003C0000260D4601280FD0012084F83C0060
:101AF0006AB1042A1DD0082A2FD00C2A3FD0012613
:101B0000002084F83C00304670BD022070BD206883
:101B100000F0DEFA2068816941F0080181612068E7
:101B2000816921F004018161206881692A6911437A
:101B300011E0206800F0FCFA2068816941F400613E
:101B400081612068816921F48061816120688169F7
:101B50002A6941EA02218161D2E7206800F01EFB78
:101B60002068C16941F00801C1612068C16921F0A4
:101B70000401C1612068C1692A69114311E020682C
:101B800000F040FB2068C16941F40061C161206838
:101B9000C16921F48061C1612068C1692A6941EA93
:101BA0000221C161ACE710B5040003D094F83D00F8
:101BB00010B107E0012010BD002084F83C00204651
:101BC00000F01EF8022084F83D00211D206800F07E
:101BD0000DFA012084F8460084F83E0084F83F00A6
:101BE00084F8400084F8410084F8420084F84300FF
:101BF00084F8440084F8450084F83D00002010BDBE
:101C000008B500680649884208D10648016841F0D5
:101C100004010160006800F00400009008BD0000AD
:101C200000080040403802407047000010B50446EC
:101C3000022249B104290ED0082913D094F841009A
:101C4000012816D0012010BD94F83E000128F9D1DA
:101C500084F83E200FE094F83F000128F2D184F888
:101C60003F2008E094F840000128EBD184F84020A0
:101C700001E084F841200122206800F01BFA164997
:101C80002068164A884201D0904203D1436C43F445
:101C9000004343642068884213D0B0F1804F10D0D5
:101CA0000F4988420DD00F4988420AD00E49884218
:101CB00007D0904205D00D49884202D00C49884295
:101CC00004D1816801F00701062903D0016841F0C1
:101CD00001010160002010BD00000140000401402E
:101CE0000004004000080040000C0040004001409B
:101CF0000018004000680349884201D1FFF79EB9EF
:101D000070470000001000407047FEE70F4810B514
:101D10000D4901600321416000214FF410228160D0
:101D2000C0E903124FF400124261017641768176D8
:101D3000C17601774177FEF730FF002803D0BDE878
:101D40001040FEF7AEBC10BD006400400803002048
:101D500010B596B01C2211496846FEF75CFB0021C5
:101D6000684600F0FFFB0E4C0C491C2220601C3121
:101D700007A8FEF750FB002107A800F0F3FB074976
:101D800060601C2238310EA8FEF745FB00210EA82A
:101D900000F0E8FBA06016B010BD0000E0350008C0
:101DA0000000002070B586B014216846FEF765FB80
:101DB00019480024016841F001010160016801F047
:101DC00001010591016841F008010160016801F01D
:101DD00008010591016841F08001016000680F4E23
:101DE00000F080004FF4E05505900022294630466F
:101DF000FFF719F900950125CDE9015469463046F0
:101E00000394FFF713F8CDE900546946044802959E
:101E1000FFF70CF806B070BD30380240001C0240DD
:101E20000000024010B58AB0002407941C216846C7
:101E30000894FEF722FB16481449C0E9001445F245
:101E40000721C0E9024104618461FFF7ACFE08B1DB
:101E5000FEF727FC079407A90D480894FFF76CFCD0
:101E600008B1FEF71EFC6020CDE9000402940822B0
:101E7000694607480494FFF730FE08B1FEF711FCED
:101E80000348FFF7FFFD0AB010BD00000008004046
:101E900030030020FEE7FEE700F092FC154E164DE1
:101EA000DFF858904FF496774FF0000805E020785F
:101EB000012808D1A5F8029017E0D6F8A8006968B3
:101EC0002C468842F3DC012000F040FBD6F8A80045
:101ED000A168884202DA2078012802D0207810B167
:101EE00003E06780EFE7A4F80280012000F02EFBFA
:101EF000E3E70000B0400020A4000020D4FEFFFF74
:101F00000A2000F023FB642000F044FAF8E7000008
:101F100010B5502080F31188BFF34F8FBFF36F8F40
:101F200001F0EAF818B104494FF080500860002031
:101F300080F3118810BD000004ED00E030B593B0CF
:101F400030216846FEF799FA14210CA8FEF795FA9D
:101F50001D480025016841F080510160006800F0D3
:101F6000805011901948016841F480410160006877
:101F7000022400F4804011900120009000040190A0
:101F80008001CDE9064006200890A820CDE909048B
:101F900004200B906846FFF717FA08B172B6FEE707
:101FA0000CA90F2081E831004FF4A0500F904FF49E
:101FB0008050109005210CA8FFF70AF9002801D0E5
:101FC00072B6FEE713B030BD4038024000700040EA
:101FD0000248016841F470010160704788ED00E03B
:101FE0000148FFF79CBC000078030020F0B50268B0
:101FF000254C264D264E274F274B4FF0804CA042B4
:1020000009D0604507D0A84205D0B04203D0B842FD
:1020100001D0984204D122F0700E4A6842EA0E02C2
:10202000A0421BD0604519D0A84217D0B04215D0AD
:10203000B84213D0984211D0184DA8420ED0184D76
:10204000A8420BD0174DA84208D0174DA84205D082
:10205000164DA84202D0164DA84203D122F4407575
:10206000CA682A434D6922F080022A4302608A68C6
:10207000C2620A688262A04201D0984201D1096915
:10208000016301214161F0BD0000014000040040F6
:1020900000080040000C00400004014000400140E6
:1020A000004401400048014000180040001C00406E
:1020B0000020004010B501F01F030121046A99407F
:1020C0008C430462016A9A401143016210BD000012
:1020D000F0B5026A22F001020262036A4268846972
:1020E000124E24F073050C682C4323F002058B6814
:1020F0002B430D4DA84201D0B04205D123F0080773
:10210000CB683B4323F00403A84201D0B04205D181
:102110004D6922F4407215438A692A434260846102
:10212000496841630362F0BD0000014000040140C2
:10213000F0B5026A22F010020262026A4368846902
:102140000D6824F4E64444EA05248D6822F0200258
:1021500042EA05120F4D104EA84201D0B04206D1FE
:10216000CF6822F0800242EA071222F04002A84221
:1021700001D0B04207D14D6923F4406343EA85039F
:102180008D6943EA85034360846149688163026223
:10219000F0BD00000000014000040140F0B5026AFB
:1021A00022F480720262026A4368C46922F40072F7
:1021B00024F073050C68124E2C438D6842EA052208
:1021C0000E4DA84201D0B04206D1CF6822F4006281
:1021D00042EA072222F48062A84201D0B04207D12D
:1021E0004D6923F4405343EA05138D6943EA05130F
:1021F0004360C4614968C1630262F0BD00000140F0
:102200000004014030B5026A22F480520262046A7E
:102210004268C3690D6823F4E64343EA05238D68E9
:1022200024F4005444EA0534084DA84202D0084D75
:10223000A84204D14D6922F4804242EA85124260EC
:10224000C36149680164046230BD000000000140C0
:1022500000040140FEE70907090E002804DB00F135
:10226000E02080F80014704700F00F0000F1E0203B
:1022700080F8141D70470000024900200968C863F7
:102280007047000030030020024A1368986210680B
:10229000C16370473003002010B510EE103A0360A0
:1022A0008168C26800EE101A00EE902A446830EE91
:1022B000201A00EE101AC0EE010A00EE104A20EEBD
:1022C000801A00EE101A00EE902A70EE201A00EE2E
:1022D000102AC0EE210A00EE103A00EE801A11EE2C
:1022E000101A416010BD10EE101AC16010EE901A65
:1022F00081600021016041607047000010B5838952
:10230000C3810A88F1EE040A52BA82814C88D31A3A
:1023100064BA04808C88B3F5805F64BA00EE104A1A
:10232000B8EE400A20EE200ADFED0B0A20EE200A6C
:1023300080ED010A89798172416901DD491E03E05E
:1023400013F5805F01DA491C416102EB4131028AD9
:10235000891A816110BD00000000803810B50C4C56
:1023600001212046FEF75AFE38B91420FEF74CFD35
:1023700001212046FEF752FE08B1002010BD0121C8
:102380002046FEF74BFE0028F9D0012010BD0000CA
:10239000000002402DE9F0411C4C6168491C61605D
:1023A000814221DB0026666020784FF48051184D71
:1023B0004F104FF48068C8B101284FF00002284642
:1023C0001AD0FEF730FE002239462846FEF72BFED3
:1023D000012241462846FEF726FE2078401CC0B266
:1023E0002070022800D92670BDE8F081012228461D
:1023F000FEF719FE002202E0FEF715FE0122394623
:102400002846FEF710FE0022E3E700009C000020B3
:10241000001C0240FEF71AFEFFF790FDFFF7C2FC1A
:10242000FFF774FCFFF7FEFC1148FFF7FBF90821EA
:102430000F48FFF7FBFB002442F2107529460020ED
:10244000FFF722FF6420FEF7DFFCFFF715FF642093
:10245000FEF7DAFC641C042CF0DB00BFFFF77EFF04
:102460000028FBD0FFF774FC00F077F8FEE70000CF
:102470003003002001460020842900D0C81C70478A
:102480002DE9F04720482DED028B84B000F046F88E
:102490001D48FEF785FC02211B48FEF704F9DFED1D
:1024A0001B0A9FED1B0A1B48FFF71DFF0025194F54
:1024B0009FED198A2E4610374FF4FA5840F6B83976
:1024C00043F6982A05EB850000EBC50007EBC00436
:1024D000204600F037F9CDE9006820460296E46D09
:1024E000F0EE481AB6EE001AF0EE080AB2EE040A50
:1024F0004B4652460121A0476D1C052DE2DB04B07E
:10250000BDEC028BBDE8F08708030020ABAAAA3E11
:102510006F12833B984100200000000000B58BB093
:1025200001220021CDE90521029100910191039141
:1025300004910E21CDE9082107926946FEF734F98E
:10254000002801D0FEF7ADF80BB000BD10B500B902
:10255000012000F06DFC002010BD10B500F08EFCD5
:10256000002010BD7FB50D4604464169B0F9080052
:1025700081B1A16971B1FFF77DFFD4E905128DE842
:102580000700D4E900102B46226900F08AFD039071
:1025900004B070BDFFF76EFF03A9CDE90001208AEA
:1025A0002B4682B2D4E9001000F04EFD012801D084
:1025B0000020EDE70398EBE710B504462DED028B04
:1025C000B0EE408A006D6065FEF732FD206594F83C
:1025D0005410401A84F8580084ED068A94ED082AB5
:1025E00084ED092A94ED071A84ED081AD4ED0D1A2A
:1025F000C4ED0E1A94ED010A30EE480A84ED070A84
:10260000B5EEC00AF1EE10FA02DDF0EE400A01E08C
:10261000F1EE400AD4ED112AF4EEE20AF1EE10FADE
:102620007EDD207810B1012843D064E0D4ED030AA8
:1026300060EE800AC4ED0A0AF5EEC00AF1EE10FA67
:1026400002DDF0EE601A01E0F1EE601A11EE900A80
:102650003A49884207DDD4ED0B1A94ED042A42EE84
:10266000001AC4ED0B1A30EE410A94ED051A20EE63
:10267000011A84ED0C1AD4ED0B1A94ED100AF4EE45
:10268000C01AF1EE10FA01DD84ED0B0AD4ED0B1A3D
:10269000B1EE400AF4EEC01AF1EE10FA02D3B0EE39
:1026A000610A01E084ED0B0A30EE800A30EE010A87
:1026B0001FE070EE410AD4ED032AB0EE003A60EE5E
:1026C000A22AC4ED0A2AD4ED040A60EE800A01EEC3
:1026D000430AC4ED0B0A94ED051A72EEA00A30EE1F
:1026E000020A20EE010A84ED0C0A30EE800A30EE78
:1026F000210A84ED0D0AD4ED0D0A94ED0F0AF4EED3
:10270000C00AF1EE10FA01DD84ED0D0AD4ED0D0AD8
:10271000B1EE400AF4EEC00AF1EE10FA08D200E081
:1027200002E084ED0D0A03E09FED050A84ED0B0A3B
:1027300094ED0D0ABDEC028B10BD000000007A4440
:10274000000000000349C165034901660349416671
:102750007047000061270008B9270008B925000864
:102760009DED003A9DED022ADDED012AB8EE433AD7
:10277000017080ED123A80ED110A00EE103AB8EEC9
:10278000400A80ED100A00EE102AB8EE400A80EDF3
:102790000F0AB8EEE20A80ED130AB8EEC20A80ED25
:1027A000010A9FED040A80ED0D0A0C30C0EC030A0B
:1027B00070470000000000000C3080EC030A7047F6
:1027C00070B50F4CC8206080FFF7C0FE0D4D052688
:1027D000B4F90200B5F9901090FBF6F088420ADBDC
:1027E00000206080D5F8A800A0F57A70A060A0F560
:1027F0009830606070BD0120FFF7A8FEE8E7000098
:10280000A4000020B04000202DE9F041184C0F46F4
:102810000546E6682068001D00F042FA38B92068D5
:1028200090F82C1001208840216981432161681CA7
:1028300007D137B12168BDE8F0410E48091D00F00D
:1028400073BA20683544B5424560216805D2A06B53
:10285000BDE8F041091D00F04FBA606B091D00F0A2
:102860004BFAA06A854200D2A562BDE8F081000063
:102870001C0000209C0400202DE9F041054600F0DA
:102880005FFA2E4CA068401CA06020682C4F10B14D
:10289000606940B32DE02560A068012829D1002699
:1028A00006EB860007EB800000F018FA761C072E76
:1028B000F6D323488C3000F011FA2148A03000F004
:1028C0000DFA1F48B43000F009FA1D48C83000F076
:1028D00005FA1B48DC3000F001FA19488C306063BF
:1028E0001430A06305E02068E96AC06A884200D815
:1028F0002560606A401C6062E96A012022698840A4
:102900001043206101EB810007EB8000291D00F0DE
:102910000BFA00F035FA606900280CD02068E96AEB
:10292000C06A884207D207494FF080500860BFF361
:102930004F8FBFF36F8FBDE8F08100001C000020B7
:10294000C003002004ED00E010B5044690F85100EB
:1029500058B101280CD002280FD0502080F31188E4
:10296000BFF34F8FBFF36F8FFEE7206B00F01CFAB1
:102970002046BDE8104000F017BA10BD10484FF4D3
:102980007051420706D0C01D0D4920F00700411AC2
:10299000C1F570510B4A00230144C2E90003083914
:1029A000183A21F0070111604B600B600B1AC0E967
:1029B000001393604FF00040536050617047000077
:1029C000B004002070000020144E154CA6F1C8077A
:1029D0004FF08058DFF84C9012E000BF00F0B0F9E3
:1029E000F068C568281D00F05BF9A068401EA06073
:1029F0006068401E606000F0C3F92846FFF7A4FF3E
:102A000060680028EAD138680128F9D9C9F800803F
:102A1000BFF34F8FBFF36F8FF2E7000088040020F1
:102A20001C00002004ED00E02DE9F0479A46DDE9A6
:102A3000098481466FF00303206B03EB820210448C
:102A4000089E20F00707780707D0502080F31188F0
:102A5000BFF34F8FBFF36F8FFEE7002561B10020FA
:102A600023180A5C83F834200A5C12B1401C102839
:102A7000F6D384F8435001E084F83450072E00D395
:102A80000626E662C4E91165201D00F032F904F162
:102A9000180000F02EF92461C6F107006462A061FD
:102AA000E56484F8505052464946384600F0C0F874
:102AB0002060B8F1000F01D0C8F80040BDE8F087F1
:102AC00030B5114900E011460A688242FBD34B68D9
:102AD0005C18844203D14068184448600846436843
:102AE0001C18944209D1084C183C2468A24209D011
:102AF00052681A4442600A6812680260814200D03B
:102B0000086030BD0460F9E7700000200648416BA2
:102B1000096829B1416BC968C96849688162704711
:102B20004FF0FF31FAE700001C0000200848406821
:102B3000401C4FF0500080F3118804D0BFF34F8F3A
:102B4000BFF36F8FFEE7BFF34F8FBFF36F8FFEE7CB
:102B5000780000202DE9F0410546002700F0C4F977
:102B6000324E306808B9FFF709FF706905424ED14F
:102B7000C5B3083568070ED005F00700C0F108009E
:102B80000544680707D0502080F31188BFF34F8FAA
:102B9000BFF36F8FFEE72DB37068854237D82348A7
:102BA000183001460C6801E020460C466168A942D5
:102BB00002D221680029F7D131688C4227D00768FA
:102BC0002168016060680837411B10290FD960191E
:102BD000420708D0502080F31188BFF34F8FBFF316
:102BE0006F8FFEE713E041606560FFF769FF616882
:102BF0007068401A7060B268904200D2B06070692C
:102C000001430020C4E90001F068401CF06000F0BE
:102C1000D9FA780707D0502080F31188BFF34F8F7F
:102C2000BFF36F8FFEE73846BDE8F0815800002003
:102C300010B5031F4FF080741C601B1F21F00101B1
:102C40001960191F044B0B6014390A60091F6FF0DB
:102C5000020244380A6010BD2D2B0008F0B40E4C5F
:102C6000DDE9046521600021A160E16008212161A6
:102C70000A49140A0C704A701A0A8A70CB70320A18
:102C80000A714E712A0A8A71CD71F0BCA1F10C0350
:102C90000A460149FDF719BD644100209400002057
:102CA000D0E9013201699A60D0E901235A604A688B
:102CB000824201D182684A60002202610868401E97
:102CC0000860086870470000034B036003F154007C
:102CD0000860802010607047B400002000F10801F7
:102CE0004FF0FF32C0E90112C160016100210160B3
:102CF000704700210161704730B50B685A1C02D043
:102D000000F1080202E0026904E0224654682568E6
:102D10009D42FAD953684B6099608A60516008619E
:102D20000168491C016030BD42684A6093688B604D
:102D300093685960916008610168491C016070479F
:102D4000502080F31188BFF34F8FBFF36F8F0A4974
:102D50004868401C486001280CD10848006810F001
:102D6000FF0F07D0502080F31188BFF34F8FBFF3C0
:102D70006F8FFEE7704700007800002004ED00E050
:102D80000849486828B1401E486001D180F3118885
:102D90007047502080F31188BFF34F8FBFF36F8FC0
:102DA000FEE700007800002070B500282AD0164DFC
:102DB000A0F1080460686969084207D1502080F3D7
:102DC0001188BFF34F8FBFF36F8FFEE722683AB1D0
:102DD000502080F31188BFF34F8FBFF36F8FFEE752
:102DE0008843606000F080F8606869680844686043
:102DF0002046FFF765FE2869401C2861BDE8704049
:102E000000F0E0B970BD0000580000204FF0E02055
:102E100000210161816105494FF47A720968B1FBB3
:102E2000F2F1491E4161072101617047180000203D
:102E300010B5020014D00F48006B38B1502080F359
:102E40001188BFF34F8FBFF36F8FFEE700F04CF890
:102E500000211046FFF7D8FC00F0B4F9002807D194
:102E600005494FF080500860BFF34F8FBFF36F8F5D
:102E700010BD00001C00002004ED00E010B586B07D
:102E80000024039405AA04A903A80494FFF71CFFD7
:102E9000DDE903010094CDE9011000230EA11048E3
:102EA000059A00F0FEF80F490028C86211D05020A2
:102EB00080F31188BFF34F8FBFF36F8F4FF0FF3058
:102EC000886201204861CC6006B0BDE8104000F087
:102ED00041B806B010BD000049444C450000000058
:102EE000C92900081C0000200248016B491C01632D
:102EF000704700001C0000201448016B11B1012133
:102F0000C16170470021C1610169B1FA81F1C1F16C
:102F10001F0101EB81020E4951F822306BB101EB28
:102F2000820101F108034A6852684A609A4201D15D
:102F300052684A60D16801607047502080F3118860
:102F4000BFF34F8FBFF36F8FFEE700001C00002020
:102F5000C00300201CB537480168374A914207D1A9
:102F6000502080F31188BFF34F8FBFF36F8FFEE7C0
:102F700000683149491E884207D1502080F31188EA
:102F8000BFF34F8FBFF36F8FFEE72C490878019096
:102F9000FF20087008788DF800009DF800009DF86B
:102FA000002000F0F000904207D0502080F31188FC
:102FB000BFF34F8FBFF36F8FFEE79DF80000204CEB
:102FC00000F0500020700720A06005E09DF8002070
:102FD00052008DF80020401E9DF800201206F5D406
:102FE000A060032807D0502080F31188BFF34F8FD3
:102FF000BFF36F8FFEE74FF44070A0600198087038
:103000000C482030016841F470010160016841F012
:1030100070410160FFF7FAFE00206060FDF728F9BB
:103020000848016841F040410160FDF70DF90020BA
:103030001CBD000000ED00E071C20F4100E400E0A3
:103040007800002034EF00E02DE9FF5F8346DDE9E2
:103050000E87994616468A469000FFF77BFD0500CD
:103060001CD05420FFF776FD040014D00020256307
:1030700084F85100CDE90240CDE900874B46324645
:1030800051465846FFF7D0FC2046FFF7F5FB0120DC
:1030900004B0BDE8F09F2846FFF786FE4FF0FF30F2
:1030A000F6E7F0B585B0DDE90B640A9DA6B1DCB1A9
:1030B000542700972663022684F85160002604AF47
:1030C000CDE90246CDE90057FFF7AEFC2046FFF7F9
:1030D000D3FB049805B0F0BD502080F31188BFF3F6
:1030E0004F8FBFF36F8FFEE7502080F31188BFF33F
:1030F0004F8FBFF36F8FFEE72DE9F0412F4C002675
:10310000206B28B1A069401CA0613046BDE8F08169
:10311000E5686D1CE56013D1606B006838B1502024
:1031200080F31188BFF34F8FBFF36F8FFEE7606BA3
:10313000A16B6163A063206A401C2062FFF7E6FC7C
:10314000A06ADFF87C80854209D3606B0068A0B17B
:10315000606BC068C7687868854211D2A062206839
:10316000C06A00EB800158F82100012800D901262F
:10317000E0690028C9D00126C7E74FF0FF30EDE72E
:10318000381DFFF78DFDB86A18B107F11800FFF779
:1031900087FDF96A0120226988401043206101EB14
:1031A000810108EB8100391DFFF7BEFDF86A216837
:1031B000C96A8842C9D30126C7E700001C00002065
:1031C000C00300202DE9F0472C4D00242746286B32
:1031D00038B1FFF7B5FD286B401E2863286B40B15E
:1031E00046E0502080F31188BFF34F8FBFF36F8FFD
:1031F000FEE7A968224E0120D1B3A6F1B4098046AA
:103200003068E8B1F068C46804F11800FFF748FDC1
:10321000201DFFF745FDE06A2A6908FA00F1114315
:10322000296100EB800109EB8100211DFFF77CFD86
:10323000E06A2968C96A8842E2D3C5F81C80DFE7E2
:103240000CB1FFF763FCAC6944B14646FFF754FF8D
:1032500000B1EE61641EF9D10020A861E86938B1BF
:103260000849012738070860BFF34F8FBFF36F8FFE
:10327000FFF786FD3846BDE8F08700001C000020FF
:103280007404002004ED00E021F00042A2F160523D
:10329000B2F5801F01F0004328BFD2F17F6C0BD93B
:1032A0005FEA001C43EAC20242EB507018BF70474D
:1032B00028BF20F001007047B2F5801FBCBF184640
:1032C00070474FEA410C1CF5001F02D2084600F07F
:1032D00081B970B500F0B4F800000089FFF7F6BFBF
:1032E0004FF00040A0F5800070470000DFF848C1B3
:1032F00070B51CEA111E1EBF1CEA13159EEA0C0FC6
:1033000095EA0C0F00F06F8081EA030423EA4C1366
:103310004EEAD47E21EA4C1141F4801143F480132B
:10332000AE44A1FB024CA0FB0365AEF17F7E3619D3
:1033300055EB0C05A1FB034C4CF10003A0FB021C58
:1033400016EB0C06654153F10003094218BF46F025
:10335000010613F4007F0BD14FEA03314FEA053029
:10336000340341EA155140EA16506FF003020AE0B7
:103370004FEAC3214FEAC520F40241EA555140EA21
:1033800056506FF0020202EB2E4201EB025585EA25
:10339000CE710AD05FEA440C18BF24F0004450F10B
:1033A000000041F1000120EAD47040F2FE7C624549
:1033B00000D270BDA84214BF4FF080444FF040448B
:1033C000002E08BF0024BEF1806FA8BFA1F1C0414C
:1033D000BDE8704080F282804FF0000001F1C041F2
:1033E00001F0004170479EEA0C0F0CEA131518BF5C
:1033F00095EA0C0F06D04FF0000081EA030E0EF0A4
:10340000004170BD00F01CF88900013E00F007B8D3
:1034100000F009B84FEA430C5FEA5C5C08D081EA2F
:10342000030100F05BB84FEA410C5FEA5C5CF6D147
:103430004FF00000014970470000FF070000F87FCF
:103440000EF1020E2EF0030E5EF8046B364205D428
:10345000012A43EB030515F5001F12D8012841EBA3
:10346000010C1CF5001F0CD80ED14FEAD17C15F5CC
:10347000001F0CEB4C0C0CF1020C08BF4CEBD37C86
:1034800004E04FF0080C01E04FEAD37C0CEB4C0554
:1034900026FA05F606F00706B6F1040C06D20EEB86
:1034A000860CBDE870404CF0010C6047DFE80CF082
:1034B000090B02024FF000414FF00000A1F500217E
:1034C00070BD19461046012851EB010418BFD4F510
:1034D000001484BF002001F0004170BD0808A0F571
:1034E00000114FEA3101704743004FEAD30C4FEA15
:1034F0003C0C43401FBF40070CF1605113F0FE4FDE
:1035000070471CF0006F03D100200CF000417047A1
:103510000CF0004343EA507010B540EACC0000F0D4
:103520000EF800BF000000924FEA0001FFF7D6BF7F
:103530004FF000414FF00000A1F5002170470EF15F
:10354000020E2EF0030E5EF8044B244204D44FEA20
:103550004102B2F17F4F11D84FEA4003B3F17F4FE0
:103560000CD80ED14FEAD07CB2F17F4F0CEB4C0C53
:103570000CF1020C08BF4CEBD17C04E04FF0080CBE
:1035800001E04FEAD17C0CEB4C0324FA03F404F085
:103590000704B4F1040C06D20EEB840CBDE8104015
:1035A0004CF0010C6047DFE80CF0070802024FF016
:1035B0000040A0F5800010BD0846420018BFD2F1BF
:1035C000807288BF00F0004010BD4FF04070E1EE07
:1035D000100A7047FF2141EAD050C0057047000033
:1035E0004C360008011F0008000000000000000029
:1035F00080000000000000000000000068360008A5
:103600005D050008000000000000000080000000D0
:10361000000000000000000058360008991E000855
:10362000FFFF00000000000080000000000000001C
:103630000000000000000000000000000102030480
:1036400006070809000000000102030464656661C2
:10365000756C745461736B0070726F62655761763C
:10366000655F7461736B00006368617369735F7495
:1036700061736B009436000800000020B400000065
:10368000C401000848370008B40000205C4900006D
:10369000E001000800000000000000000000000041
:1036A0000100000010000000000000000024F400F1
:1036B000000000000000000000000000000000000A
:1036C00000000000000000000000000000000000FA
:1036D00000000000000000000000000000000000EA
:1036E00000000000000000000000000000000000DA
:1036F00000000000000000000000000000000000CA
:1037000000000000000000000000000000000000B9
:10371000AAAAAAAA0000000000000000640000009D
:103720000000000000000000000000000000000099
:103730000000000000000000000000000000000089
:08374000000000000000000081
:040000050800018965
:00000001FF
