:020000040800F2
:1000000080630020E9020008692A0008932600089E
:10001000BD290008430500089D30000800000000CD
:10002000000000000000000000000000290200089D
:10003000710700080000000085020008E52A00089A
:100040000303000803030008030300080303000878
:100050000303000803030008030300080303000868
:100060000303000803030008030300080303000858
:100070000303000803030008030300080303000848
:100080000303000803030008030300080303000838
:100090004505000851050008030300080303000894
:1000A0000303000803030008030300080303000818
:1000B0000303000803030008030300080303000808
:1000C00003030008030300080303000803030008F8
:1000D00003030008030300080303000803030008E8
:1000E00003030008030300080303000803030008D8
:1000F00003030008030300080303000803030008C8
:1001000003030008030300080303000803030008B7
:100110000303000803030008B52B000803030008CD
:100120000303000803030008030300080303000897
:100130000303000803030008030300080303000887
:100140005D050008690500080303000803030008B3
:1001500003030008E90600080303000891300008C3
:100160000303000803030008030300080303000857
:100170000303000803030008030300080000000055
:10018000030300080303000800F002F800F03CF845
:100190000AA090E8000C82448344AAF10107DA45E2
:1001A00001D100F031F8AFF2090EBAE80F0013F0F8
:1001B000010F18BFFB1A43F001031847A4430000C6
:1001C000C4430000103A24BF78C878C1FAD8520757
:1001D00024BF30C830C144BF04680C6070470000C1
:1001E0000023002400250026103A28BF78C1FBD840
:1001F000520728BF30C148BF0B6070471FB504F0DD
:1002000042F91FBD10B510BD00F061F91146FFF7AE
:10021000F5FF03F03FF800F07FF903B4FFF7F2FFBA
:1002200003BC00F087F900002C4B19680868B0E89F
:10023000F04F80F30988BFF36F8F4FF0000080F319
:10024000118870470000000008480068006880F3CB
:1002500008884FF0000080F3148862B661B6BFF3DF
:100260004F8FBFF36F8F00DF00BF00BF08ED00E0CE
:10027000DFF80C00016841F470010160704700BFB5
:1002800088ED00E0EFF30980BFF36F8F134B1A681E
:100290001EF0100F08BF20ED108A20E9F04F10600B
:1002A00009B44FF0500080F31188BFF34F8FBFF3B4
:1002B0006F8F03F07FFD4FF0000080F3118809BCC1
:1002C00019680868B0E8F04F1EF0100F08BFB0ECD6
:1002D000108A80F30988BFF36F8F704724000020D5
:1002E000EFF3058070470000094880470948004740
:1002F000FEE7FEE7FEE7FEE7FEE7FEE7FEE7FEE7D6
:10030000FEE7FEE704480549054A064B7047000032
:10031000A52B00088901000880450020806300208B
:10032000804D0020804D002053EA020C00F06980CF
:100330002DE9F04B4FF00006002B1FBFB3FA83F5F9
:1003400003FA05F424FA05F65E4012BF1643B2FA2A
:1003500082F502FA05F4C5F120051EBF22FA05FC5C
:1003600044EA0C04203556EA044C4FEA144418BF02
:10037000641C4FF000084FF00009904271EB030C31
:1003800039D3002919BFB1FA81F701FA07F6B0FA9B
:1003900080F700FA07F6C7F120071EBF20FA07FC16
:1003A00046EA0C062037B6FBF4FCA7EB0507103F26
:1003B00007F01F0BCBF120060CFA0BFB2CFA06F60C
:1003C00044BFB3460026202FA4BF5E464FF0000B6B
:1003D0005BEA060C08BF4FF0010B19EB0B09ABFBF6
:1003E000027C48EB0608C01B06FB02CC0BFB03CCCF
:1003F00071EB0C01C1E70B46024641464846BDE899
:10040000F08B13B54FF000004FF00001AFF3008008
:10041000BDE81C40704710B5203AC0F00B80B1E831
:100420001850203AA0E81850B1E81850A0E8185029
:10043000BFF4F5AF5FEA027C24BFB1E81850A0E832
:10044000185044BF18C918C0BDE810405FEA827C4C
:1004500024BF51F8043B40F8043B08BF7047D20763
:1004600028BF31F8023B48BF11F8012B28BF20F804
:10047000023B48BF00F8012B70474FF0000200B567
:10048000134694469646203922BFA0E80C50A0E8B7
:100490000C50B1F12001BFF4F7AF090728BFA0E865
:1004A0000C5048BF0CC05DF804EB890028BF40F831
:1004B000042B08BF704748BF20F8022B11F0804F73
:1004C00018BF00F8012B704770477047704775469A
:1004D00000F02CF8AE4605006946534620F00700B0
:1004E000854618B020B5FFF70DFFBDE820404FF05E
:1004F00000064FF000074FF000084FF0000B21F00E
:100500000701AC46ACE8C009ACE8C009ACE8C009DA
:10051000ACE8C0098D46704710B50446AFF30080C3
:100520002046BDE81040FFF778BE00000048704745
:100530001C45002001491820ABBEFEE72600020042
:100540007047FEE7014800F092BA00002C0300203B
:10055000014800F08CBA00002C030020014800F094
:1005600086BA000054030020014800F080BA000061
:10057000540300202DED068B82B002F0CFFE5048D0
:100580004FF00008DFF83CB1A0F8048081469FEDF1
:100590004E9B9FED4FAB504FDFF840A10BF1100485
:1005A000052002F0FFFEB9F904004D4600EE100AE6
:1005B0004448B8EEC00A02F0BFFD9BED018A18EE78
:1005C000100A03F0EFFE53EC192B03F0EDFD03F0DE
:1005D000B9FD606018EE100A03F0E4FE53EC1A2B2C
:1005E00003F0E2FD03F0AEFDE066B1EE480A3C48E0
:1005F00084ED350A84ED4F8AB0F900004FF47A6635
:1006000000EE100A32463946B8EEC00A2C4884ED96
:10061000690A02F033FE2A4832463946801C02F04D
:100620002DFEB5F90010CAF83810B5F90210CAF855
:100630003C102C4E002500BF05EBC50036F920000C
:1006400000EE100A05EB850000EBC50004EBC000CE
:10065000B8EEC00A416E88476D1C052DECDBCDF865
:10066000008094ED270A4FF400764546BDEEC00A9F
:10067000002310EE100A94ED0D0A02B2BDEEC00A7E
:1006800010EE100A01B2304603F016FA009594ED10
:10069000750ABDEEC00A10EE100A94ED5B0A03B2B3
:1006A000BDEEC00A10EE100A94ED410A02B2BDEE92
:1006B000C00A10EE100A01B2304603F021FA6FE7CB
:1006C000C400002004430020187AA1177AA1E73F54
:1006D000187AA1177AA1E7BF60F0FFFF0000014080
:1006E000BA000020E8410020014800F0CDBC000025
:1006F0005004002001681823CAB2103AB2FBF3F28A
:10070000054B6FF30901032A9B5CC36500D9091DE2
:1007100081650846704700000C45000810B5014689
:1007200000208B698A6A4FF0C07453B1B3F5005F43
:1007300015D072B1012A0CD0022A0AD0032A09D19D
:1007400004E01AB1012A06D0022A03D1C96AC901FC
:1007500000D5012010BDC96AA142FAD010BD002AFF
:10076000F7D0012AF2D0022AF3D0032AF3D010BD29
:10077000704772B6FEE790F82020012A07D0022ABF
:1007800005D0416A41F48021416201207047006830
:1007900042690A43426100207047F0B590F820504A
:1007A0000468A468012D05D0022D03D0416A41F4EC
:1007B00080215DE014F0406F01D1E50055D5C4F310
:1007C0000164022C03D9416A41F4000150E0012583
:1007D000A5401D608D684FF4C0739DB1CE68354350
:1007E0004E6845EAC605066803EB0417F5514FF459
:1007F000C275076805EB04150E697E51097D012954
:1008000005D009E00E88CD6845EA4655EBE701685A
:100810004E5946F480764E511179D579567941EA90
:10082000056195792D0445EA062529434FF4C676DE
:10083000056806EB0416A9511178D57841EA0561DF
:10084000957852782D0445EA022211434FF4C4757D
:10085000026805EB04155151006803EB041142587E
:1008600042F0010242500020F0BD416A41F4001103
:1008700041620120F0BD000010B590F82020012A4F
:1008800007D0022A05D0416A41F48021416201204B
:1008900010BD3B48D0F8002242F00102C0F800220F
:1008A000D0F8002222F47C52C0F80022D0F80022B6
:1008B0004B6A42EA0322C0F800220A7D02F01F03BD
:1008C00001229A40D0F81C329343C0F81C32CB6905
:1008D000B3B9D0F80C329343C0F80C328C894B6812
:1008E00064F31F434C6900EBC404C4F840320C8924
:1008F0000B6864F31F434C6900EBC404C4F8443232
:10090000CB69012B16D1D0F80C321343C0F80C324E
:100910000C884B6864F31F434C6900EBC404C4F8B3
:1009200040320C89CB6864F31F434C6900EBC4046C
:10093000C4F844328B69002BD0F804320ED0134334
:10094000C0F804320B69002BD0F8143208D01343DE
:10095000C0F81432096A012904D008E09343EFE794
:100960009343F5E7D0F81C121143C0F81C12D0F8DD
:10097000001221F00101C0F80012002010BD00009B
:1009800000640040704730B590F82040012C05D03D
:10099000022C03D0416A41F480215DE00468002903
:1009A00055D02469A40754D04FF4D874056804EBDB
:1009B00001142D5915F00405956005682D594ED088
:1009C000ED08556005682C5904F00204D4604FF41A
:1009D000DA74056804EB01142D5905F00F05156153
:1009E00005682D59C5F30725956105682C59240C18
:1009F00054614FF4DC72046802EB0112A4581C70BD
:100A00000468A458240A5C700468A458240C9C70E0
:100A10000468A258120EDA704FF4DE72046802EB1A
:100A20000112A4581C710468A458240A5C7104685B
:100A3000A458240C9C710468A258120EDA71006844
:100A400081B1016941F020010161002030BDE468FD
:100A5000A8E7416A41F400114162012030BD6D0DEB
:100A60001560AFE7C16841F02001C160EDE72DE9F5
:100A7000F05F0546006800244669D0F80490876856
:100A8000D0F80CB0D0F810A0D0F81880F10748D0FA
:100A9000F90714D001218160B80703D5284600F07A
:100AA00092FA0CE0780702D54FF4006407E03807AB
:100AB00002D54FF4805402E0284600F083FAF8058E
:100AC00016D529684FF480708860B80503D528468C
:100AD00000F07BFA0CE0780502D544F4005407E0FE
:100AE000380502D544F4804402E0284600F06CFA50
:100AF000F80316D529684FF480308860B80303D511
:100B0000284600F064FA0CE0780302D544F400446F
:100B100007E0380302D544F4803402E0284600F0B0
:100B200055FA300707D55FEACB6004D52968102055
:100B300044F40074C86070074FF0080707D55FEAF7
:100B40000B7004D52868C760284600F0A9F9B007E3
:100B500006D52868C068800702D0284600F0A2F9B0
:100B6000700607D55FEACA6004D52968102044F4EE
:100B700080640861B00607D55FEA0A7004D528686A
:100B80000761284600F0EEF9F00606D528680069EE
:100B9000800702D0284600F0E6F9B00308D55FEAE6
:100BA000C96005D5296810204860284600F0DCF9A6
:100BB000F00307D55FEA097004D528684760284626
:100BC00000F006FA300446D55FEA497040D5F005DA
:100BD00004D55FEAC87001D044F00104B00504D523
:100BE0005FEA887001D544F00204700504D55FEA1D
:100BF000487001D544F00404300529D518F0700F71
:100C000026D008F07000402815D006DC102809D046
:100C100020280AD0302816D10AE050280ED06028AB
:100C200011D10EE044F008040DE044F010040AE095
:100C300044F0200407E044F0400404E044F0800461
:100C400001E044F480742868816921F070018161B9
:100C5000296804204860002C05D0686A2043686237
:100C60002846FFF78FFEBDE8F09F70B5040003D063
:100C700094F8200010B104E0012070BD204600F07F
:100C800081F82068016841F00101016000F046FC34
:100C90000546052604E000F041FC401B0A2811D857
:100CA00020684068C007F6D02068016821F0020182
:100CB000016000F033FC05460BE000F02FFC401B08
:100CC0000A2806D9606A40F40030606284F8206027
:100CD000D2E7206840688007EFD4207E0128206892
:100CE00001683DD021F080010160607E012820680C
:100CF000016838D021F040010160A07E0128206801
:100D0000016833D021F020010160E07E01282068D5
:100D100001682ED041F010010160207F0128206879
:100D2000016829D021F008010160607F0128206856
:100D3000016824D021F004010160D4E902010843D4
:100D4000D4E90412114308436168491E084321682D
:100D5000C86100206062012084F82000002070BD7E
:100D600041F08001C0E741F04001C5E741F02001BA
:100D7000CAE721F01001CFE741F00801D4E741F0C4
:100D80000401D9E7F0B587B0044614216846FFF79F
:100D900074FB3E4B3E48DFF8F0E01968D4F800C021
:100DA0003B4A03250226092710300024491CF4453C
:100DB0002AD11960012907D1016841F00071016051
:100DC000006800F000700590106840F008001060A6
:100DD0001068CDE9005600F00800CDE904706946BE
:100DE0002C48CDE9024500F09BFA00220521142091
:100DF00000F032FC142000F021FC00220521152017
:100E000000F02AFC15203AE0DFF88CE0F44538D1F8
:100E1000D0F800C04CF0806CC0F800C0D0F800C022
:100E200001290CF0806CCDF814C0196007D101685D
:100E300041F000710160006800F0007005901068DA
:100E400040F002001060106802AB00F00200059054
:100E50006020CDE9000683E8B00069460F4800F045
:100E60005FFA00220521402000F0F6FB402000F050
:100E7000E5FB00220521412000F0EEFB412000F0BF
:100E8000DDFB07B0F0BD0000006400401000002052
:100E900030380240000C024000680040000402406C
:100EA0007047000070B5064600682749274C284D5A
:100EB00088421AD1A31C05F1CC0200213046FFF76D
:100EC00062FD05F1CC000168A1F50070013801D088
:100ED00001280AD1491EC8B220701C4900EBC0008D
:100EE00005EB8000891C02F059F91A4930688842E4
:100EF0001CD1164B184A123300213046FFF743FD30
:100F000015480068A0F50071013903D0012901D00E
:100F100002290BD1401EC0B2607000EBC0000B492B
:100F200005EB80001231483002F038F90B480068B8
:100F3000416941F00201416109480068416941F09D
:100F40000201416170BD0000006400408C0000207F
:100F5000E841002000680040E84200202C03002007
:100F600054030020704770477047000070B5044676
:100F700090F82000012804D0606A40F400206062EC
:100F800018E0022084F820002068016821F00101A7
:100F9000016000F0C3FA05460EE000BF00F0BEFAA3
:100FA000401B0A2808D9606A40F4003060620520BE
:100FB00084F82000012070BD20684068C007EDD192
:100FC000606270BD704770477047704770477047E8
:100FD00070472DE9F0410446876D00F09FFA064600
:100FE00094F835000025022806D08020606584F83A
:100FF00034500120BDE8F0812068016821F016011D
:1010000001602068416921F080014161206C08B9CC
:10101000A06C20B12068016821F0080101602068FF
:10102000016821F0010101600CE000F077FA801BFB
:10103000052807D920206065032084F8350084F84E
:101040003450D7E720680068C007EED194F85C10F0
:101050003F208840B860012084F8350084F834507F
:101060000020C7E790F83510022903D080214165A0
:1010700001207047052180F835100068016821F0D3
:1010800001010160002070472DE9F84304464FF04C
:101090000009CDF8009063484FF41651A56D006823
:1010A000B0FBF1F72E6894F85C10082000FA01F10B
:1010B00031420FD021680A6852070BD50A6822F026
:1010C00004020A6094F85C108840A860606D40F0EB
:1010D0000100606594F85C104FF0010808FA01F017
:1010E000304208D021684969090604D5A860606DBE
:1010F00040F00200606594F85C10042088403042A3
:1011000008D021680968890704D5A860606D40F09F
:101110000400606594F85C1010208840304218D0BC
:1011200021680968090714D5A86020680168490387
:1011300004D50068000308D5A16C07E00168C90563
:1011400003D4016821F008010160216C09B1204637
:10115000884794F85C1020208840304231D02168C4
:101160000968C9062DD5A86094F8350005282068BF
:10117000016806D0490347D5006800031DD4616C9F
:101180001CE021F0160101602068416921F0800116
:101190004161206C08B9A06C20B12068016821F081
:1011A0000801016094F85C103F208840A86084F832
:1011B000358084F83490216D1FE0E16B09B1204641
:1011C0008847606D00282BD0606DC00714D00520C3
:1011D00084F835002068016821F001010160009861
:1011E000401C0090B84203D820680068C007F6D1C0
:1011F00084F8358084F83490E16C002910D001B077
:101200002046BDE8F04308470168C905D5D4016808
:1012100021F01001016084F8358084F83490CCE727
:10122000BDE8F883200000202DE9F041044600F0DD
:1012300075F906465CB1022084F83500002584F873
:1012400034502068016821F0010101600DE00120A7
:10125000BDE8F08100F062F9801B052805D9202047
:101260006065032084F83500F2E720680068C00755
:10127000F0D12268116820480140D4E901031843E5
:10128000D4E903363343184363691843A369184309
:10129000E3691843236A18430843616A042903D1A8
:1012A000D4E90B1319430843106020684069666A4B
:1012B00020F0070130460E43012704280CD1A06A14
:1012C0000643E06A40B12046FFF728FA20B14020EB
:1012D000606584F83570BAE7206846612046FFF7FC
:1012E00009FA94F85C203F2191408160656584F89B
:1012F00035700020ACE700003F8010F070B5044668
:1013000000F00CF90546601C02D004480078044443
:1013100000F004F9401BA042FAD370BD1400002075
:101320002DE9F84FDFF8BCA10022012503264FF07C
:101330000F090AF1040BAAF1040E00BF0B6805FAAD
:1013400002F42340A34270D10F7907F00307012F65
:1013500001D0022F16D187684FEA420806FA08FC2E
:1013600027EA0C07D1F80CC00CFA08FC4CEA070C71
:10137000C0F808C04768A7430C79C4F30014944030
:101380003C4344600C79E443A4070AD0C4684FEAA4
:10139000420C06FA0CF7BC438F6807FA0CF7274398
:1013A000C7600C7904F00304022C12D1D40800EBBE
:1013B000840CDCF820405707FF0E09FA07F824EAEE
:1013C0000804D1F8108008FA07F848EA0408CCF8B5
:1013D000208004684FEA420C06FA0CF7BC430F79F0
:1013E00007F0030707FA0CF7274307604C6814F46B
:1013F000403F70D03C4C276847F480472760246802
:1014000022F0030704F480440094384C07EB040CEA
:10141000DCF8084897074FEA177809FA08F7BC4341
:10142000334FB84202D1002724E054E0314FB84294
:1014300001D101271EE0304FB84201D1022719E047
:101440002E4FB84201D1032714E02D4FB84201D1ED
:1014500004270FE02B4FB84201D105270AE02A4F9D
:10146000B84201D1062705E0284FB84201D107272D
:1014700000E0082707FA08F72743CCF80878DAF8DD
:1014800000405746D1F804C09C435FEACC2C00D5FD
:101490001C433C60DBF800405F46D1F804C09C432D
:1014A0005FEA8C2C00D51C433C60DEF80040774698
:1014B000D1F804C09C435FEA8C3C00D51C433C60DF
:1014C000084F083F3C68D1F804C09C435FEACC3C1D
:1014D00000D51C433C60521C102AFFF42FAFBDE81E
:1014E000F88F0000083C01404438024000300140C1
:1014F000000002400004024000080240000C0240CC
:10150000001002400014024000180240001C02407B
:101510000AB1816170470904FBE700000148806857
:1015200070470000140000200248816802781144CE
:1015300081607047140000200B4810B5016841F429
:1015400000710160016841F480610160016841F44B
:1015500080710160032000F09FF80F2000F006F872
:1015600000F050F8002010BD003C024030B50546A8
:101570001F4887B00024016841F010010160006835
:1015800006A900F01000009001A800F031F90498BD
:10159000A8B100F04DF940001649174AB0FBF1F12F
:1015A0001648491E026040F2E732C0E90324C0E950
:1015B0000114846100F0B8FB040003D015E000F0D2
:1015C00037F9E9E70D4800F019FC04000DD1362089
:1015D00000F034F8102D07D200222946362000F002
:1015E0003BF80748056000E0012407B0204630BD05
:1015F0004038024040420F0000100040B00400207C
:10160000180000200C4882B0016841F4804101605C
:10161000006800F4804000900748001F016841F016
:10162000805101600068002200F0805000900F217E
:10163000901E02B000F010B844380240002809DBC8
:1016400000F01F02012191404009800000F1E020DC
:10165000C0F8001170470000F0B40E4B1B680C4638
:10166000C3F30223C3F10705042D00D90425191D76
:10167000072901D2002300E0DB1E012606FA05F14E
:10168000491E214099409E40761E16403143F0BCD1
:1016900001F005BD0CED00E0064900F00702086806
:1016A0004FF6FF03184040EA0220034A1043086047
:1016B000704700000CED00E00000FA052DE9F0474E
:1016C0000E46050065D0DFF81481D8F80000F7B2A7
:1016D00000F00700B04207D288F80070D8F8000088
:1016E00000F00700B04254D128683D4C810712D564
:1016F000400703D5206840F4E050206028780007B8
:1017000003D5206840F4604020602068A96820F07C
:10171000F000084320602878C0072DD03049686861
:101720000839012812D0022813D0032811D00968E3
:10173000890700292DDA216821F003010143216086
:10174000FFF7ECFE814641F2883A0EE00968890312
:10175000EFE709688901ECE7FFF7E0FEA0EB09017C
:10176000514502D90320BDE8F0872068696800F080
:101770000C00B0EB810FEFD1D8F80010404601F01B
:101780000701B14207D90770006800F00700B042B6
:1017900001D00120E7E72878400705D52068E968EF
:1017A00020F4E050084320602878000706D5206820
:1017B000296920F4604040EAC100206000F058F838
:1017C0002168084AC1F30311515CC840064908600A
:1017D00006480068FFF7CAFE0020C4E7003C02404C
:1017E000083802401445000820000020180000209E
:1017F0000F2202600C4A136803F00303436013686E
:1018000003F0F0038360136803F4E053C3601268CD
:101810004FF4E05303EAD20202610448006800F08A
:10182000070008607047000008380240003C024092
:101830000448054900680968044AC1F38221515CE3
:10184000C8407047200000200838024024450008A6
:101850000448054900680968044AC1F34231515CF3
:10186000C840704720000020083802402445000886
:10187000154810B5006810F00C02144813D0144934
:10188000042A0FD0082A0ED10F4C241F2268236887
:1018900002F03F025B0207D52068C0F38810A0FB6E
:1018A000010106E0084610BD2168C1F38811A1FBC3
:1018B00000010023FEF738FD2168C1F30141491CF6
:1018C0004900B0FBF1F010BD083802400024F400DC
:1018D000001BB7002DE9F84F04006ED02078DFF828
:1018E0004C93C007A9F104054AD009F1040001682E
:1018F000C1F38101012908D00068C0F381000228EA
:101900000AD1D9F80000400206D52868800337D5EF
:1019100060680028E1D033E06068B0F5803F10D007
:10192000B0F5A02F286810D020F4803028602868F7
:1019300020F4802028606068A8B1FFF7EFFD06461C
:101940000DE0286840F48030F4E740F480202860FF
:10195000F7E700BFFFF7E2FD801B642873D8286813
:101960008003F7D50CE0FFF7D9FD064605E000BF80
:10197000FFF7D4FD801B6428F0D828688003F7D4D3
:101980002078DFF8AC8280074FF0000A3ED5A748E8
:10199000001D016811F00C0F08D00068C0F3810031
:1019A00002280BD1D9F80000400207D4286880072C
:1019B00016D5E068012800D112E033E1E068B8B143
:1019C0000120C8F80000FFF7A9FD064605E000BFAA
:1019D000FFF7A4FD801B0228C0D828688007F7D530
:1019E0002868216920F0F80040EAC10028600DE075
:1019F000C8F800A0FFF792FD064604E0FFF78EFD51
:101A0000801B02281FD828688007F7D42078000799
:101A100022D5864F87486169703771B10121016015
:101A2000FFF77CFD064604E0FFF778FD801B0228E7
:101A300009D838688007F7D50EE0C0F800A0FFF796
:101A40006DFD064605E082E0FFF768FD801B022879
:101A50007DD838688007F7D42078400768D5DFF84C
:101A6000CCB100270BF13C0BDBF80000C0000BD41D
:101A7000DBF8001041F08051CBF80010DBF80000DB
:101A8000012700F0805000906B4E3068C00510D4E4
:101A9000306840F480703060FFF740FD009005E052
:101AA000FFF73CFD0099401A022850D83068C00565
:101AB000F6D55E4EA0686C3601280FD00528306838
:101AC00010D020F001003060306820F00400306059
:101AD000A068B8B1FFF722FD00900FE0306840F039
:101AE0000100F4E740F004003060F7E7FFF716FD6F
:101AF0000099411A41F28830814266D830688007E7
:101B0000F4D50EE0FFF70AFD009007E0FFF706FDB1
:101B10000099411A41F28830814256D830688007D6
:101B2000F4D42FB1DBF8001021F08051CBF8001075
:101B3000A069C8B33D49091D0968C1F381010229A3
:101B40004AD00228504607D0C8F8600000E03CE0C8
:101B5000FFF7E4FC04463BE04746C8F86000FFF7A7
:101B6000DDFC064605E000BFFFF7D8FC801B02281D
:101B70002BD828688001F7D4D4E907010843A16A6B
:101B80002E4A490802EB0141626A41EA8211084388
:101B900094F82C1040EA0161C9F800100120386661
:101BA000FFF7BCFC044606E03EE000BFFFF7B6FCD2
:101BB000001B022809D828688001F7D534E000BF4F
:101BC000FFF7ACFC001B022802D90320BDE8F88F08
:101BD00028688001F4D427E00128F7D0D9F8000064
:101BE000E26900F4800191421CD1226A00F03F01B9
:101BF000914217D147F6C071626A0140B1EB821F72
:101C000010D1A26A4FF0FF3300F4403103EB5202CF
:101C1000B1EB024F06D194F82C1000F07060B0EBDD
:101C2000016F01D00120D1E70020CFE70438024046
:101C300000004742800E4742007000400000FFFF56
:101C40007047704710B590F83C20012A22D001223D
:101C500080F83C20CA688C6822F4407222434C68A9
:101C600022F4806222430C6822F4006222430C6951
:101C700022F4805222434C6922F400522243C96963
:101C8000002322F480420A4301684A6480F83C3011
:101C9000002010BD022010BD70B590F83C20012A34
:101CA00032D0012480F83C40022280F83D200368B5
:101CB0005A689D6822F070060A6832435A60134BD6
:101CC00002689A4214D0B2F1804F11D0104B9A4260
:101CD0000ED0104B9A420BD00F4B9A4208D00F4BAC
:101CE0009A4205D00E4B9A4202D00E4B9A4204D132
:101CF000496825F080031943916080F83D40002138
:101D000080F83C10084670BD022070BD0000014004
:101D10000004004000080040000C004000040140A6
:101D2000004001400018004010B5040003D094F8B2
:101D30003D0010B107E0012010BD002084F83C00F8
:101D4000204600F01EF8022084F83D00211D206886
:101D500000F036FF012084F8460084F83E0084F845
:101D60003F0084F8400084F8410084F8420084F881
:101D7000430084F8440084F8450084F83D000020C6
:101D800010BD704790F83D10012901D00120704727
:101D9000022180F83D1000681149884214D0B0F14A
:101DA000804F11D00F4988420ED00F4988420BD086
:101DB0000E49884208D00E49884205D00D49884214
:101DC00002D00D49884204D1816801F0070106293B
:101DD00003D0016841F0010101600020704700005C
:101DE000000001400004004000080040000C0040DA
:101DF00000040140004001400018004090F83D10F0
:101E0000012901D001207047022180F83D100168AE
:101E1000CA6842F00102CA6000681149884214D0C1
:101E2000B0F1804F11D00F4988420ED00E49884240
:101E30000BD00E49884208D00D49884205D00D4983
:101E4000884202D00C49884204D1816801F0070120
:101E5000062903D0016841F00101016000207047AC
:101E6000000001400004004000080040000C004059
:101E7000000401400040014000180040704770B568
:101E80000446006801694FF00005C943890715D46D
:101E9000C168C943890711D4E91E01610120207777
:101EA000206880698007204602D0FFF7E7FF04E042
:101EB00000F0DAF8204600F08DF9257720680169F6
:101EC000C943490717D4C168C943490713D46FF000
:101ED00004010161022020772068806910F4407FAE
:101EE000204602D0FFF7CAFF04E000F0BDF820460C
:101EF00000F070F9257720680169C943090716D4F5
:101F0000C168C943090712D46FF0080101610420B8
:101F100020772068C0698007204602D0FFF7AEFF17
:101F200004E000F0A1F8204600F054F9257720687D
:101F30000169C943C90617D4C168C943C90613D486
:101F40006FF010010161082020772068C06910F44B
:101F5000407F204602D0FFF791FF04E000F084F8B4
:101F6000204600F037F9257720680169C943C90781
:101F700008D1C168C943C90704D1891E016120463F
:101F800000F08EF920680169C943090609D4C168C7
:101F9000C943090605D46FF0800101612046FFF7AF
:101FA0004FFE20680169C943490609D4C168C94385
:101FB000490605D46FF040010161204600F07AF92E
:101FC00020680169C94389060BD4C168C9438906E1
:101FD00007D46FF0200101612046BDE87040FFF793
:101FE00030BE70BD10B586B0044614216846FEF7B9
:101FF00044FA2368174C002117480222A34212D149
:10200000036843F010030360006800F010000590BF
:102010004FF420500090CDE901210120CDE90310BB
:1020200069460E4812E00E4CA34211D1036843F0FA
:1020300008030360006800F0080005902014009079
:10204000CDE90121CDE9031269460648FFF768F999
:1020500006B010BD000001403038024000100240C0
:1020600000080040000C0240704770B5044690F82C
:102070003C0000260D4601280FD0012084F83C00CA
:102080006AB1042A1DD0082A2FD00C2A3FD001267D
:10209000002084F83C00304670BD022070BD2068EE
:1020A00000F000FE2068816941F00801816120682C
:1020B000816921F004018161206881692A691143E5
:1020C00011E0206800F01EFE2068816941F4006183
:1020D00081612068816921F4806181612068816962
:1020E0002A6941EA02218161D2E7206800F040FEBE
:1020F0002068C16941F00801C1612068C16921F00F
:102100000401C1612068C1692A69114311E0206896
:1021100000F062FE2068C16941F40061C16120687D
:10212000C16921F48061C1612068C1692A6941EAFD
:102130000221C161ACE710B5040003D094F83D0062
:1021400010B107E0012010BD002084F83C002046BB
:1021500000F01EF8022084F83D00211D206800F0E8
:102160002FFD012084F8460084F83E0084F83F00EB
:1021700084F8400084F8410084F8420084F8430069
:1021800084F8440084F8450084F83D00002010BD28
:1021900008B500680C49884208D10C48016841F034
:1021A00001010160006800F001000BE0084988426D
:1021B00009D10648001F016841F004010160006870
:1021C00000F00400009008BD0000014044380240C7
:1021D000000800407047000010B50446022249B1D3
:1021E00004290ED0082913D094F84100012816D0F4
:1021F000012010BD94F83E000128F9D184F83E205A
:102200000FE094F83F000128F2D184F83F2008E065
:1022100094F840000128EBD184F8402001E084F8D4
:1022200041200122206800F02FFD16492068164A3F
:10223000884201D0904203D1436C43F4004343648D
:102240002068884213D0B0F1804F10D00F498842E7
:102250000DD00F4988420AD00E49884207D09042DB
:1022600005D00D49884202D00C49884204D18168CA
:1022700001F00701062903D0016841F00101016066
:10228000002010BD00000140000401400004004097
:1022900000080040000C00400040014000180040D1
:1022A00000680349884201D1FFF73EB9704700003A
:1022B000001000407047704770470000F8B5016893
:1022C00004460868CA684B6910F00F0F4FF000050C
:1022D00059D003F0010602F49077374365D0C10767
:1022E00005D0D10503D5216C41F0010121644107DE
:1022F00005D5D90703D0216C41F002012164810783
:1023000005D5D90703D0216C41F0040121640107F0
:1023100007D502F02001314303D0216C41F00801C0
:102320002164216C00293AD0800604D5900602D59C
:10233000204600F0A8FD20684069216CC0F38010A1
:10234000090700D460B3204600F076FD206840699C
:10235000400621D52068143050E8001F21F04001CC
:1023600040E80012002AF5D1A06BA8B16C490165C4
:10237000A06BFEF777FE002811D0A06B016D01B0B5
:10238000BDE8F040084783060FD593060DD52046DB
:10239000BDE8F84000F077BD2046FFF78DFFF8BD9F
:1023A0002046FFF789FF2564F8BD266B2023012E08
:1023B00079D1C60677D5D60675D5086848680090E5
:1023C0004869400640D5A16B086840680004000CCD
:1023D000EAD0A28D8242E7D9E085C869B0F5807F56
:1023E0002DD020680C3050E8001F21F4807140E8A7
:1023F0000012002AF5D12068143050E8001F21F0A7
:10240000010140E80012002AF5D12068143050E89C
:10241000001F21F0400140E80012002AF5D184F8A5
:102420003E30256320680C3050E8001F21F0100179
:1024300040E80012002AF5D1A06BFEF7CAFDA08D7E
:10244000E18D401A81B229E0A08DE18D401A81B260
:10245000E08D0028A8D00029A6D020680C3050E8D4
:10246000002F22F4907240E80026002EF5D120685B
:10247000143050E8002F22F0010240E80026002E20
:10248000F5D184F83E30256320680C3050E8002FE9
:1024900022F0100240E80023002BF5D12046FFF780
:1024A0000AFFF8BDFFE705062BD5150629D594F8D8
:1024B0003D002128F5D1A068B0F5805F01D12069E9
:1024C000B0B1206A411C2162216800784860E08C2C
:1024D000401E0004000CE084E3D12068C16821F0B4
:1024E0008001C1602068C16841F04001C160D8E747
:1024F000206A0088C0F308004860206A801C2062BF
:10250000E5E74006CDD55006CBD5CA68204622F077
:102510004002CA6084F83D3000F0BAF8C1E700001C
:10252000292E000870B5040004D094F83D00002561
:1025300010B106E0012070BD84F83C50204600F048
:1025400023F8242084F83D002068C16821F400515C
:10255000C160204600F0F8FC2068016921F4904138
:1025600001612068416921F02A0141612068C16848
:1025700041F40051C1602564202084F83D0084F8B6
:102580003E00002070BD000070B586B006461421E4
:102590006846FDF772FF24493068884241D12348DC
:1025A0000025016841F020010160006800F0200072
:1025B00005901E481438016841F040010160006830
:1025C000694600F0400005904FF4844000900220DE
:1025D000CDE9010503200390082004901448FEF77C
:1025E0009FFE154C134820604FF020606060402033
:1025F000C4E902050001C4E90405A561E56125629D
:1026000020466562FEF710FE08B1FEF7B2F874636B
:10261000002205214720A663FFF71EF84720FFF799
:102620000DF806B070BD00000014014044380240AF
:1026300000180240A06402405004002090F83E3090
:10264000202B0ED159B152B190F83C30012B08D05B
:10265000012380F83C300023036300F0FBBC012021
:102660007047022070470000074988420BD1074895
:102670004178AA2901D10121817004490122491C14
:102680000148FFF7DBBF70470C040020CA000020A0
:102690007047FEE70F4810B50D4901600321416006
:1026A00000214FF410228160C0E903124FF40012A0
:1026B0004261017641768176C17601774177FEF7F6
:1026C000D4FA002803D0BDE81040FEF752B810BD80
:1026D000006400402C0300200F4810B50D49016034
:1026E0000321416000214FF410228160C0E90312F0
:1026F0004FF400124261017641768176C17601770E
:102700004177FEF7B2FA002803D0BDE81040FEF78B
:1027100030B810BD0068004054030020094808B5D7
:10272000016841F4800101600068002200F480002B
:10273000009005214520FEF78FFFBDE808404520A9
:10274000FEF77CBF3038024010B59CB01C22164901
:102750006846FDF760FE0021684600F02FFE134C2E
:1027600011491C2220601C3107A8FDF754FE0021EE
:1027700007A800F023FE0C4960601C2238310EA827
:10278000FDF749FE00210EA800F018FE0649A060E2
:102790001C22543115A8FDF73EFE002115A800F0BB
:1027A0000DFEE0601CB010BD9C440008000000203D
:1027B00070B586B014216846FDF75FFE25480024F9
:1027C000016841F002010160016801F00201059118
:1027D000016841F040010160016801F0400105918C
:1027E000016841F001010160016801F001010591FA
:1027F000016841F008010160016801F008010591DC
:10280000016841F080010160016801F080010591DB
:10281000016841F01001016000680F4E00F01000E7
:102820004FF4E0550590002229463046FEF770FE31
:1028300000950125CDE90154694630460394FEF721
:102840006FFDCDE90054694604480295FEF768FD26
:1028500006B070BD30380240001C0240000002404B
:1028600010B592B000240F941C2168461094FDF717
:1028700004FE202107A8FDF700FE2548234901603A
:102880002921C0E901144FF47A61C0E903148021C1
:10289000C0E90541FFF74FFC08B1FDF76AFF0F944F
:1028A0000FA91B481094FFF7F7F908B1FDF761FF76
:1028B0006020CDE90004029403940494059404225A
:1028C000694613480694FFF7D0FB08B1FDF751FFA6
:1028D000082269460E48FFF7C8FB08B1FDF749FF1B
:1028E0000794089409944FF400500A94CDE90B40E2
:1028F00007A907480E94FFF7A5F908B1FDF739FFBE
:102900000348FFF76FFB12B010BD0000000001404C
:102910007C03002010B58AB0002407941C2168466F
:102920000894FDF7AAFD16481449C0E9001445F2C1
:102930000721C0E9024104618461FFF7FCFB08B193
:10294000FDF717FF079407A90D480894FFF7A4F9AE
:1029500008B1FDF70EFF6020CDE9000402940822C3
:10296000694607480494FFF780FB08B1FDF701FFB3
:102970000348FFF737FB0AB010BD00000008004015
:10298000C40300200C4810B50A4901604FF4E1313E
:102990004160002181600C22C160C0E904128161A4
:1029A000C161FFF7BFFD002803D0BDE81040FDF76F
:1029B000E0BE10BD001401400C040020FEE7000042
:1029C000322000F0EFFC00260124214F4FF47A68FA
:1029D000DFF880A0DFF880B0204D02E0012000F099
:1029E000E1FC28780028F9D01D4D2878B0B1A14627
:1029F00055465C462078042824D24FF4FA7038807B
:102A0000404600F0CFFC3E8085F80090404600F044
:102A1000C9FC2E702078401C2070EBE7012000F0EC
:102A2000C1FCE2E7A7F800A0404600F0BBFC3E80F6
:102A300085F80090404600F0B5FC2E702078401ECE
:102A4000207001E0DFF81CA010F0FF0FEAD1FEE7D4
:102A5000C8000020B8000020D5000020B9000020E8
:102A6000CC0000200CFEFFFFFEE7000000F0D4FDCC
:102A7000154E164DDFF858904FF496774FF000083A
:102A800005E02078012808D1A5F8029017E0D6F8D3
:102A9000A80069682C468842F3DC012000F082FC23
:102AA000D6F8A800A168884202DA2078012802D06E
:102AB000207810B103E06780EFE7A4F802800120DE
:102AC00000F070FCE3E70000E8410020B8000020BF
:102AD000D4FEFFFF0A2000F065FC642000F08EFBAE
:102AE000F8E7000010B5502080F31188BFF34F8F36
:102AF000BFF36F8F01F05EFA18B104494FF08050B8
:102B00000860002080F3118810BD000004ED00E093
:102B100030B593B030216846FDF7AFFC14210CA806
:102B2000FDF7ABFC1D480025016841F080510160B4
:102B3000006800F0805011901948016841F480410C
:102B400001600068022400F4804011900120009090
:102B5000000401908001CDE9064006200890A820DD
:102B6000CDE9090404200B906846FEF7B3FE08B1D6
:102B700072B6FEE70CA90F2081E831004FF4A05097
:102B80000F904FF48050109005210CA8FEF796FD91
:102B9000002801D072B6FEE713B030BD40380240C5
:102BA000007000400248016841F470010160704704
:102BB00088ED00E00148FFF762B90000B004002092
:102BC000F0B50268254C264D264E274F274B4FF077
:102BD000804CA04209D0604507D0A84205D0B04241
:102BE00003D0B84201D0984204D122F0700E4A6856
:102BF00042EA0E02A0421BD0604519D0A84217D06D
:102C0000B04215D0B84213D0984211D0184DA84206
:102C10000ED0184DA8420BD0174DA84208D0174D22
:102C2000A84205D0164DA84202D0164DA84203D1A5
:102C300022F44075CA682A434D6922F080022A4373
:102C400002608A68C2620A688262A04201D0984229
:102C500001D10969016301214161F0BD000001401A
:102C60000004004000080040000C00400004014047
:102C7000004001400044014000480140001800406D
:102C8000001C00400020004010B501F01F0301218E
:102C9000046A99408C430462016A9A4011430162BC
:102CA00010BD0000F0B5026A22F001020262036A60
:102CB00042688469124E24F073050C682C4323F09B
:102CC00002058B682B430D4DA84201D0B04205D1BF
:102CD00023F00807CB683B4323F00403A84201D04C
:102CE000B04205D14D6922F4407215438A692A43E6
:102CF00042608461496841630362F0BD00000140A5
:102D000000040140F0B5026A22F010020262026A79
:102D1000436884690D6824F4E64444EA05248D6818
:102D200022F0200242EA05120F4D104EA84201D0B7
:102D3000B04206D1CF6822F0800242EA071222F0A8
:102D40004002A84201D0B04207D14D6923F440634C
:102D500043EA85038D6943EA8503436084614968DA
:102D600081630262F0BD00000000014000040140E8
:102D7000F0B5026A22F480720262026A4368C46992
:102D800022F4007224F073050C68124E2C438D68F7
:102D900042EA05220E4DA84201D0B04206D1CF68CA
:102DA00022F4006242EA072222F48062A84201D0A3
:102DB000B04207D14D6923F4405343EA05138D69AE
:102DC00043EA05134360C4614968C1630262F0BD10
:102DD000000001400004014030B5026A22F4805234
:102DE0000262046A4268C3690D6823F4E64343EA59
:102DF00005238D6824F4005444EA0534084DA842A4
:102E000002D0084DA84204D14D6922F4804242EA22
:102E100085124260C36149680164046230BD0000EC
:102E2000000001400004014010B5806B0021C18505
:102E3000C184FFF741FA10BD01680C3151E8002F41
:102E400022F4907241E80023002BF5D1016814317F
:102E500051E8002F22F0010241E80023002BF5D1B8
:102E6000016B012909D101680C3151E8002F22F0D2
:102E7000100241E80023002BF5D1202180F83E10FC
:102E800000210163704708B590F83E10222901D057
:102E9000022008BD82684FF480539A4201D1016933
:102EA00021B1816A9A421BD04AB10AE00268816A64
:102EB0005268C2F308020A80816A891C08E002692C
:102EC00072B10268526802F07F020A70816A491C7E
:102ED0008162C18D491E0904090CC18503D019E026
:102EE00002685268F1E70168CA6822F02002CA60ED
:102EF0000168CA6822F48072CA6001684A6922F0D7
:102F000001024A61202180F83E10016B012903D0A3
:102F1000FFF7AAFB002008BD0021016301680C3106
:102F200051E8002F22F0100241E80023002BF5D1D8
:102F300001680A68D20602D50A6849680091818D45
:102F4000FFF7B9F9E6E7000070B5044600680169CB
:102F5000E26821F44051114301612169A068E269EE
:102F600008436169114308432168CA6849F20C6348
:102F70009A430243CA6020684169A26921F4407102
:102F80001143416131492068884202D0304988426A
:102F900002D1FEF75DFC01E0FEF74AFCE269002386
:102FA000192164253226B2F5004F626828D0A0FBB3
:102FB0000101930F9200FDF7B7F90146B0FBF5F060
:102FC0006FF01802504301EB800006EB0010B0FBDD
:102FD000F5F000F0F002B1FBF5F002EB0012B1FBEE
:102FE000F5F06FF01803584301EB800006EB00107A
:102FF000B0FBF5F000F00F0021681044886070BD50
:10300000A0FB010192185B41FDF78EF90146B0FB70
:10301000F5F00201B1FBF5F06FF01803584301EB36
:10302000800006EBC000B0FBF5F000F0F80002EB0A
:103030004002B1FBF5F0584301EB800006EBC00005
:10304000B0FBF5F000F00700D6E7000000100140EB
:103050000014014081628285C28500210164222220
:1030600080F83E2080F83C10016921B10168CA68EF
:1030700042F48072CA6001684A6942F001024A6102
:103080000068C16841F02001C16000207047000065
:103090000148FFF713B900000C040020FEE7090700
:1030A000090E002804DB00F1E02080F800147047CE
:1030B00000F00F0000F1E02080F8141D70470000C0
:1030C000024900200968C86370470000C40300205B
:1030D000024A136898621068C1637047C4030020F5
:1030E00000B58BB000200121CDE9060108910090C8
:1030F0000190029003900590049069460C48FDF7FA
:10310000BBFB0B48FDF732FF02210948FDF733FBFB
:103110000E200990059069460648FDF7ADFB05486D
:10312000FDF724FF02210348FDF725FB0BB000BD8E
:103130002C0300205403002010B510EE103A036059
:103140008168C26800EE101A00EE902A446830EEE2
:10315000201A00EE101AC0EE010A00EE104A20EE0E
:10316000801A00EE101A00EE902A70EE201A00EE7F
:10317000102AC0EE210A00EE103A00EE801A11EE7D
:10318000101A416010BD10EE101AC16010EE901AB6
:1031900081600021016041607047000010B58389A3
:1031A000C3810A88F1EE040A52BA82814C88D31A8C
:1031B00064BA04808C88B3F5805F64BA00EE104A6C
:1031C000B8EE400A20EE200ADFED0B0A20EE200ABE
:1031D00080ED010A89798172416901DD491E03E0B0
:1031E00013F5805F01DA491C416102EB4131028A2B
:1031F000891A816110BD0000000080382DE9F0417E
:103200001C4C6168491C6160814221DB00266660BC
:1032100020784FF48051184D4F104FF48068C8B19A
:1032200001284FF0000228461AD0FEF771F900225B
:1032300039462846FEF76CF9012241462846FEF73A
:1032400067F92078401CC0B22070022800D926708F
:10325000BDE8F08101222846FEF75AF9002202E07B
:10326000FEF756F9012239462846FEF751F90022A9
:10327000E3E70000B0000020001C0240B0F900307D
:10328000934200DD0280B0F900208A4200DA01801A
:1032900070470000FEF750F9FFF73AFCFFF788FA95
:1032A000FFF73CFAFFF7F6F9FFF734FBFFF7D8FA20
:1032B000FFF768FBFFF710FA1348FEF763FD0821DC
:1032C0001148FEF789FF04211048FEF785FF082109
:1032D0000E48FEF781FF00F037FC002442F2107523
:1032E00029460020FFF7F4FE6420FEF707F8FFF7F9
:1032F000E7FE6420FEF702F8641C042CF0DBFFF705
:1033000023FA00F056F8FEE7C40300207C030020F7
:1033100001460020842900D0C81C70472DE9F047E1
:103320002DED028B84B0FFF7DBFEDFED1A0A9FED77
:103330001A0A1A48FFF727FF0025184F9FED188A31
:103340002E4610374FF4FA5840F6B83943F6982A0B
:1033500005EB850000EBC50007EBC004204600F03C
:103360001DF9CDE9006820460296E46DF0EE481A9A
:10337000B6EE001AF0EE080AB2EE040A4B465246C8
:103380000121A0476D1C052DE2DB04B0BDEC028BD2
:10339000BDE8F087ABAAAA3E6F12833B044300202E
:1033A0000000000010B500B9012000F09FFC0020D3
:1033B00010BD10B500F0C0FC002010BD7FB50D465B
:1033C00004464169B0F9080081B1A16971B1FFF704
:1033D0009FFFD4E905128DE80700D4E900102B46C1
:1033E000226900F0BCFD039004B070BDFFF790FFB0
:1033F00003A9CDE90001208A2B4682B2D4E900104E
:1034000000F080FD012801D00020EDE70398EBE7F4
:1034100010B504462DED028BB0EE408A006D60655C
:10342000FEF77CF8206594F85410401A84F8580090
:1034300084ED068A94ED082A84ED092A94ED071A92
:1034400084ED081AD4ED0D1AC4ED0E1A94ED010A9C
:1034500030EE480A84ED070AB5EEC00AF1EE10FA24
:1034600002DDF0EE400A01E0F1EE400AD4ED112A4F
:10347000F4EEE20AF1EE10FA7EDD207810B10128B8
:1034800043D064E0D4ED030A60EE800AC4ED0A0A7A
:10349000F5EEC00AF1EE10FA02DDF0EE601A01E07E
:1034A000F1EE601A11EE900A3A49884207DDD4ED38
:1034B0000B1A94ED042A42EE001AC4ED0B1A30EEFA
:1034C000410A94ED051A20EE011A84ED0C1AD4ED90
:1034D0000B1A94ED100AF4EEC01AF1EE10FA01DDA9
:1034E00084ED0B0AD4ED0B1AB1EE400AF4EEC01ACB
:1034F000F1EE10FA02D3B0EE610A01E084ED0B0A9E
:1035000030EE800A30EE010A1FE070EE410AD4ED81
:10351000032AB0EE003A60EEA22AC4ED0A2AD4EDE6
:10352000040A60EE800A01EE430AC4ED0B0A94ED32
:10353000051A72EEA00A30EE020A20EE010A84EDAE
:103540000C0A30EE800A30EE210A84ED0D0AD4ED2B
:103550000D0A94ED0F0AF4EEC00AF1EE10FA01DD47
:1035600084ED0D0AD4ED0D0AB1EE400AF4EEC00A66
:10357000F1EE10FA08D200E002E084ED0D0A03E05B
:103580009FED050A84ED0B0A94ED0D0ABDEC028B4C
:1035900010BD000000007A44000000000349C1652E
:1035A000034901660349416670470000B9350008C8
:1035B00011360008113400089DED003A9DED022AF5
:1035C000DDED012AB8EE433A017080ED123A80ED4C
:1035D000110A00EE103AB8EE400A80ED100A00EE33
:1035E000102AB8EE400A80ED0F0AB8EEE20A80ED2C
:1035F000130AB8EEC20A80ED010A9FED040A80EDBD
:103600000D0A0C30C0EC030A7047000000000000F7
:103610000C3080EC030A704770B5104CC8206080F5
:10362000FFF7C0FE0E4D0526B4F90200B5F9901063
:1036300090FBF6F088420CDB00206080D5F8A800F3
:10364000A0F57A70A060A0F59830606001206070ED
:1036500070BD0120FFF7A6FEE6E70000B8000020DD
:10366000E84100202DE9F041184C0F460546E66878
:103670002068001D00F072FA38B9206890F82C100C
:1036800001208840216981432161681C07D137B13D
:103690002168BDE8F0410E48091D00F0A3BA20687A
:1036A0003544B5424560216805D2A06BBDE8F041C4
:1036B000091D00F07FBA606B091D00F07BFAA06A5B
:1036C000854200D2A562BDE8F08100002400002000
:1036D000D40500202DE9F041054600F08FFA2E4C6C
:1036E000A068401CA06020682C4F10B1606940B3F6
:1036F0002DE02560A068012829D1002606EB860070
:1037000007EB800000F048FA761C072EF6D323481A
:103710008C3000F041FA2148A03000F03DFA1F48FB
:10372000B43000F039FA1D48C83000F035FA1B48B3
:10373000DC3000F031FA19488C3060631430A0633B
:1037400005E02068E96AC06A884200D82560606A9E
:10375000401C6062E96A01202269884010432061B0
:1037600001EB810007EB8000291D00F03BFA00F01F
:1037700065FA606900280CD02068E96AC06A88424E
:1037800007D207494FF080500860BFF34F8FBFF357
:103790006F8FBDE8F081000024000020F8040020B5
:1037A00004ED00E010B5044690F8510058B101282E
:1037B0000CD002280FD0502080F31188BFF34F8F18
:1037C000BFF36F8FFEE7206B00F04CFA2046BDE898
:1037D000104000F047BA10BD10484FF47051420736
:1037E00006D0C01D0D4920F00700411AC1F57051E7
:1037F0000B4A00230144C2E900030839183A21F0BA
:10380000070111604B600B600B1AC0E90013936055
:103810004FF000405360506170470000E805002001
:1038200078000020144E154CA6F1C8074FF08058C0
:10383000DFF84C9012E000BF00F0E0F9F068C568D6
:10384000281D00F08BF9A068401EA0606068401E33
:10385000606000F0F3F92846FFF7A4FF60680028D5
:10386000EAD138680128F9D9C9F80080BFF34F8F31
:10387000BFF36F8FF2E70000C00500202400002096
:1038800004ED00E02DE9F0479A46DDE90984814620
:103890006FF00303206B03EB82021044089E20F0BC
:1038A0000707780707D0502080F31188BFF34F8FA8
:1038B000BFF36F8FFEE7002561B1002023180A5C7B
:1038C00083F834200A5C12B1401C1028F6D384F827
:1038D000435001E084F83450072E00D30626E662F8
:1038E000C4E91165201D00F062F904F1180000F030
:1038F0005EF92461C6F107006462A061E56484F8A2
:10390000505052464946384600F0C0F82060B8F1A1
:10391000000F01D0C8F80040BDE8F08730B511496C
:1039200000E011460A688242FBD34B685C1884426F
:1039300003D1406818444860084643681C18944204
:1039400009D1084C183C2468A24209D052681A4494
:1039500042600A6812680260814200D0086030BD8F
:103960000460F9E7780000200648416B096829B136
:10397000416BC968C9684968816270474FF0FF317F
:10398000FAE700002400002008484068401C4FF07F
:10399000500080F3118804D0BFF34F8FBFF36F8FB7
:1039A000FEE7BFF34F8FBFF36F8FFEE7800000206D
:1039B0002DE9F0410546002700F0F4F9324E306859
:1039C00008B9FFF709FF706905424ED1C5B3083544
:1039D00068070ED005F00700C0F10800054468072D
:1039E00007D0502080F31188BFF34F8FBFF36F8F44
:1039F000FEE72DB37068854237D82348183001465A
:103A00000C6801E020460C466168A94202D2216898
:103A10000029F7D131688C4227D0076821680160FE
:103A200060680837411B10290FD96019420708D078
:103A3000502080F31188BFF34F8FBFF36F8FFEE7E5
:103A400013E041606560FFF769FF61687068401AC4
:103A50007060B268904200D2B0607069014300208B
:103A6000C4E90001F068401CF06000F009FB780731
:103A700007D0502080F31188BFF34F8FBFF36F8FB3
:103A8000FEE73846BDE8F0816000002010B5031F56
:103A90004FF080741C601B1F21F001011960191F79
:103AA000044B0B6014390A60091F6FF0020244389E
:103AB0000A6010BD8939000838B50E4C049D20609D
:103AC0000020A060E060082020610B480C0A047010
:103AD0004170110A8170C270190A01714371290A7B
:103AE0008171C57102466B4602490448FCF755FED8
:103AF00038BD00009C420020960000202C030020CE
:103B000038B50E4C049D20600020A060E0600820C5
:103B100020610B480C0A04704170110A8170C27058
:103B2000190A01714371290A8171C57102466B46F8
:103B300002490448FCF731FE38BD0000D0420020A5
:103B4000A600002054030020012202490248FEF78B
:103B500075BD0000CB0000200C040020D0E901322C
:103B600001699A60D0E901235A604A68824201D112
:103B700082684A60002202610868401E0860086886
:103B800070470000034B036003F15400086080207D
:103B900010607047D800002000F108014FF0FF329C
:103BA000C0E90112C160016100210160704700217C
:103BB0000161704730B50B685A1C02D000F1080251
:103BC00002E0026904E02246546825689D42FAD961
:103BD00053684B6099608A60516008610168491CB4
:103BE000016030BD42684A6093688B609368596099
:103BF000916008610168491C01607047502080F3A2
:103C00001188BFF34F8FBFF36F8F0A494868401C7C
:103C1000486001280CD10848006810F0FF0F07D059
:103C2000502080F31188BFF34F8FBFF36F8FFEE7F3
:103C3000704700008000002004ED00E0084948685B
:103C400028B1401E486001D180F311887047502090
:103C500080F31188BFF34F8FBFF36F8FFEE7000033
:103C60008000002070B500282AD0164DA0F108046D
:103C700060686969084207D1502080F31188BFF35A
:103C80004F8FBFF36F8FFEE722683AB1502080F369
:103C90001188BFF34F8FBFF36F8FFEE788436060DB
:103CA00000F080F860686968084468602046FFF7A3
:103CB00035FE2869401C2861BDE8704000F0E0B97D
:103CC00070BD0000600000204FF0E0200021016185
:103CD000816105494FF47A720968B1FBF2F1491E1E
:103CE00041610721016170472000002010B50200EA
:103CF00014D00F48006B38B1502080F31188BFF307
:103D00004F8FBFF36F8FFEE700F04CF80021104695
:103D1000FFF7A8FC00F0B4F9002807D105494FF0DF
:103D200080500860BFF34F8FBFF36F8F10BD00004E
:103D30002400002004ED00E010B586B000240394B8
:103D400005AA04A903A80494FFF71CFFDDE90301F9
:103D50000094CDE9011000230EA11048059A00F04F
:103D6000FEF80F490028C86211D0502080F3118856
:103D7000BFF34F8FBFF36F8F4FF0FF30886201208A
:103D80004861CC6006B0BDE8104000F041B806B014
:103D900010BD000049444C450000000025380008D3
:103DA000240000200248016B491C01637047000099
:103DB000240000201448016B11B10121C16170473A
:103DC0000021C1610169B1FA81F1C1F11F0101EB6B
:103DD00081020E4951F822306BB101EB820101F1F1
:103DE00008034A6852684A609A4201D152684A60A0
:103DF000D16801607047502080F31188BFF34F8F66
:103E0000BFF36F8FFEE7000024000020F8040020BD
:103E10001CB537480168374A914207D1502080F3DA
:103E20001188BFF34F8FBFF36F8FFEE700683149F2
:103E3000491E884207D1502080F31188BFF34F8F6D
:103E4000BFF36F8FFEE72C4908780190FF200870C0
:103E500008788DF800009DF800009DF8002000F023
:103E6000F000904207D0502080F31188BFF34F8FAD
:103E7000BFF36F8FFEE79DF80000204C00F050006C
:103E800020700720A06005E09DF8002052008DF80A
:103E90000020401E9DF800201206F5D4A0600328E3
:103EA00007D0502080F31188BFF34F8FBFF36F8F7F
:103EB000FEE74FF44070A060019808700C48203075
:103EC000016841F470010160016841F070410160D6
:103ED000FFF7FAFE00206060FCF7CAF908480168A5
:103EE00041F040410160FCF7AFF900201CBD00002B
:103EF00000ED00E071C20F4100E400E0800000200E
:103F000034EF00E02DE9FF5F8346DDE90E87994637
:103F100016468A469000FFF74BFD05001CD0542042
:103F2000FFF746FD040014D00020256384F85100FB
:103F3000CDE90240CDE900874B463246514658460E
:103F4000FFF7A0FC2046FFF7C5FB012004B0BDE849
:103F5000F09F2846FFF786FE4FF0FF30F6E7F0B5FA
:103F600085B0DDE90B640A9DA6B1DCB1542700974A
:103F70002663022684F85160002604AFCDE902468C
:103F8000CDE90057FFF77EFC2046FFF7A3FB04981E
:103F900005B0F0BD502080F31188BFF34F8FBFF301
:103FA0006F8FFEE7502080F31188BFF34F8FBFF370
:103FB0006F8FFEE72DE9F0412F4C0026206B28B1D2
:103FC000A069401CA0613046BDE8F081E5686D1C29
:103FD000E56013D1606B006838B1502080F3118820
:103FE000BFF34F8FBFF36F8FFEE7606BA16B616311
:103FF000A063206A401C2062FFF7B6FCA06ADFF8CD
:104000007C80854209D3606B0068A0B1606BC0689A
:10401000C7687868854211D2A0622068C06A00EB48
:10402000800158F82100012800D90126E069002804
:10403000C9D00126C7E74FF0FF30EDE7381DFFF785
:104040008DFDB86A18B107F11800FFF787FDF96A0E
:104050000120226988401043206101EB810108EBB7
:104060008100391DFFF7BEFDF86A2168C96A8842E0
:10407000C9D30126C7E7000024000020F80400206F
:104080002DE9F0472C4D00242746286B38B1FFF767
:10409000B5FD286B401E2863286B40B146E05020D8
:1040A00080F31188BFF34F8FBFF36F8FFEE7A968CE
:1040B000224E0120D1B3A6F1B40980463068E8B1A0
:1040C000F068C46804F11800FFF748FD201DFFF7F1
:1040D00045FDE06A2A6908FA00F11143296100EB05
:1040E000800109EB8100211DFFF77CFDE06A296852
:1040F000C96A8842E2D3C5F81C80DFE70CB1FFF73C
:1041000033FCAC6944B14646FFF754FF00B1EE61A1
:10411000641EF9D10020A861E86938B10849012777
:1041200038070860BFF34F8FBFF36F8FFFF786FD2F
:104130003846BDE8F087000024000020AC050020D0
:1041400004ED00E021F00042A2F16052B2F5801FC0
:1041500001F0004328BFD2F17F6C0BD95FEA001C4D
:1041600043EAC20242EB507018BF704728BF20F0EC
:1041700001007047B2F5801FBCBF184670474FEA78
:10418000410C1CF5001F02D2084600F081B970B541
:1041900000F0B4F800000089FFF7F6BF4FF00040D0
:1041A000A0F5800070470000DFF848C170B51CEA38
:1041B000111E1EBF1CEA13159EEA0C0F95EA0C0F88
:1041C00000F06F8081EA030423EA4C134EEAD47EA8
:1041D00021EA4C1141F4801143F48013AE44A1FB59
:1041E000024CA0FB0365AEF17F7E361955EB0C0542
:1041F000A1FB034C4CF10003A0FB021C16EB0C06C8
:10420000654153F10003094218BF46F0010613F45B
:10421000007F0BD14FEA03314FEA0530340341EA06
:10422000155140EA16506FF003020AE04FEAC3212D
:104230004FEAC520F40241EA555140EA56506FF06A
:10424000020202EB2E4201EB025585EACE710AD042
:104250005FEA440C18BF24F0004450F1000041F123
:10426000000120EAD47040F2FE7C624500D270BDAD
:10427000A84214BF4FF080444FF04044002E08BFC6
:104280000024BEF1806FA8BFA1F1C041BDE870401D
:1042900080F282804FF0000001F1C04101F0004146
:1042A00070479EEA0C0F0CEA131518BF95EA0C0F25
:1042B00006D04FF0000081EA030E0EF0004170BD01
:1042C00000F01CF88900013E00F007B800F009B8C2
:1042D0004FEA430C5FEA5C5C08D081EA030100F01E
:1042E0005BB84FEA410C5FEA5C5CF6D14FF000002E
:1042F000014970470000FF070000F87F0EF1020E31
:104300002EF0030E5EF8046B364205D4012A43EB0F
:10431000030515F5001F12D8012841EB010C1CF50F
:10432000001F0CD80ED14FEAD17C15F5001F0CEB05
:104330004C0C0CF1020C08BF4CEBD37C04E04FF0AA
:10434000080C01E04FEAD37C0CEB4C0526FA05F68D
:1043500006F00706B6F1040C06D20EEB860CBDE89B
:1043600070404CF0010C6047DFE80CF0090B0202D2
:104370004FF000414FF00000A1F5002170BD19463B
:104380001046012851EB010418BFD4F5001484BF76
:10439000002001F0004170BD0808A0F500114FEAAF
:1043A0003101704743004FEAD30C4FEA3C0C4340C5
:1043B0001FBF40070CF1605113F0FE4F70471CF017
:1043C000006F03D100200CF0004170470CF0004357
:1043D00043EA507010B540EACC0000F00EF800BF80
:1043E000000000924FEA0001FFF7D6BF4FF00041F6
:1043F0004FF00000A1F5002170470EF1020E2EF0E3
:10440000030E5EF8044B244204D44FEA4102B2F199
:104410007F4F11D84FEA4003B3F17F4F0CD80ED134
:104420004FEAD07CB2F17F4F0CEB4C0C0CF1020C3C
:1044300008BF4CEBD17C04E04FF0080C01E04FEAE0
:10444000D17C0CEB4C0324FA03F404F00704B4F120
:10445000040C06D20EEB840CBDE810404CF0010CAD
:104460006047DFE80CF0070802024FF00040A0F5BB
:10447000800010BD0846420018BFD2F1807288BF8C
:1044800000F0004010BD4FF04070E1EE100A7047A0
:10449000FF2141EAD050C005704700002C450008BC
:1044A000D52A000800000000000000008000000085
:1044B00000000000000000005445000875050008D9
:1044C000000000000000000080000000000000006C
:1044D00000000000384500086D2A0008FFFF0000BA
:1044E000000000008000000000000000000000004C
:1044F00048450008C1290008FDFF00000000000039
:1045000080000000000000000000000000061016FF
:104510000006101600000000000000000102030465
:1045200006070809000000000102030464656661D3
:10453000756C745461736B0070726F62655761764D
:10454000655F7461736B00006D6F76655F74617396
:104550006B0000006368617369735F7461736B0063
:104560008045000800000020D8000000C4010008B9
:1045700058460008D8000020A8620000E0010008AA
:10458000000000000000000000000000000000002B
:10459000000000000100000010000000000000000A
:1045A0000024F400000000000000000000000000F3
:1045B00000000000000000000000000000000000FB
:1045C00000000000000000000000000000000000EB
:1045D00000000000000000000000000000000000DB
:1045E00000000000000000000000000000000000CB
:1045F00000000000000000000000000000000000BB
:1046000000000000AAAAAAAA000000000000000002
:10461000000000000000000000000000000000009A
:10462000000000000000000000000000000000008A
:10463000000000000000000000000000000000007A
:10464000000000000000000000000000000000006A
:08465000000000000000000062
:040000050800018965
:00000001FF
