:020000040800F2
:10000000F88400205D020008B3570008E9470008A3
:10001000B15700080D1100080D7C00080000000019
:100020000000000000000000000000009D0100082A
:100030003F15000800000000F90100087573000872
:1000400077020008770200087702000877020008AC
:1000500077020008770200084115000877020008BF
:1000600077020008471500084D15000877020008C0
:10007000491100087702000877020008770200089B
:10008000770200087702000877020008770200086C
:1000900011110008770200087702000853150008C4
:1000A000770200087702000877020008770200084C
:1000B000770200087702000877020008770200083C
:1000C000770200087702000877020008770200082C
:1000D00077020008B17A0008770200084D7B00081B
:1000E000770200087702000877020008770200080C
:1000F00077020008770200087702000877020008FC
:1001000077020008770200087702000877020008EB
:10011000770200087702000841740008770200089F
:100120007702000855110008611100082514000825
:1001300077020008770200087702000877020008BB
:100140001D110008770200087702000877020008F6
:10015000311400083D14000849140008017C00080F
:10016000770200087702000877020008770200088B
:1001700077020008770200087702000800000000FC
:100180007702000877020008DFF80CD000F0E6FAEA
:1001900000480047499E0008F88400202C4B19684D
:1001A0000868B0E8F04F80F30988BFF36F8F4FF015
:1001B000000080F3118870470000000008480068C4
:1001C000006880F308884FF0000080F3148862B65E
:1001D00061B6BFF34F8FBFF36F8F00DF00BF00BF6B
:1001E00008ED00E0DFF80C00016841F470010160E7
:1001F000704700BF88ED00E0EFF30980BFF36F8F19
:10020000134B1A681EF0100F08BF20ED108A20E96A
:10021000F04F106009B44FF0500080F31188BFF325
:100220004F8FBFF36F8F0BF06FFB4FF0000080F329
:10023000118809BC19680868B0E8F04F1EF0100F6B
:1002400008BFB0EC108A80F30988BFF36F8F704746
:10025000FC030020EFF3058070470000064880474C
:1002600006480047FEE7FEE7FEE7FEE7FEE7FEE79B
:10027000FEE7FEE7FEE7FEE72574000889010008B7
:100280009FED1A1AF5EE000A40EE010ABDEEE00AF3
:10029000F5EEC00A10EE100AF1EE10FA38BF401E5B
:1002A00000EE100A1349F7EE001AB8EEC00A30EE5D
:1002B000C00ADFED0F0A20EE200AFCEEC00A10EEA5
:1002C000900AC0F3080000EE900A01EB8000F8EEFF
:1002D000600A90ED011A70EE600A90ED000A71EE6E
:1002E000E01A21EE800A00EE810A704783F9223E6F
:1002F00000000044F0C70008B5EEC00AF1EE10FAA5
:1003000007D2DFED1E0AB4EEE00AF1EE10FAA8BF44
:100310007047DFED1B0AB5EEC00A60EE200ABDEEA5
:10032000E01A11EE100AF1EE10FA38BF401E00EE8E
:10033000100A1549F7EE001AB8EEC00A30EEC00AEE
:10034000DFED100A60EE200ABCEEE00A10EE100AA3
:10035000C0F3080000EE100A01EB8000B8EE400A7E
:1003600090ED011A70EEC00A90ED000A71EEE01AED
:1003700021EE800A00EE810A70470000CD024CB4E5
:1003800083F9223E00000044F0C700082DE9F05F29
:100390000546002092469B468846064681464024F4
:1003A0001BE0284641464746224600F033F95346B3
:1003B0005A46C01A914110D311461846224600F001
:1003C0001AF92D1A67EB01084F4622460120002139
:1003D00000F011F917EB00094E41201EA4F10104B1
:1003E000DFDC484631462A464346BDE8F09F40EAF6
:1003F00001039B0703D009E008C9121F08C0042AA3
:10040000FAD203E011F8013B00F8013B521EF9D289
:100410007047D2B201E000F8012B491EFBD27047B1
:100420000022F6E710B513460A4604461946FFF7C0
:10043000F0FF204610BD421C10F8011B0029FBD123
:10044000801A70472DE9FE4F81EA030404F000444E
:1004500021F0004100944FF0000B23F0004350EADC
:1004600001045ED052EA03045BD0C3F30A54C1F323
:100470000A552C44A4F2F3340194A0FB0254C1F3B6
:10048000130141F48011C3F3130343F4801301FB00
:10049000024400FB034E840A970A44EA815447EA67
:1004A0008357A4FB076802958D0A05FB07854FEA71
:1004B000932C04FB0C542705029D4FEA065847EA8B
:1004C0001637B5EB08056EEB070C870E920E47EA60
:1004D000811742EA8312A7FB0201B6EB0B0164EB22
:1004E00000042B0D43EA0C335E1844EB1C50DA4633
:1004F0005146E7FB0201C5F313044FEA0B3343EA0D
:1005000014534FEA0432019C43EA0603A4F10C049D
:100510000294009CCDE900B400F0D2F803B0BDE82D
:10052000F08F00200146F9E7F0B4CA17CB0F504016
:100530005140C61841F100054FEAC3723146280008
:100540004FF0960303D0B623F0BC00F07CB83046E1
:100550000021F9E70EB5C10F80EAE0700844CA0730
:10056000002140F233438DE80E000A460B4600F0AE
:10057000A7F803B000BD10B500F0004420F0004023
:10058000C20DC0F3160040F400007F2A02DA0020FA
:10059000014610BD0021962A03DCC2F19602D0402C
:1005A00002E0963A00F027F8002CF2D00023D0EBBE
:1005B000030063EB010110BD70B5C1F30A5201F0F5
:1005C00000450024C1F3130140F2FF3341F48011D0
:1005D0009A4201DA002070BD40F233439A42A2F2FF
:1005E000334203DC524200F015F800E090402C4307
:1005F000F1D0404270BD202A04DB203A00FA02F11B
:10060000002070479140C2F1200320FA03F3194300
:1006100090407047202A04DB203A21FA02F00021A2
:10062000704721FA02F3D040C2F120029140084302
:10063000194670470029A8BF7047401C490008BFF1
:1006400020F00100704710B4B0FA80FC00FA0CF002
:1006500050EA010404BF10BC704749B1CCF120043A
:1006600021FA04F411FA0CF118BF012121430843C7
:10067000A3EB0C01CB1D4FEA00614FEA102042BFF3
:10068000002010BC704700EBC35010440029A4BFE9
:1006900010BC7047401C490008BF20F0010010BC8E
:1006A000704710B5141E73F1000408DA401C41F1C4
:1006B000000192185B411A4301D120F0010010BDE6
:1006C0002DE9F04D92469B4611B1B1FA81F202E05C
:1006D000B0FA80F220329046FFF78DFF04460F46B5
:1006E00040EA0A0041EA0B0153465A46084313D038
:1006F000114653EA010019D0C8F140025046FFF7F5
:1007000089FF05460E46504659464246FFF773FF9D
:10071000084305D0012004E020463946BDE8F08DAD
:100720000020054346EAE0762C4337430A986305E8
:10073000E40AA0EB08000022FD0A44EA47540A300C
:1007400002D500200146E9E7010510196941DDE9FC
:10075000084500196941BDE8F04DA2E7064C074D78
:1007600006E0E06840F0010394E807009847103481
:10077000AC42F6D3FFF70CFD40D0000860D0000873
:1007800070B58C1810F8015B15F0070301D110F853
:10079000013B2A1106D110F8012B03E010F8016B80
:1007A00001F8016B5B1EF9D12B0705D40023521E03
:1007B0000DD401F8013BFAE710F8013BCB1A921C6B
:1007C00003E013F8015B01F8015B521EF9D5A14269
:1007D000D8D3002070BD07F055BB07F0E9BBFFF789
:1007E0004FBDF0EE400AF5EEC00AF1EE10FA02DD60
:1007F000B0EE600A7047B1EE600AFBE7002803D054
:100800009FED020A80ED000A704700000000000022
:10081000002803D0B3EE060A80ED000A70470000FE
:1008200070B52DED0C8B84B006460C4615469FED39
:10083000990AF0EE408A9FED970AB0EE409A9FED3C
:10084000950AF0EE40BA9FED930AF0EE409A9FEDC4
:10085000910AB0EE40AA0EB104B11DB904B0BDECCE
:100860000C8B70BD8C48FFF7C9FF8C48FFF7D0FF99
:100870008A48D0ED000A9FED8A1A60EE810AB0EE38
:10088000600A00F025F9F0EE408A28EEA80AF0EEA2
:10089000408A8248D0ED000AB0EE001A60EE810A6C
:1008A0009FED7F1A60EE810AB0EE600A00F010F949
:1008B000B0EE409A29EE090AB0EE409ADFED790ACF
:1008C000B7EE000A00EEA80ADFED770A00EEC90ACB
:1008D000DFED760A20EE200A754880ED000A6E48AA
:1008E00090ED000ADFED730A80EE201AB7EE000AE1
:1008F00031EE000A20EE000A6D48D0ED000A80EECD
:10090000801A6D4880ED001A94ED000AB5EEC00A19
:10091000F1EE10FA0DD194ED010AB5EEC00AF1EE38
:1009200010FA06D194ED020AB5EEC00AF1EE10FA03
:1009300046D09FED580AB0EE408A00200190029008
:100940000390D4ED000A60EEA00A94ED011AD4EDF4
:10095000011A41EE210A94ED021AD4ED021A41EE79
:10096000210AB0EE600A00F0A9F8B0EE408A94EDDA
:10097000000A20EE080A8DED010A94ED010A20EE2E
:10098000080A8DED020A94ED020A20EE080A8DEDA8
:10099000030ADDED010AF1EE600AB0EE600AFFF72E
:1009A0001AFFF0EE409A9DED031AF0EE410A9DED1C
:1009B000021AB0EE410AFFF710FFB0EE40AA07E0BE
:1009C0009FED340AF0EE409A9FED320AB0EE40AA55
:1009D00095ED000AB5EEC00AF1EE10FA0DD195EDD5
:1009E000010AB5EEC00AF1EE10FA06D195ED020A41
:1009F000B5EEC00AF1EE10FA3CD0B0EE690A00F094
:100A000067F8B0EE408AB0EE690AFFF7E8FEB0EE94
:100A100040DAB0EE4A0A00F05BF8F0EE40AAB0EE21
:100A20004A0AFFF7DCFEB0EE40BA28EE2A0AD5EDFE
:100A3000010A20EE200AD5ED000A0DEE200A68EE2C
:100A40000B0A95ED021A00EE810AB0EE40CA95ED50
:100A5000010A20EE0B0AD5ED020A0AEEE00AF0EEDA
:100A600040CAF0EE6C0AB0EE4C0AFFF7B6FEF0EEAC
:100A700040BA03E09FED070AF0EE40BAB0EE4A1A22
:100A8000F0EE690AB0EE6B0A304607F0E7FD00BFF2
:100A9000E4E6000000000000780400207C04002050
:100AA00035FA8E3CC1BFAD3B9DF8C5362F7C1C414D
:100AB00080040020506CC24A8404002010B507F066
:100AC0009FFBB7EE001AC1EE000AB0EE600A10BD3F
:100AD000FFF712BC2DE9F0412DED028B9AB00546CF
:100AE000B0EE408A0E4617469846002017901890A0
:100AF00019901490159016904DB146B13FB1B8F1D0
:100B0000000F04D0B5EEC08AF1EE10FA05D1002036
:100B10001AB0BDEC028BBDE8F08196ED000A8DEDB8
:100B2000170A96ED010A8DED180A96ED020A8DED71
:100B3000190A97ED000A8DED140A97ED010A8DED63
:100B4000150A97ED020A8DED160A17AA14A9284670
:100B500007F0A0FB402104A8FFF762FC00200090F2
:100B6000019002900390002417A904A80AF0D8FB72
:100B700000BF30E004A800EB041090ED000AD5EDB2
:100B8000000A20EE200A04A800EB0410D0ED010AB0
:100B900095ED011A00EE810A04A800EB0410D0EDD7
:100BA000020A95ED021A00EE810A04A800EB041077
:100BB000D0ED030A95ED031A00EE810A20EE080A33
:100BC000F0EE000A80EE201A684600EB840080ED0B
:100BD000001A601CC4B2042CCCDB002410E005EB2E
:100BE000840090ED000A684600EB8400D0ED000A16
:100BF00030EE200A05EB840080ED000A601CC4B2D0
:100C0000042CECDB284609F097FF012080E7000068
:100C100070B5624C624D6FF0C7062DED028B82B04D
:100C2000607870B15F48808AC0F30021C0F3402231
:100C3000A1802281C0F38020A0819FED5B8A4AB30E
:100C40004CE02E8508F0BCF85448544B103000900E
:100C5000B5F904005B1C1422544909F0DFF8A078B0
:100C6000012814D06078012811D1D5E90401C4E924
:100C70001001FFF759FC00EE100ADFED4D0A30EECF
:100C8000200A10EE100AFFF776FCC5E9080160782B
:100C9000A07071E040BBE088012804D019B1207831
:100CA00048B1002020703D492278D1E91001012A85
:100CB00003D062B10DE00120F4E7FFF735FC00EE50
:100CC000100A30EE080A10EE100AFFF754FCC5E9CE
:100CD000080108F041F82089012802D12E8508F08A
:100CE0006FF8A089012803D1C820288508F068F88A
:100CF000608908B1208918B1E089B8B1A089A8B984
:100D00002078012801D068B110E0D5E90401FFF78F
:100D10000BFC00EE100A30EE480A10EE100AFFF746
:100D20002AFC01E0D5E90401C4E910011B481B4B72
:100D300012300090B5F90400DB1C32221D4909F085
:100D40006DF8E078012817D12078012801D068B12A
:100D500010E0D5E90401FFF7E7FB00EE100A30EEE2
:100D6000480A10EE100AFFF706FC01E0D5E904017D
:100D7000C4E910010020E070A088E0802089608133
:100D8000A089E08102B006481622BDEC028BE0305B
:100D9000BDE870400349FFF72ABB00004003002074
:100DA000781C0020E11D00200000204844FDFFFFCA
:100DB000CDCCCC44F8F8FFFF01221021014801F00E
:100DC0003CBC00000000024000221021014801F05C
:100DD00034BC0000000002407047000001221146B0
:100DE000014801F02ABC0000000402400022012159
:100DF000014801F022BC00000004024030B54378F5
:100E000004781B021BB2234300EE103A194CB8EED3
:100E1000C00AD4ED000A20EE200A81ED000AC37852
:100E200085781B021BB22B4300EE103AD4ED000A6A
:100E3000B8EEC00A20EE200A81ED010A4379047958
:100E40001B021BB2234300EE103AB8EEC00A20EE9C
:100E5000200ADFED090A81ED020AD0F8060020F031
:100E60007F4000EE100AB8EE400A20EE200A82ED24
:100E7000000A30BD8803002000401C42704709F082
:100E800087B808F0BBBA000010B5427803781202A8
:100E900012B21A4300EE102A124BB8EEC00AD3ED7C
:100EA000010A20EE200A81ED000AC278847812023D
:100EB00012B2224300EE102AD3ED010AB8EEC00AA6
:100EC00020EE200A81ED010A42790079120212B265
:100ED000024300EE102AB8EEC00A20EE200A81ED8F
:100EE000020A10BD8803002010B5FFF775FFFFF759
:100EF000C5FF07F0FDFC08B1802402E007F064FCA8
:100F0000044607F0C3FE10B144F0400010BD07F0E6
:100F10004FFE204310BD00002DE9FC410746002094
:100F200016460D4600900190FFF74EFF922000F00C
:100F3000BDF806226946122000F09AF8FFF73CFF40
:100F40009DF801009DF80010000200B2084300EE79
:100F5000100A464CB8EEC00AD4ED000A20EE200A72
:100F600085ED000A9DF803009DF80210000200B212
:100F7000084300EE100AD4ED000AB8EEC00A20EED5
:100F8000200A85ED010A9DF805009DF80410000275
:100F900000B2084300EE100AB8EEC00A20EE200AA4
:100FA00085ED020AFFF722FF08226946002000F0C3
:100FB0005FF8FFF713FF9DF800000F2830D19DF870
:100FC00003009DF80210000200B2084300EE100A70
:100FD000D4ED010AB8EEC00A20EE200A87ED000A1F
:100FE0009DF805009DF80410000200B2084300EED1
:100FF000100AD4ED010AB8EEC00A20EE200A87EDEF
:10100000010A9DF807009DF80610000200B208438F
:1010100000EE100AB8EEC00A20EE200A87ED020AA0
:10102000FFF7D2FEA22000F041F8022269462220FA
:1010300000F01EF8FFF7C0FE9DF800009DF80110BB
:10104000C00040EA5110B0F5806F01DBA0F50060F0
:1010500000EE100AB4EE001AF8EEC00AB3EE070A6A
:1010600000EE810A86ED000ABDE8FC8188030020BD
:1010700070B514460D4640F0800000F017F806E009
:10108000552000F013F8641E05F8010BE4B2002CA3
:10109000F6D170BD10B50C4640F0800000F006F8A7
:1010A000552000F003F8207010BD000001B582B09B
:1010B0004FF47A700090012301AA02A9024802F0BD
:1010C00035FB9DF804000EBDE00B0020027840784F
:1010D000D20042EA5010B0F5806F01DBA0F500604D
:1010E00000EE100AB4EE001AF8EEC00AB3EE070ADA
:1010F00000EE810A81ED000A704710B50C46FFF73B
:10110000D5FF2046BDE81040FFF7D0BFFEE7000046
:10111000014800F002BC00003C0B0020014800F038
:10112000FCBB0000640B002010B50246FF20054BFD
:1011300004E000BF12F8014B4440185D491E89B21B
:10114000F8D210BDDAC60008014800F06BBF0000FD
:10115000EC0F0020014800F065BF00004C1000209B
:101160002DE9F05FA748A84BA84CC06CA64DA74E30
:10117000A54F0068A449DFF89492DFF88CA2DFF84D
:101180008CB2DFF884E2A14A483B60341835183647
:10119000303F09F178090AF1300A4FF4006C0BF185
:1011A000300BAEF1180E884223D99749543926E006
:1011B000A84233D14FF020080AE0504535D1E0462F
:1011C00006E000BF4FF4001802E000BF4FF00068D7
:1011D00011EA080F7CD08C49884253D9904205D03F
:1011E000984203D0A04201D0A8422FD14FF0200C4A
:1011F00045E08649A831884203D9834958390968AE
:1012000005E08249483188428149F8D949689042CD
:10121000D0D09842CED0A042CCD0C9E7B042CED0F8
:10122000B842CCD04845CAD0C7E75845CAD0704567
:10123000C8D0DFF8D88108F190084045C2D0DFF867
:10124000C88108F148084045C0D1BBE7B04216D07C
:10125000B84214D0484512D0504510D0584509D056
:10126000704507D069499031884203D066494831BA
:10127000884202D14FF4001C01E04FF0006C62483C
:101280004C382AE06149A831884229D9904205D0DA
:10129000984203D0A04201D0A84202D14FF0200CC6
:1012A00019E0B04217D0B84215D0484513D0504588
:1012B00011D0584509D0704507D054499031884223
:1012C00003D051494831884203D14FF4001C02E059
:1012D00095E04FF0006C4C485038C0F800C052E028
:1012E0004A494831884227D9904205D0984203D0D4
:1012F000A04201D0A84202D14FF0200C18E0B04229
:1013000016D0B84214D0484512D0504510D0584598
:1013100009D0704507D03D499031884203D03A4901
:101320004831884202D14FF4001C01E04FF0006CBC
:101330003748C0F80CC026E0904205D0984203D050
:10134000A04201D0A84202D14FF0200C18E0B042D8
:1013500016D0B84214D0484512D0504510D0584548
:1013600009D0704507D029499031884203D02649D9
:101370004831884202D14FF4001C01E04FF0006C6C
:101380002348C0F808C0234C207880070CD520786B
:1013900020F002002070207840F00400207001222C
:1013A00011461D4801F049F960781C4D80070CD5A5
:1013B000607820F002006070607840F00400607097
:1013C00001221021284601F038F9A07880070CD5B9
:1013D000A07820F00200A070A07840F00400A07077
:1013E00001221021284601F028F908F0D5FB2078C9
:1013F000400704D50A48016841F001010160BDE8D9
:10140000F09F0000E00B0020586402401060024092
:10141000006002407400002000040240000002400E
:10142000103C0140014800F0FDBD0000980C002078
:10143000014800F0F7BD00008C0F0020014800F0CB
:10144000F1BD0000AC100020014800F0EBBD000031
:101450002C0F002001680A4BCAB2103AA3FB0232DB
:101460001209084B9B5CC365032A04D96FF3090179
:10147000091D816502E06FF309018165806D704788
:10148000ABAAAAAADAC70008014600208A6A8B69BB
:10149000002B0FD0B3F5005F1DD08AB3012A30D0E6
:1014A000022A2ED0032A04D1C96A11F0807F00D00D
:1014B000012070471AB1012A07D0022AF9D1C96A5E
:1014C00011F0807FF5D001207047C96AB1F1C07F6B
:1014D000FAD1012070475AB1012A0BD0022A07D055
:1014E000032AF7D1C96AB1F1C07FF3D10120704757
:1014F00001207047C96A11F0807FFAD0012070473F
:10150000FFE70120704710B4D0F800C0DCF80040BD
:1015100024F48024CCF80040D0F800C0CCF804308B
:101520008368402B05D0036899600068C26010BCD6
:10153000704703689A600068C16010BC70477047CC
:10154000012000F051BF082000F04EBF102000F035
:101550004BBF202000F048BF704790F82020012AA0
:1015600007D0022A05D0416A41F48021416201205E
:10157000704700684269114341610020704770B4B0
:1015800090F82040D0F800C0DCF808C0012C08D04A
:10159000022C06D0416A41F48021416270BC0120D6
:1015A00070470CF080640CF000652C4302D11CF0F5
:1015B000805F5FD0CCF3016CBCF1020F06D9416AA9
:1015C00041F40001416270BC01207047012404FA1B
:1015D0000CF41C608B684FF4C0749BB1CD6804EBB5
:1015E0000C162B434D6843EAC5030568AB514FF415
:1015F000C273066803EB0C130D69F550097D0129D0
:1016000009D00DE00D88CB6804EB0C1643EA455376
:101610000568AB51EBE70168CD5845F48075CD50B6
:101620001179D379557941EA036193791B0443EA2F
:10163000052319434FF4C675036805EB0C15595182
:101640001178D37841EA0361937852781B0443EA16
:10165000022211434FF4C473026803EB0C13D15000
:10166000016804EB0C100A5842F001020A5070BCE9
:1016700000207047416A41F40011416270BC0120B2
:101680007047000090F82020012A07D0022A05D0D8
:10169000416A41F480214162012070474248D0F8FC
:1016A000002242F00102C0F80022D0F8002222F409
:1016B0007C52C0F80022D0F800224B6A42EA032292
:1016C000C0F800220A7D012302F01F0203FA02F291
:1016D000D0F81C329343C0F81C32CB69D3B9D0F890
:1016E0000C329343C0F80C32B1F80CC04B686CF369
:1016F0001F43D1F814C000EBCC0CCCF84032B1F849
:1017000008C00B686CF31F43D1F814C000EBCC0C7D
:10171000CCF84432CB69012B1AD1D0F80C321343E8
:10172000C0F80C32B1F800C04B686CF31F43D1F81D
:1017300014C000EBCC0CCCF84032B1F808C0CB6838
:101740006CF31F43D1F814C000EBCC0CCCF844323E
:101750008B697BB1D0F804321343C0F804320B69B3
:1017600073B1D0F814321343C0F81432096A012956
:101770000CD010E0D0F804329343C0F80432EEE706
:10178000D0F814329343C0F81432EFE7D0F81C12AB
:101790001143C0F81C12D0F8001221F00101C0F86A
:1017A000001200207047000000640040704710B431
:1017B00090F820C0BCF1010F09D0BCF1020F06D097
:1017C000416A41F48021416210BC0120704739B167
:1017D000D0F800C0DCF810C01CF0030F7DD006E08C
:1017E000D0F800C0DCF80CC01CF0030F7BD04FF425
:1017F000D87C04680CEB011C54F80C4004F0040481
:101800009460002C7DD0046854F80C40E4085460C7
:10181000046854F80CC00CF0020CC2F80CC04FF471
:10182000DA7C04680CEB011C54F80C4004F00F0443
:101830001461046854F80C40C4F3072494610468EC
:1018400054F80CC04FEA1C4CC2F814C04FF4DC72C0
:10185000D0F800C002EB01125CF802C083F800C0AF
:10186000D0F800C05CF802C04FEA1C2C83F801C01D
:10187000D0F800C05CF802C04FEA1C4C83F802C0EC
:10188000D0F800C05CF80220120EDA704FF4DE725D
:10189000D0F800C002EB01125CF802C083F804C06B
:1018A000D0F800C05CF802C04FEA1C2C83F805C0D9
:1018B000D0F800C05CF802C04FEA1C4C83F806C0A8
:1018C000D0F800C05CF80220120EDA71F9B100689D
:1018D000016941F02001016102E00BE003E010E04A
:1018E00010BC00207047416A41F40011416210BCF5
:1018F00001207047416A41F40011416210BC01208F
:101900007047046854F80C40640D146080E7006868
:10191000C16841F02001C160DEE72DE9F05F0546B6
:10192000002428684669D0F804908768D0F80CA095
:10193000D0F810B0D0F8188016F0010F54D017F07E
:10194000010F17D00121816017F0020F03D0284644
:1019500000F0FEFA0EE017F0040F02D04FF400641E
:1019600008E017F0080F02D04FF4805402E0284638
:1019700000F0EDFA17F4807F19D029684FF48070D9
:10198000886017F4007F03D0284600F0E3FA0EE0E9
:1019900017F4806F02D044F4005408E017F4006F8D
:1019A00002D044F4804402E0284600F0D2FA17F452
:1019B000803F19D029684FF48030886017F4003FC9
:1019C00003D0284600F0C8FA0EE017F4802F02D0AA
:1019D00044F4004408E017F4002F02D044F48034AB
:1019E00002E0284600F0B7FA16F0080F07D01AF008
:1019F000100F04D044F4007429681020C86016F059
:101A0000040F4FF0080707D01AF0080F04D0286819
:101A1000C760284600F0CEF916F0020F07D02868FC
:101A2000C06810F0030F02D0284600F0C5F916F088
:101A3000400F07D01BF0100F04D044F480642968D5
:101A40001020086116F0200F07D01BF0080F04D0FB
:101A500028680761284600F045FA16F0100F07D0F5
:101A60002868006910F0030F02D0284600F03BFA06
:101A700016F4003F08D019F0100F05D02968102087
:101A80004860284600F030FA16F4803F07D019F07D
:101A9000080F04D028684760284600F05EFA16F464
:101AA000004F4AD019F0040F44D016F4807F04D0C0
:101AB00018F0010F01D044F0010416F4007F04D0A7
:101AC00018F0020F01D044F0020416F4806F04D025
:101AD00018F0040F01D044F0040416F4006F29D06C
:101AE00018F0700F26D008F07000402815D006DCE2
:101AF000102809D020280AD0302816D10AE0502812
:101B00000ED0602811D10EE044F008040DE044F03E
:101B100010040AE044F0200407E044F0400404E02C
:101B200044F0800401E044F480742868816921F065
:101B300070018161296804204860002C05D0686A22
:101B4000204368622846FFF731FEBDE8F09F70B57C
:101B50000446002C03D094F8200010B104E00120CA
:101B600070BD204600F0A8F82068016841F001012E
:101B7000016000F069FD0546206840684FF00506E9
:101B800010F0010F11D100F05FFD401B0A2807D9AA
:101B9000606A40F40030606284F82060012070BD0B
:101BA0002068406810F0010FEDD02068016821F036
:101BB0000201016000F048FD05462068406810F011
:101BC000020F11D000F040FD401B0A2807D9606ABF
:101BD00040F40030606284F82060012070BD20680D
:101BE000406810F0020FEDD1207E01283FD0206820
:101BF000016821F080010160607E01283DD02068ED
:101C0000016821F040010160A07E01283BD02068DE
:101C1000016821F020010160E07E012839D02068B0
:101C2000016841F010010160207F012837D0206851
:101C3000016821F008010160607F012835D020682B
:101C4000016821F004010160E168A068626908434D
:101C50002169114308436168491E08432168C8612E
:101C600000206062012084F82000002070BD206800
:101C7000016841F080010160BEE72068016841F021
:101C800040010160C0E72068016841F02001016067
:101C9000C2E72068016821F010010160C4E72068F4
:101CA000016841F008010160C6E72068016841F061
:101CB00004010160C8E70000F0B587B004461421B4
:101CC0006846FEF7ADFB364B3648DFF8D0E01968C2
:101CD000D4F800C0334A0325022609271030002417
:101CE000491CF44522D11960012907D1016841F04E
:101CF00000710160006800F000700590106840F00D
:101D0000080010601068CDE9005600F00800CDE929
:101D1000047069462448CDE9024500F071FB0022B9
:101D20000521142001F062F8142032E0DFF87CE095
:101D3000F44530D1D0F800C04CF0806CC0F800C041
:101D4000D0F800C001290CF0806CCDF814C01960E7
:101D500007D1016841F000710160006800F0007077
:101D60000590106840F002001060106802AB00F0AF
:101D7000020005906020CDE9000683E8B0006946C6
:101D80000B4800F03DFB00220521402001F02EF819
:101D9000402001F01DF807B0F0BD000000640040D5
:101DA0001800002030380240000C0240006800405B
:101DB000000402407047000030B589B0044607AB0C
:101DC0006A460021FFF7F3FC3D492068884252D162
:101DD000009840F20122A0F20121904214D00ADCC6
:101DE0003849B0F5A97F26D0A0F5807053383AD095
:101DF0000F2840D119E001290DD004293BD107A9B2
:101E0000314807F009FE36E0304807A9054607F0DB
:101E10009DFC284606E02D4807A9383807F096FCB7
:101E20002A48383807F01CF825E02948079941600E
:101E3000079901601FE0BDF81C00264A40BAD08116
:101E4000BDF81E0040BA8882BDF8200040BAC882A2
:101E50009DF822008A7E60F382029DF8230060F3E1
:101E600041028A7607E0BDF81C0040BA4880BDF800
:101E70001E0040BA088318492068884214D1002205
:101E800007A9684607F070FC0098A0F500700138BB
:101E90000CD001280DD0022806D107A90F4807F061
:101EA00055FC0E4806F0DCFF09B030BD07A90C4810
:101EB00002E00B4807A9383007F048FCF4E70000BF
:101EC000006400406E1D0020F01900203014002036
:101ED000D4030020891D002000680040781C0020E9
:101EE000E812002070477047704770B5044694F8B8
:101EF0002000012805D0606A40F4002060620120C3
:101F000070BD022084F820002068016821F00101E2
:101F1000016000F099FB05462068406810F0010F51
:101F200012D000F091FB401B0A2808D9606A40F4E7
:101F300000306062052084F82000012070BD206818
:101F4000406810F0010FECD10020606270BD704756
:101F50007047704770477047704770472DE9F041F0
:101F60000446A66D00F070FB054694F83500002786
:101F7000022806D08020606584F834700120BDE816
:101F8000F0812068016821F0160101602068416934
:101F900021F080014161206C08B9A06C20B120685B
:101FA000016821F0080101602068016821F0010149
:101FB00001602068006810F0010F12D000F044FBAF
:101FC000401B052808D920206065032084F83500CF
:101FD00084F83470BDE8F0812068006810F0010FCB
:101FE000ECD194F85C003F2101FA00F0B0600120D0
:101FF00084F8350084F834700020BDE8F08190F852
:102000003510022903D08021416501207047052148
:1020100080F835100068016821F00101016000209E
:10202000704700002DE9F84304464FF00008CDF852
:10203000008076484FF416510068B0FBF1F7A56DAB
:102040002E6894F85C00082101FA00F0304211D0AB
:102050002068026812F0040F0CD0026822F004021B
:10206000026094F85C0001FA00F0A860606D40F036
:102070000100606594F85C004FF0010909FA00F076
:10208000304209D02168496911F0800F04D0A8605E
:10209000606D40F00200606594F85C100420884098
:1020A000304209D02168096811F0020F04D0A860FD
:1020B000606D40F00400606594F85C10102088406A
:1020C000304224D02168096811F0080F1FD0A860A1
:1020D0002068016811F4802F0DD0006810F4002FE3
:1020E00004D0A16C99B12046884710E0216C71B1F1
:1020F000204688470BE0016811F4807F03D1016816
:1021000021F008010160216C09B12046884794F84C
:102110005C1020208840304251D02168096811F0BD
:10212000100F4CD0A86094F8350005280DD0206819
:10213000016811F4802F32D0006810F4002F29D0EC
:10214000E16B59B32046884739E02068016821F0E7
:10215000160101602068416921F080014161206C15
:1021600008B9A06C20B12068016821F00801016065
:1021700094F85C003F2101FA00F0A86084F83590E3
:1021800084F83480216D00293ED001B02046BDE89E
:10219000F0430847616C09B1204688470FE00168A9
:1021A00011F4807F07D1016821F01001016084F8EB
:1021B000359084F83480E16B09B120468847606D22
:1021C000002821D0606D10F0010F15D0052084F893
:1021D00035002068016821F0010101600098401C71
:1021E0000090B84204D82068006810F0010FF5D1C3
:1021F00084F8359084F83480E16C002904D001B073
:102200002046BDE8F0430847BDE8F8831C000020E5
:102210002DE9F041044600F017FA0546DCB1022032
:1022200084F83500002684F834602068016821F0C5
:10223000010101602068006810F0010F13D000F068
:1022400003FA401B052809D920206065032084F883
:102250003500BDE8F0810120BDE8F081206800680C
:1022600010F0010FEBD121680868234A1040A368E1
:102270006268D4F810C01A43E36843EA0C031A43B7
:1022800063691A43A3691A43E3691A43236A1A4329
:102290001043626A042A03D1236BE26A1A43104393
:1022A00008602068406920F00701606A40EA010583
:1022B000012704280ED1A06A0543E06A50B12046E8
:1022C000FFF7E2F830B14020606584F835700120F6
:1022D000BDE8F081206845612046FFF7BBF894F81F
:1022E0005C103F2202FA01F18160666584F8357066
:1022F0000020BDE8F08100003F8010F070B504467A
:102300000025A66D94F8340001280DD0012084F832
:10231000340094F835C00020BCF1010F06D084F8D9
:1023200034000225284670BD022070BD4FF0020C1B
:1023300084F835C060652046FFF7E5F894F85C0046
:102340003F2101FA00F0B0602068016841F01601F9
:102350000160206C20B12068016841F00801016033
:102360002068016841F001010160DBE710B51C4CF9
:1023700010281BD0202822D008282BD0012814D1C7
:10238000607109F0A7FE01280FD004F11001606907
:1023900009F0D4F92069002807D012494FF0805085
:1023A0000860BFF34F8FBFF36F8F10BD607840F0B0
:1023B00001006070A07840F00100A07003E0207878
:1023C00040F00100207020790028EED0BDE81040D8
:1023D00007F0E2BBE07840F00100E07010BD0000C3
:1023E0007400002004ED00E010B504490A680242C0
:1023F00002D00860FFF7BAFF10BD0000143C014096
:102400002DE9F84F0022DFF818A2DFF810924FF004
:10241000010E03274FF00F08AAF1040B0EFA02FC7D
:102420000B6803EA0C0363457DD10C7904F00304C7
:10243000012C01D0022C14D18568540007FA04F64F
:10244000B543CE6806FA04F42C438460446824EA59
:102450000C0C0C79C4F30014944044EA0C0CC0F842
:1024600004C0D1F804C037EA0C0C0CD0C4684FEAA1
:10247000420C07FA0CF5AC438D6805FA0CFC4CEAEB
:10248000040CC0F80CC091F804C00CF0030CBCF1B3
:10249000020F12D14FEAD20C00EB8C04256A4FEAEE
:1024A000427C4FEADC6C08FA0CF6B5430E6906FA7A
:1024B0000CFC4CEA050CC4F820C004684FEA420C3E
:1024C00007FA0CF5AC430D7905F0030505FA0CFC91
:1024D0004CEA040CC0F800C0D1F804C01CF4403F22
:1024E0007DD0D9F800C04CF4804CC9F800C0D9F8B0
:1024F00000C00CF4804CCDF800C022F0030C0CF1AD
:10250000804505F59835D5F808C89407240F08FAD2
:1025100004F62CEA0606A0F1804CBCF5003C64D021
:10252000A0F1804C00E05AE0BCF5013C60D0A0F185
:10253000804CBCF5023C5ED0A0F1804CBCF5033C65
:102540005CD0A0F1804CBCF5043C5AD0A0F1804C8A
:10255000BCF5053C58D0A0F1804CBCF5063C56D0EB
:10256000A0F1804CBCF5073C54D04FF0080C0CFA9D
:1025700004FC4CEA060CC5F808C8DAF800C02CEADE
:10258000030C4C6814F4801F01D04CEA030CCAF809
:1025900000C0244CD4F800C02CEA030C4D6815F49C
:1025A000001F01D04CEA030CC4F800C0DBF800C0E7
:1025B0002CEA030C4C6814F4003F01D04CEA030CE5
:1025C000CBF800C0184CD4F800C02CEA030C4D68BE
:1025D00015F4803F01D04CEA030CC4F800C0521C33
:1025E000102AFFF41BAFBDE8F88F4FF0000CBEE7D8
:1025F0004FF0010CBBE74FF0020CB8E74FF0030CB3
:10260000B5E74FF0040CB2E74FF0050CAFE74FF021
:10261000060CACE74FF0070CA9E700004438024075
:10262000083C01400C3C0140003C0140006908426C
:1026300001D00120704700207047002A01D081613D
:102640007047090481617047014880687047000045
:10265000F003002070B50446002C04D094F83D002F
:10266000002510B106E0012070BD84F83C502046E2
:1026700000F0E0FA242084F83D002068016821F091
:10268000010101602068016841F400410160206897
:10269000016821F40041016000F0D0FC544B6168F6
:1026A000994203D85349884203D304E052498842EF
:1026B00001D2012070BD5149B0FBF1F12268D2F87E
:1026C00004C02CF03F0C4CEA010CC2F804C0626854
:1026D0009A4201D84A1C07E04FF4967251434FF4D6
:1026E0007A72B1FBF2F14A1C2168D1F820C02CF0BB
:1026F0003F0C42EA0C020A626168994210D8490014
:10270000401EB0FBF1F2521CC2F30B02042A01D2AC
:10271000042026E0B0FBF1F0401CC0F30B0020E0E9
:10272000A268002A50D001EBC10303EB0113A0F112
:10273000010CBCFBF3F35B1C43F480431B051B0D36
:102740004AD0002A4AD001EBC10202EB0111401E1F
:10275000B0FBF1F0401CC0F30B0040F4804040F4AB
:1027600000402168CA6922F0FF0222F44F42104360
:10277000C861216AE06901432068026822F0C00252
:1027800011430160E168206901432068826822F0FA
:10279000FF0222F4034211438160A1696069014391
:1027A0002068C26822F0FF021143C16020680168FE
:1027B00041F0010101602564202084F83D0025637B
:1027C00084F83E50002070BD01EB4103A0F1010CE4
:1027D000BCFBF3F35B1CB1E70120C2E701EB410155
:1027E000401EB0FBF1F0401CC0F30B00B7E7000047
:1027F000A086010080841E0000093D0040420F00B9
:102800002DE9FF4F83B004468A469346DDF8449095
:10281000DDF84080129EFFF717FF054694F83D0053
:10282000202803D007B00220BDE8F08F1923012231
:10283000A0492046009502F031F918B107B00220F6
:10284000BDE8F08F94F83C00012808D0012084F8FE
:102850003C002068016811F0010F04D007E007B0C8
:102860000220BDE8F08F016841F00101016020689D
:10287000016821F400610160222084F83D004020BD
:1028800084F83E0000272764C4F82480A4F82A9026
:10289000608D20858848E062019500965A46514631
:1028A0002046069B01F0BAFF18B107B00120BDE831
:1028B000F08F208D10B3012829D0022835D0206850
:1028C000416980690290208D002800F0E880DFF8DF
:1028D000EC81208D032800F2B780012834D0022833
:1028E0004AD03346002241462046009502F0D6F8F1
:1028F00000286CD007B00120BDE8F08F2068416946
:1029000081690291016841F400710160DBE7206890
:10291000016821F480610160206841698169029148
:10292000016841F400710160CDE72068016821F47D
:10293000806101602068016841F4006101602068E5
:10294000416980690290BEE72A463146204602F07E
:1029500066F918B107B00120BDE8F08F2068006962
:10296000616A0870606A401C6062208D401E20858C
:10297000608D401E60858EE0334600224146204631
:10298000009502F08BF818B107B00120BDE8F08F78
:102990002068016841F40071016020680069616A83
:1029A0000870606A401C6062218D491E2185618D1E
:1029B000491E6185216809690170606A401C606276
:1029C000208D401E2085608D401E608563E020685C
:1029D000016821F48061016020680069616A087003
:1029E000606A401C6062208D401E2085608D401E04
:1029F00060853346002241462046009502F04EF89D
:102A000018B107B00120BDE8F08F2068016841F4DB
:102A10000071016020680069616A0870606A401C8A
:102A20006062218D491E2185618D491E6185216865
:102A300009690170606A401C6062208D401E20851B
:102A4000608D401E608526E02A463146204602F011
:102A5000E6F818B107B00120BDE8F08F20680069E2
:102A6000616A0870606A401C6062218D491E218580
:102A7000618D491E61852268516911F0040F0AD0E9
:102A800011690170606A401C6062208D401E2085C3
:102A9000608D401E6085208D00287FF41AAF2020B5
:102AA00084F83D0084F83E7084F83C7007B0002044
:102AB000BDE8F08F020010000000FFFF04000100DD
:102AC0002DE9FF4F83B004468A469346DDF84490D3
:102AD000DDF84080129EFFF7B7FD054694F83D00F3
:102AE000202803D007B00220BDE8F08F192301226F
:102AF0004E492046009501F0D1FF18B107B00220E1
:102B0000BDE8F08F94F83C00012808D0012084F83B
:102B10003C002068016811F0010F04D007E007B005
:102B20000220BDE8F08F016841F0010101602068DA
:102B3000016821F400610160212084F83D004020FB
:102B400084F83E0000272764C4F82480A4F82A9063
:102B5000608D20853648E062019500965A465146C0
:102B60002046069B01F004FF18B107B00120BDE824
:102B7000F08F208D002836D02A463146204602F0BC
:102B80008CF858B1206C042804D12068016841F405
:102B90000071016007B00120BDE8F08F606A216814
:102BA00000780861606A00F1010CC4F824C0208D2F
:102BB000401E80B22085618D491E61852368596958
:102BC00011F0040F0CD058B19CF800001861606A35
:102BD000401C6062208D401E2085608D401E6085F7
:102BE000208D0028C8D12A463146204601F028FF12
:102BF00058B1206C042804D12068016841F40071A8
:102C0000016007B00120BDE8F08F2068016841F441
:102C100000710160202084F83D0084F83E7084F843
:102C20003C7007B00020BDE8F08F000002001000EB
:102C30000000FFFFF0B587B0044614216846FDF799
:102C4000EFFB1A49206888422DD11948016841F0EC
:102C500004010160016801F004010591016841F07F
:102C6000010101600068122400F0010005904FF49A
:102C700000700125032604278DE8F10069460D4800
:102C8000FFF7BEFB28028DE8F10069460A48FFF70E
:102C9000B7FB07481030016841F40001016000688B
:102CA00000F40000059007B0F0BD0000005C00409B
:102CB00030380240000802400000024002488168AB
:102CC0000278114481607047F003002010B50B4872
:102CD000016841F400710160016841F480610160A4
:102CE000016841F480710160032000F0B3F80F2007
:102CF00000F006F800F050F8002010BD003C024043
:102D000030B505461F4887B00024016841F0100126
:102D10000160006806A900F01000009001A800F012
:102D200069F90498A8B100F089F940001649174ADA
:102D3000B0FBF1F11648491E026040F2E732C0E9EB
:102D40000324C0E90114846100F06EFE040003D086
:102D500015E000F073F9E9E70D4800F01BFF0400EF
:102D60000DD1362000F034F8102D07D2002229466C
:102D7000362000F03BF80748056000E0012407B06A
:102D8000204630BD4038024040420F000010004055
:102D90000C110020F40300200C4882B0016841F4BB
:102DA00080410160006800F4804000900748001FE7
:102DB000016841F0805101600068002200F08050FD
:102DC00000900F21901E02B000F010B8443802406D
:102DD00000280ADB00F01F01012202FA01F140097C
:102DE000800000F1E020C0F80011704710B4184BCB
:102DF0001B68C3F30223C3F1070CBCF1040F01D914
:102E00004FF0040C1C1D072C01D2002300E0DB1E38
:102E1000012404FA0CFCACF1010C0CEA010199400C
:102E200004FA03F35B1E1A401143002806DB00F18D
:102E3000E020090180F8001410BC704700F00F007A
:102E400000F1E020090180F8141D10BC704700005B
:102E50000CED00E000F00700064A11684FF6FF0392
:102E6000194041EA002040F0FD7040F080601060A1
:102E7000704700000CED00E02DE9F04704460D46D8
:102E8000002C13D0DFF85491D9F80000EFB200F015
:102E90000700A8420DD289F80070D9F8000000F0B0
:102EA0000700A84205D00120BDE8F0870120BDE859
:102EB000F08720684A4E10F0020F14D010F0040F73
:102EC00003D0306840F4E0503060207810F0080FF4
:102ED00003D0306840F4604030603068A16820F072
:102EE000F00008433060207810F0010F3ED0606899
:102EF0003C49012808D002280DD003280BD00968CE
:102F000011F0020F28D00AE0096811F4003F06D141
:102F10000120BDE8F087096811F0007F19D0316801
:102F200021F0030108433060FFF78EFB80463068D4
:102F3000616800F00C00B0EB810F17D041F2883AC5
:102F4000FFF782FBA0EB0800504508D90320BDE83D
:102F5000F0870120BDE8F0870120BDE8F0873068E8
:102F6000616800F00C00B0EB810FE9D1D9F80000E6
:102F700000F00700A8420AD989F80070D9F80000CB
:102F800000F00700A84202D00120BDE8F0872078B9
:102F900010F0040F05D03068E16820F4E0500843D9
:102FA0003060207810F0080F06D03068216920F4D6
:102FB000604040EAC100306000F060F831680A4AC1
:102FC000C1F30311515CC840084908600848006813
:102FD000FFF796FE0020BDE8F0870000003C0240AD
:102FE000083802400038024098C600081C00002043
:102FF000F40300200F2202600B4A136803F003035E
:103000004360136803F0F0038360136803F4E05334
:10301000C360126802F46042D2080261034800688B
:1030200000F007000860704708380240003C02408A
:1030300001480068704700001C00002000B5FFF741
:10304000F7FF04490968044AC1F38221515CC84072
:1030500000BD000008380240A8C6000800B5FFF710
:10306000E7FF04490968044AC1F34231515CC84092
:1030700000BD000008380240A8C6000810B5174877
:10308000006810F00C01164816D0164B042912D017
:10309000082911D1144C216801F03F02216811F474
:1030A000800F0AD02068C0F38810A0FB0301002322
:1030B000FDF76CF909E0184610BD21680023C1F343
:1030C0008811A1FB0001FDF761F92168C1F30141FD
:1030D000491C4900B0FBF1F010BD00000838024067
:1030E0000024F400001BB700043802402DE9F84F1B
:1030F0000446002C12D02078FB4E10F0010FA6F1F0
:10310000040563D0301D016801F00C0104290CD0C6
:10311000006800F00C00082803D010E00120BDE892
:10312000F88F306810F4800F09D0286810F4003F41
:103130004CD06068002849D10120BDE8F88F606854
:10314000B0F5803F14D0B0F5A02F16D0286820F439
:1031500080302860286820F480202860606810B3E0
:10316000FFF772FA0746286810F4003F0ED02DE0F2
:10317000286840F480302860F0E7286840F4802018
:103180002860286840F480302860E7E7FFF75CFAA1
:10319000C01B642802D90320BDE8F88F286810F40A
:1031A000003FF3D012E0FFF74FFA0746286810F40B
:1031B000003F0BD0FFF748FAC01B642802D9032058
:1031C000BDE8F88F286810F4003FF3D12078C74F8E
:1031D00010F0020F4FF0000957D0C548016811F0F8
:1031E0000C0F14D0006800F00C00082803D13068E0
:1031F00010F4800F0BD0E06880B301203860FFF737
:1032000023FA8046286810F0020F12D01EE02868CA
:1032100010F0020F05D0E068012802D00120BDE8BF
:10322000F88F2868216920F0F80040EAC100286082
:103230002BE0FFF709FAA0EB0800022802D90320CF
:10324000BDE8F88F286810F0020FF2D028682169D5
:1032500020F0F80040EAC100286016E0FFE7C7F858
:103260000090FFF7F1F98046286810F0020F0CD0AB
:10327000FFF7EAF9A0EB0800022802D90320BDE815
:10328000F88F286810F0020FF2D1207810F0080FA4
:1032900035D09848DFF860A26169C1B101210160B1
:1032A000FFF7D2F98046DAF8000010F0020F26D1BD
:1032B000FFF7CAF9A0EB0800022802D90320BDE8F5
:1032C000F88FDAF8000010F0020FF1D017E0C0F824
:1032D0000090FFF7B9F98046DAF8000010F0020F0D
:1032E0000DD0FFF7B1F9A0EB0800022802D90320A6
:1032F000BDE8F88FDAF8000010F0020FF1D1207865
:1033000010F0040F71D04FF000087C48006810F0F6
:10331000805F0AD17948016841F0805101600068FE
:1033200000F0805000904FF00108DFF8D4B1DBF8D6
:10333000000010F4807F1BD1DBF8000040F48070A7
:10334000CBF80000FFF780F98246DBF8000010F4AC
:10335000807F0DD1FFF778F9A0EB0A00022802D98F
:103360000320BDE8F88FDBF8000010F4807FF1D077
:10337000A068DFF890B1012818D005281DD0DBF82F
:10338000000020F00100CBF80000DBF8000020F086
:103390000400CBF80000A06840B3FFF755F982465F
:1033A000DBF8000010F0020F14D03EE0DBF8000064
:1033B00040F00100CBF80000EDE7DBF8000040F042
:1033C0000400CBF80000DBF8000040F00100CBF86F
:1033D0000000E0E7FFF738F9A0EB0A0141F288307E
:1033E000814204D90320BDE8F88F26E005E0DBF830
:1033F000000010F0020FEDD017E0FFF725F982462C
:10340000DBF8000010F0020F0FD0FFF71DF9A0EB62
:103410000A0141F28830814202D90320BDE8F88FC9
:10342000DBF8000010F0020FEFD1B8F1010F04D16A
:103430003248016821F080510160A069F0B32C4945
:1034400009684FF0FF3801F00C01082966D0022806
:1034500010D0C7F86090FFF7F7F80446286810F01E
:10346000007F2BD0FFF7F0F8001B022851D9032072
:10347000BDE8F88FC7F86090FFF7E6F88146286846
:1034800010F0007F0CD0FFF7DFF8A0EB0900022856
:1034900002D90320BDE8F88F286810F0007FF2D130
:1034A000216AE069A26A0843616A08EB5202890155
:1034B00041EA0241084394F82C1000E055E040EA4C
:1034C0000160306001203866FFF7BEF804462868C6
:1034D00010F0007F49D1FFF7B7F8001B022813D97D
:1034E0000320BDE8F88F0000043802400000474286
:1034F00008380240800E474274380240403802408B
:103500000070004070380240286810F0007FE2D060
:103510002BE0286810F0007FA4D126E0012822D0FB
:103520003068E26900F4800191421AD1226A00F009
:103530003F01914215D147F6C071626A0140B1EB7B
:10354000821F0ED1A26A00F4403108EB5202B1EBA7
:10355000024F06D194F82C1000F07060B0EB016FB0
:1035600003D00120BDE70120BBE70020B9E770B51B
:103570000446002C09D0606A002540B125616561D0
:10358000A56294F8510040B10CE0012070BD606864
:10359000B0F5827FF4D0E561F2E784F85050204620
:1035A00000F044F8022084F851002068016821F0FE
:1035B00040010160A088218900F4827001F4044177
:1035C0000843A18901F400610843217C01F0020154
:1035D0000843217D01F001010843218B01F40071B2
:1035E0000843217F01F03801084394F8201001F0CE
:1035F00080010843218D01F40051084321680860CF
:10360000A169042000EA114094F8241001F010018F
:103610000143206841602068C16921F40061C161F3
:103620006565012084F85100002070BD2DE9F0414E
:1036300086B0064614216846FCF7F2FE354930682C
:10364000884264D134480024016841F4805101600B
:10365000006800F4805005902F481438016841F04C
:1036600002010160016801F002010591016841F069
:10367000010101600068022500F00100059018209A
:10368000CDE9000502AA03274FF0050882E8900162
:1036900069462248FEF7B4FE8020CDE9000502AA63
:1036A000694682E890011E48FEF7AAFE1E4D1D489D
:1036B0007F062860C5E901744FF48068C5E90348B6
:1036C0006C617812AC61C5E9074028466C62FEF770
:1036D0009FFD08B1FDF740FFF564AE63124D114840
:1036E00060351830E5E802074020A5E81101C00266
:1036F00045F81449AC61C5E907400B486C6260307D
:10370000FEF786FD08B1FDF727FFB564AE6306B08E
:10371000BDE8F0810030014044380240000402401E
:103720000000024040640240380C00202DE9F84FB0
:1037300004460A9E8A4693461F4601254FF000081C
:1037400094F8500001280ED0012084F85000FEF7B4
:103750007BFF814694F85100616801280ED0B1F5D5
:10376000827F07D102E00220BDE8F88FA16809B985
:10377000042803D04FF0020800F0CBB8BAF1000FD4
:103780001DD0BBF1000F1AD0380018D094F85100AA
:10379000042802D0052084F8510000206065C4F898
:1037A00038B0E787A787C4F830A0E786A7862064EB
:1037B00060642068016811F0400F03D006E04FF00C
:1037C0000108A6E0016841F040010160E068B0F541
:1037D000006F05D06068002848D0012F46D07EE0F9
:1037E000606808B1012F3AD1206B21680088C86059
:1037F000206B801C2063E08E401EE0862FE0206856
:10380000816811F0020F0DD0E18E59B1012D09D15F
:10381000216B0988C160206B801C2063E08E401EF4
:10382000E08600252068816811F0010F0BD0E18F40
:1038300049B1C068A16B0880A06B801CA063E08FB9
:10384000401EE0870125FEF7FFFEA0EB0900B04215
:1038500005D3B6F1FF3F02D04FF0030859E0E08EE8
:103860000028CCD1E08F0028C9D13EE0206B216830
:1038700000780873206B401C2063E08E401EE086B9
:103880002DE02068816811F0020F0DD0E18E59B152
:10389000012D09D1216B09780173206B401C206335
:1038A000E08E401EE08600252068816811F0010F3F
:1038B0000BD0E18F49B1C068A16B0870A06B401CB0
:1038C000A063E08F401EE0870125FEF7BDFEA0EB60
:1038D0000900B04202D3B6F1FF3F11D186B1E08EAC
:1038E0000028CED1E08F0028CBD14A463146204671
:1038F00003F0A2FC38B14FF001082020606508E019
:103900004FF0030805E0A06818B92068C168806816
:103910000090012084F85100002084F850004046B7
:10392000BDE8F88F7047704790F83C20012A2CD0F2
:10393000012280F83C20CA680023D1F808C022F494
:10394000407242EA0C02D1F804C022F4806242EADA
:103950000C02D1F800C022F4006242EA0C02D1F855
:1039600010C022F4805242EA0C02D1F814C022F4B2
:10397000005242EA0C02C96922F4804211430268F3
:10398000516480F83C30002070470220704730B40A
:1039900090F83C20012A44D0012480F83C400222C7
:1039A00080F83D200268D2F804C093682CF0700CB7
:1039B0000D6845EA0C0CC2F804C00268A2F1804C04
:1039C000BCF5803C20D0B2F1804F1DD0A2F1804CDC
:1039D000BCF5806C18D0A2F1804CBCF5006C13D003
:1039E000A2F1804CBCF5406C0ED0A2F1804CBCF52D
:1039F000823C09D0A2F1804CBCF5A03C04D0A2F1DD
:103A0000804CBCF5C05C04D123F0800349681943A5
:103A1000916080F83D40002180F83C1030BC0020CF
:103A2000704730BC0220704710B50446002C03D00C
:103A300094F83D0010B107E0012010BD002084F88B
:103A40003C00204600F01EF8022084F83D00211DB5
:103A5000206803F0FBFC012084F8460084F83E0057
:103A600084F83F0084F8400084F8410084F8420064
:103A700084F8430084F8440084F8450084F83D004D
:103A8000002010BD08B51D4902681D488A4207D1B3
:103A9000016841F001010160006800F001000AE0E6
:103AA0001749184B091F9A4207D1086840F00200D5
:103AB0000860086814E0009008BD134B9A4207D1D3
:103AC000086840F004000860086800F00400F2E7AD
:103AD0000E498A4207D1016841F002010160006885
:103AE00000F00200E7E70A498A42E5D1016841F4A3
:103AF00000310160006800F40030DCE700000140A4
:103B00004438024000040040000800400004014026
:103B10000044014090F83D10012901D00120704778
:103B2000022180F83D100068A0F18041B1F580319C
:103B300026D0B0F1804F23D0A0F18041B1F5806153
:103B40001ED0A0F18041B1F5006119D0A0F18041F3
:103B5000B1F5406114D0A0F18041B1F582310FD0B0
:103B6000A0F18041B1F5A0310AD0A0F18041B1F5BA
:103B7000C05105D0016841F001010160002070478B
:103B8000816801F007010629F8D0016841F00101C0
:103B90000160F3E790F83D10012901D00120704742
:103BA000022180F83D100168CA6842F00102CA6033
:103BB0000068A0F18041B1F5803126D0B0F1804F8E
:103BC00023D0A0F18041B1F580611ED0A0F18041E9
:103BD000B1F5006119D0A0F18041B1F5406114D078
:103BE000A0F18041B1F582310FD0A0F18041B1F553
:103BF000A0310AD0A0F18041B1F5C05105D00168D3
:103C000041F00101016000207047816801F0070167
:103C10000629F8D0016841F001010160F3E770B5B1
:103C20000446002594F83C00012818D0012684F8A9
:103C30003C60022084F83D002068826822F0770210
:103C400022F47F4282600868502839D00EDC202898
:103C500054D006DC002851D0102811D14EE00220AB
:103C600070BD30284AD040280AD13DE0602831D0CC
:103C700070280DD0B0F5805F03D0B0F5005F13D091
:103C8000012584F83D60002084F83C00284670BD82
:103C9000CB684A688968206803F04DFC2068816819
:103CA00041F077018160ECE7CB684A688968206859
:103CB00003F041FC2068816841F480418160E0E7C5
:103CC000CA684968206803F025FD5021206803F088
:103CD0003DFCD6E7CA684968206803F02EFD6021E4
:103CE000206803F033FCCCE7CA684968206803F019
:103CF00011FD4021206803F029FCC2E7226801463B
:103D0000104603F023FCBCE7704770B504462068FA
:103D100001694FF0000511F0020F17D0C16811F0D2
:103D2000020F13D0E91E016101202077206880690D
:103D300010F0030F03D02046FFF7E6FF05E0204612
:103D400000F03AF9204600F0D3F9257720680169A0
:103D500011F0040F18D0C16811F0040F14D06FF0E7
:103D600004010161022020772068806910F4407FFF
:103D700003D02046FFF7C8FF05E0204600F01CF9FD
:103D8000204600F0B5F925772068016911F0080F89
:103D900018D0C16811F0080F14D06FF0080101614C
:103DA000042020772068C06910F0030F03D020465C
:103DB000FFF7AAFF05E0204600F0FEF8204600F0DD
:103DC00097F925772068016911F0100F18D0C168A4
:103DD00011F0100F14D06FF010010161082020774E
:103DE0002068C06910F4407F03D02046FFF78CFFA5
:103DF00005E0204600F0E0F8204600F079F925774C
:103E00002068016911F0010F09D0C16811F0010F9C
:103E100005D06FF001010161204600F0D9F920685A
:103E2000016911F0800F09D0C16811F0800F05D031
:103E30006FF0800101612046FFF774FD2068016981
:103E400011F0400F09D0C16811F0400F05D06FF09C
:103E500040010161204600F0C5F92068016911F0B8
:103E6000200F0BD0C16811F0200F07D06FF0200198
:103E700001612046BDE87040FFF755BD70BD0000F0
:103E80002DE9F04186B0044614216846FCF7C8FAD3
:103E90003E4B216800223E4802240125994210D160
:103EA000016841F0100101600068694600F01000EF
:103EB00005904FF4D4408DE831003648CDE90345F4
:103EC00013E0354B0326DFF8D480994212D1016804
:103ED00041F0040101600068694600F004000590AB
:103EE00098158DE8710040460494FEF789FA06B0F3
:103EF000BDE8F0812A4B994210D1016841F00801D8
:103F000001600068694600F00800059018140090F0
:103F1000CDE90142CDE903242248E6E7224A4027C1
:103F2000914220D1016841F480710160016801F47F
:103F300080710591016841F00401016000686946E3
:103F400000F004000590C0208DE83100CDE9034663
:103F50001648FEF755FA0097CDE90145CDE903462D
:103F600069464046C1E7124A9142C0D1016841F01A
:103F70002001016000680097CDE9014500F02000B4
:103F8000CDE90460694603940A48AEE700000140A9
:103F90003038024000100240000400400008024097
:103FA00000080040000C02400004014000200240D4
:103FB0000044014000140240704770B504460D46AD
:103FC000002694F83C0001280FD0012084F83C0022
:103FD0006AB1042A1FD0082A32D00C2A44D0012604
:103FE000002084F83C00304670BD022070BD294698
:103FF000206803F0B3FA2068816941F0080181610B
:104000002068816921F004018161206881692A6941
:1040100011438161E4E72946206803F0D7FA20685C
:10402000816941F4006181612068816921F48061C6
:104030008161206881692A6941EA02218161CFE7B3
:104040002946206803F0FEFA2068C16941F00801A2
:10405000C1612068C16921F00401C1612068C169A2
:104060002A691143C161BBE72946206803F026FB9A
:104070002068C16941F40061C1612068C16921F40F
:104080008061C1612068C1692A6941EA0221C16178
:10409000A6E710B50446002C03D094F83D0010B1FB
:1040A00007E0012010BD002084F83C00204600F00D
:1040B0001EF8022084F83D00211D206803F0C6F997
:1040C000012084F8460084F83E0084F83F0084F81C
:1040D000400084F8410084F8420084F8430084F8EA
:1040E000440084F8450084F83D00002010BD70476E
:1040F0007047000010B50446002909D004290AD0F1
:1041000008290BD094F8410001280AD0012010BDE5
:1041100094F83E00F8E794F83F00F5E794F8400083
:10412000F2E70220D9B3042947D0082948D084F8FF
:1041300041000122206803F0EFF9234A2068234957
:10414000904201D0884203D1436C43F4004343645E
:104150002068904224D0B0F1804F21D0A0F180425D
:10416000B2F580621CD0A0F18042B2F5006217D097
:10417000A0F18042B2F5406212D0884210D0A0F186
:104180008041B1F5A0310BD0A0F18041B1F5C05113
:1041900006D0016841F001010160002010BD09E076
:1041A000816801F007010629F7D0016841F001019B
:1041B0000160F2E784F83E00BBE784F83F00B8E70F
:1041C00084F84000B5E70000000001400004014011
:1041D00000680349884201D1FEF770BD70470000B6
:1041E000001000407047704770470000F8B5044663
:1041F00022681068D168536900F00F0CBCF1000F01
:104200000AD110F0200F07D011F0200F04D0204663
:10421000BDE8F84003F039BB0025BCF1000F75D0B4
:1042200003F0010C01F490765CEA06066ED010F003
:10423000010F06D011F4807F03D0226C42F00102FE
:10424000226410F0040F06D013F0010F03D0226C8B
:1042500042F00202226410F0020F06D013F0010FA8
:1042600003D0226C42F00402226410F0080F08D040
:1042700001F0200252EA0C0203D0226C42F0080244
:104280002264226C002A35D010F0200F05D011F0E6
:10429000200F02D0204603F0F8FA20684069C0F3EE
:1042A0008010216C11F0080F00D148B3204603F0B4
:1042B000AAFA2068406910F0400F1CD02068143022
:1042C00050E8001F21F0400140E80012002AF5D11B
:1042D000A06B60B15C490165A06BFDF790FE002802
:1042E00008D0A06B016D01B0BDE8F0400847204642
:1042F000FFF77AFFF8BD2046FFF776FFF8BD05E02F
:10430000FFE72046FFF770FF2564F8BD236B012B04
:104310007ED110F0100F7BD011F0100F7ED01068FE
:104320005068009050694FF0200310F0400F43D0C8
:10433000A16B0868406880B20028E6D0A28D824256
:10434000E3D9E085C869B0F5807F2DD020680C30B6
:1043500050E8001F21F4807140E80012002AF5D1D6
:104360002068143050E8001F21F0010140E80012DD
:10437000002AF5D12068143050E8001F21F04001D8
:1043800040E80012002AF5D184F83E302563206809
:104390000C3050E8001F21F0100140E80012002A04
:1043A000F5D1A06BFDF7DAFDA08DE18D401A81B249
:1043B0002046FFF718FFF8BDA08DE18D401A81B2AD
:1043C000E08D0028F7D00029F5D020680C3050E8A7
:1043D000002F22F4907240E8002CBCF1000FF4D1C1
:1043E0002068143050E8002F22F0010240E8002C31
:1043F000BCF1000FF4D184F83E30256320680C3006
:1044000050E8002F22F0100240E80023002B00E0CB
:1044100004E0F3D12046FFF7E6FEF8BD10F0800F70
:1044200007D011F0800F04D02046BDE8F84003F01B
:104430000FBB10F0400FF0D011F0400FEDD0204630
:10444000BDE8F84003F006BA5F77000870B504468F
:10445000002C04D094F83D00002510B106E00120A6
:1044600070BD84F83C50204600F022F8242084F8E7
:104470003D002068C16821F40051C160204603F06E
:1044800069FA2068016921F490410161206841695D
:1044900021F02A0141612068C16841F40051C160E6
:1044A0002564202084F83D0084F83E00002070BD83
:1044B0002DE9F04F87B0044614216846FBF7B0FFA2
:1044C0009448DFF84C8214380322D4F800C0914B92
:1044D00002210025061517044FF0070BC4456CD1C7
:1044E000D3F800C04CF0100CC3F800C01B6803F0F8
:1044F00010030593036843F002030360036803F0AD
:1045000002030593036843F00103036000688A46D1
:1045100000F0010005908020CDE9000ACDE90252AB
:104520009146D8466946CDF810B07B48FDF768FF44
:104530007010CDE9000ACDE902596946CDF8108026
:104540007648FDF75DFFDFF8DC81754940464FF0A6
:104550000069E0E802194021B246A0E8220440F8D0
:1045600014598561C0E907574046C8F82450FDF743
:104570004FFE08B1FCF7F0FF6A4E6948C4F834807A
:1045800060363038C8F838403060C6E90195C6E971
:10459000035A7561B561C6E9075730467562FDF784
:1045A00037FE08B1FCF7D8FFA663002205212520BD
:1045B000B463FEF71BFC252046E0DFF86C81C445A0
:1045C00047D1544B1B1FD3F800C04CF4802CC3F8C8
:1045D00000C01B6803F480230593036843F00403C1
:1045E0000360006800F0040005904FF440608DE81F
:1045F0002300CDE9032B69464C48FDF701FFDFF8A6
:1046000024814B4908F1C0084046C8F800104FF01B
:104610000061C0E90115C0E90356C8F81450C8F894
:104620001850C8E90757C8F82450FDF7F1FD08B144
:10463000FCF792FFC4F83880002205212720C8F833
:104640003840FEF7D3FB2720FEF7C2FB07B0BDE8DA
:10465000F08FDFF8E080C445F8D1D3F800C04CF00B
:10466000200CC3F800C01B6803F020030593036807
:1046700043F040030360006800F0400005904FF4F1
:1046800084408DE823000820CDE9032069462A48AC
:10469000FDF7B6FE2249DFF8A480903940464FF07E
:1046A000206AC8F80010C0E901A5C0E90356C8F89F
:1046B0001450C8F81850C8E90757B946C8F824502C
:1046C000FDF7A6FD08B1FCF747FF1C4F1448C4F8DE
:1046D000388060371838C8F83840E7E8020A4020C8
:1046E00061C7164847F814596030BD61C7E90759DA
:1046F0007D62FDF78DFD08B1FCF72EFF6763002298
:1047000005214720BC63FEF771FB47209CE70000B2
:104710000010014044380240000402400000024002
:10472000B86402402C0F00200048004000080240FE
:104730002860024000140140001802404C10002084
:104740007047000037B5044694F83D00202802D099
:1047500003B0022030BD0199002937D0002A35D09E
:1047600094F83C00012834D0012084F83C002162F8
:10477000A284E28400252564212084F83D00636B37
:104780001548D863636B15481864636B1448D86484
:10479000606B056520681346001DD4F834C00246DE
:1047A0006046FDF7ABFD21686FF04000086084F8BB
:1047B0003C502068143050E8001F41F0800140E870
:1047C0000012002AF5D103B0002030BD03B0012053
:1047D00030BD03B0022030BDB9770008FD77000876
:1047E0006F77000870477047FEE701684A6912F466
:1047F000806F11D06FF480624A6100210163202232
:1048000080F83D2080F83E10026C42F00402026401
:1048100080F83C1001207047002070472DE9F84FC8
:104820000446DDF828A00B9D0F4690461E462068E2
:10483000016841F4806101602068016841F4807181
:104840000160534600224FF001112046009500F010
:1048500025F94FF4007948B12068006810F4807F92
:1048600001D0C4F840900320BDE8F88F216807F01C
:10487000FE000861DFF8F4B02B4652465946204648
:1048800000F066F910B10120BDE8F88F2068416999
:10489000806900902A465146204600F0FEF950B14A
:1048A000206C042804D12068016841F40071016083
:1048B0000120BDE8F88F304608F0FF0601280DD032
:1048C00021684FEA182008612A465146204600F028
:1048D000E4F970B1206C042803D007E02068066179
:1048E00009E02068016841F4007101600120BDE821
:1048F000F88F206806612A465146204600F0CDF91F
:1049000050B1206C042804D12068016841F4007182
:1049100001600120BDE8F88F2068016841F48071D2
:104920000160534600224FF001112046009500F02F
:10493000B5F848B12068006810F4807F01D0C4F851
:1049400040900320BDE8F88F2168F8B240F00100E4
:1049500008612B4652465946204600F0F9F810B13E
:104960000120BDE8F88F0020BDE8F88F02000100AB
:104970002DE9F8430446DDF82090099F0D461646C0
:1049800098462068016841F4807101604B4600221E
:104990004FF001112046009700F080F850B12068D8
:1049A000006810F4807F02D04FF400702064032070
:1049B000BDE8F883216805F0FE0008613B464A46E1
:1049C0001E49204600F0C4F810B10120BDE8F8836C
:1049D00020684169806900903A464946204600F0C7
:1049E0005CF950B1206C042804D12068016841F4BE
:1049F000007101600120BDE8F883F5B2B8F1010F44
:104A00000CD02168300A08613A464946204600F039
:104A100044F970B1206C042803D007E020680561D8
:104A200009E02068016841F4007101600120BDE8DF
:104A3000F883206805610020BDE8F88302000100CA
:104A400070B504460D4616462068406910F0040F04
:104A500013D12046FFF7C9FE08B1012070BDB5F1A2
:104A6000FF3F05D0FDF7F0FD801BA84207D835B108
:104A70002068406910F0040FEBD0002070BD0020CA
:104A80002063202184F83D1084F83E00216C41F021
:104A90002001216484F83C00012070BD2DE9F0471D
:104AA0000446DDF820900D4617461E46C5F307481C
:104AB0002068B8F1010F22D0806925EA00000004C7
:104AC000000C26D00020B84216D1B6F1FF3F06D028
:104AD000FDF7BAFDA0EB0900B0421CD8DEB1B8F179
:104AE000010F28D02068806925EA00000004000C2E
:104AF0002CD00020B842E8D00020BDE8F087406903
:104B000025EA00000004000C01D00020DBE70120B2
:104B1000D9E70120D7E700202063202184F83D1049
:104B200084F83E00216C41F02001216484F83C00AF
:104B30000120BDE8F0872068406925EA00000004F4
:104B4000000C01D00020D5E70120D3E70120D1E7F8
:104B50002DE9F04704460D4616461F46C5F30748A3
:104B60002068B8F1010F26D0806925EA0000000412
:104B7000000C3AD04FF000094FF0200A206840693D
:104B800010F4806F1ED02068016841F4007101604C
:104B900021686FF480604861C4F8309084F83DA0CB
:104BA00084F83E90206C40F00400206484F83C902F
:104BB0000120BDE8F087406925EA00000004000CF0
:104BC00013D0D7E7B6F1FF3F05D0FDF73DFDC01B81
:104BD000B0420DD866B1B8F1010F18D020688069D5
:104BE00025EA00000004000CC8D10020BDE8F087D1
:104BF000C4F8309084F83DA084F83E90206C40F0DA
:104C00002000206484F83C900120BDE8F0872068F3
:104C1000406925EA00000004000CAFD1E5E72DE96A
:104C2000F04104460D4616462068406910F0400FDA
:104C300022D100274FF020082068406910F0100FA3
:104C40000FD021686FF010004861276384F83D8021
:104C500084F83E70206C206484F83C700120BDE82C
:104C6000F081FDF7F1FC801BA84208D83DB1206817
:104C7000406910F0400FDFD00020BDE8F0812763CD
:104C800084F83D8084F83E70206C40F02000206461
:104C900084F83C700120BDE8F08170B504460D46F3
:104CA00016462068406910F0800F13D12046FFF7A8
:104CB0009CFD08B1012070BDB5F1FF3F05D0FDF7A7
:104CC000C3FC801BA84207D835B12068406910F0AA
:104CD000800FEBD0002070BD00202063202184F8DD
:104CE0003D1084F83E00216C41F02001216484F8DD
:104CF0003C00012070BD000008B5072000E06420E2
:104D000005F046F9FCF7F0F80028F8D102E064203D
:104D100005F03EF905F042F80028F8D18B4AA2F1DF
:104D20001004101D9346211D8246FCF7F5F823461A
:104D3000A3F1580204F14806A2F10C01A1F10C0004
:104D4000009604F0BBFEDFED820A9FED820A824AE4
:104D5000002104F1580000F063FEA4F15802A2F112
:104D60000C0101F11800FBF75BFD002005F04CF988
:104D700007F06AF9794D102168617948C161FEF741
:104D8000F6FB08B1FCF7E8FB012028717349082203
:104D90002431A1F1080002F0D7F99FED720ADFF883
:104DA000AC8108F1140888ED050A9FED6F0A88EDC3
:104DB000060A9FED6E0A4FF0FF3988ED070A494653
:104DC000012006F0CFF90128F9D12878400720D535
:104DD000287820F004002870604851462530FCF700
:104DE00053F894ED050AD8ED050A30EE600A84ED1B
:104DF000050A94ED060AD8ED060A30EE600A84ED45
:104E0000060A94ED070AD8ED070A30EE600A84ED31
:104E1000070A687840070AD5687820F004006870AF
:104E20004A4A211D103202F18200FBF7E7FFA87801
:104E300040070CD5A87820F00400A87047485946D0
:104E40001A30FCF743F994ED040A04F02FFF3F4BAE
:104E50000096103BA3F15802A2F10C01A1F10C0045
:104E600004F02CFE39482838A0F10C0290ED000A1D
:104E700000F10C0182ED000A91ED001A80ED001A9C
:104E8000DFED3B0AA0F14C0361EE201A9FED391AC9
:104E900093ED002A40EE011A9FED370A42EE001A08
:104EA000C1ED001A90ED012A82ED012AD1ED011A1F
:104EB000C0ED011A61EEA01A42EE011A93ED012A2B
:104EC00042EE001AC1ED011AD0ED021AC2ED021A2B
:104ED00091ED022A0A4680ED022A62EE200A343859
:104EE00041EE810A93ED021A0C3341EE000A9FED68
:104EF000230AC1ED020A6439FBF7ECFD134F4C3F66
:104F00003B1D39461A1DA1F1100004F0ABFBD7ED93
:104F1000000A9FED1B0A07F10C0020EE801ADFED5E
:104F2000190AC1EE201AC0ED001A97ED011A21EE00
:104F3000001AC1EE201AC0ED011A97ED021A21EEF7
:104F4000000A80EE201A80ED021A38E718120020BD
:104F50000080894500A08C45B0C600087400002080
:104F6000E00B0020F29C403BEA2F7DBB087213B897
:104F70005AF8F63F5D896EBFD5A9183B6F12833A88
:104F800000003443DB0F4940104810B50E49016062
:104F90000321416000214FF410228160C0E9031217
:104FA0004FF4001242610176417681760122C27689
:104FB00001774177FCF7CBFD002803D0BDE8104016
:104FC000FCF7CABA10BD0000006400403C0B002092
:104FD000104810B50E4901600321416000214FF4D3
:104FE00010228160C0E903124FF400124261017681
:104FF000417681760122C27601774177FCF7A7FDE1
:10500000002803D0BDE81040FCF7A6BA10BD000090
:1050100000680040640B0020254808B5016841F491
:1050200000110160016801F400110091016841F470
:10503000800101600068002200F4800000900521DA
:105040000C20FDF7D3FE0C20FDF7C2FE0022052147
:105050003920FDF7CBFE3920FDF7BAFE00220521ED
:105060003A20FDF7C3FE3A20FDF7B2FE00220521EB
:105070003B20FDF7BBFE3B20FDF7AAFE00220521E9
:105080004420FDF7B3FE4420FDF7A2FE00220521D7
:105090004520FDF7ABFE4520FDF79AFE00220521D5
:1050A0004620FDF7A3FEBDE808404620FDF790BE70
:1050B0003038024010B5ACB01C22264902A8FBF7DC
:1050C00096F9002102A804F070FF234C21491C220C
:1050D00020601C3109A8FBF78AF9002109A804F017
:1050E00064FF1C4960601C22383110A8FBF77FF96F
:1050F000002110A804F059FF1649A0601C22543169
:1051000017A8FBF774F9002117A804F04EFF114906
:10511000E0601C2270311EA8FBF769F900211EA86F
:1051200004F043FF0B4920611C228C3125A8FBF7BA
:105130005EF9002125A804F038FF6061002000908E
:10514000034601904FF4007204A1094806F016FFCF
:105150002CB010BDF0C50008000000206D616E6924
:10516000666F6C645F75736172745F7461736B00FA
:10517000059F00082DE9F04186B014216846FBF731
:105180004FF95648016841F002010160016801F0E1
:1051900002010591016841F040010160016801F0E0
:1051A00040010591016841F001010160016801F0D1
:1051B00001010591016841F008010160016801F0F9
:1051C00008010591016841F004010160016801F0E6
:1051D00004010591016841F480710160016801F4E6
:1051E00080710591016841F080010160016801F062
:1051F00080010591016841F020010160016801F022
:1052000020010591016841F0100101600068344EF1
:1052100000F010000590012240213046FDF70DFA04
:10522000304F012210213846FDF707FADFF8B88029
:10523000012211464046FDF700FA01244020CDE945
:1052400000040294694630460394FDF7D9F809201A
:105250004FF40415CDE90005694602943046FDF788
:10526000CFF81020CDE900040226CDE902466946B8
:105270003846FDF7C5F83020CDE9000569460294AF
:105280001A48FDF7BDF8CDE902460094694640464C
:105290000194FDF7B5F8002205210620FDF7A6FDD3
:1052A0000620FDF795FD002205210920FDF79EFD52
:1052B0000920FDF78DFD002205210A20FDF796FD4E
:1052C0000A20FDF785FD002205211720FDF78EFD40
:1052D0001720FDF77DFD06B0BDE8F08130380240B3
:1052E0000018024000000240000402400008024092
:1052F0000D4810B50B4901600C49416000214FF485
:1053000080428160C0E9031241618161C161016233
:10531000FDF7A0F9002803D0BDE81040FCF71CB948
:1053200010BD0000005C00408C0B0020801A0600BD
:10533000104810B50E4901604FF4827141600021A0
:1053400002228160C0E9031201224261520282619D
:105350003822C0E90721416281620A21C162FEF759
:1053600006F9002803D0BDE81040FCF7F5B810BDE1
:1053700000300140E00B002010B588B01C216846C9
:10538000FBF74EF8144813490024C0E9001441F219
:105390008731C0E9024104618461FEF745FB08B131
:1053A000FCF7DAF80C48FEF774FE08B1FCF7D4F805
:1053B0006020CDE900040294002269460648049466
:1053C000FEF7FBFD08B1FCF7C7F80348FEF758FDF0
:1053D00008B010BD00440140180E002010B596B072
:1053E00000240F9410941194129413941C21684675
:1053F0001494FBF715F8202107A8FBF711F836489D
:1054000034490160A721C0E9011444F61F61C0E9D5
:10541000031444618461FEF707FB08B1FCF79CF8B4
:105420004FF480500F900FA92B48FEF7F8FB08B1FE
:10543000FCF792F82848FEF72CFE08B1FCF78CF830
:10544000139413A924481494FEF7A1FA08B1FCF7A9
:1054500083F8602000904FF4FA60CDE901040394D2
:1054600004940594002269461B480694FEF7A5FDA6
:1054700008B1FCF771F80422694617480194FEF759
:105480009CFD08B1FCF768F8082269461248FEF74F
:1054900094FD08B1FCF760F80C2269460E48FEF74F
:1054A0008CFD08B1FCF758F80794089409944FF460
:1054B00000500A94CDE90B4007A907480E94FEF767
:1054C00033FA08B1FCF748F80348FEF7D9FC16B0E8
:1054D00010BD000000000140F80C002010B58EB097
:1054E00000240794089409940A940B941C2168469C
:1054F0000C94FAF795FF1E481C4901605321C0E93E
:10550000011440F2E731C0E903148461FEF78CFA1C
:1055100008B1FCF721F84FF48050079007A9144810
:10552000FEF77DFB08B1FCF717F81148FEF7B1FD57
:1055300008B1FCF711F80B940BA90D480C94FEF779
:1055400026FA08B1FCF708F86020CDE900040294BF
:105550000822694606480494FEF72FFD08B1FBF7C0
:10556000FBFF0348FEF78CFC0EB010BD00040040AA
:10557000400D002010B58EB00024079408940994C3
:105580000A940B941C2168460C94FAF749FF1E48B4
:105590001C49C0E9001445F20721C0E90241046139
:1055A0008461FEF741FA08B1FBF7D6FF4FF4805053
:1055B000079007A91448FEF732FB08B1FBF7CCFFB0
:1055C0001148FEF766FD08B1FBF7C6FF0B940BA967
:1055D0000D480C94FEF7DBF908B1FBF7BDFF602026
:1055E000CDE9000402940822694607480494FEF7B6
:1055F000E4FC08B1FBF7B0FF0348FEF741FC0EB036
:1056000010BD000000080040880D002010B596B0C5
:1056100000240F9410941194129413941C21684642
:105620001494FAF7FDFE202107A8FAF7F9FE344892
:1056300032490160A721C0E9011444F61F61C0E9A5
:10564000031444618461FEF7EFF908B1FBF784FFAE
:105650004FF480500F900FA92948FEF7E0FA08B1E7
:10566000FBF77AFF2648FEF714FD08B1FBF774FF3D
:10567000139413A922481494FEF789F908B1FBF793
:105680006BFF602000904FF4FA60CDE901040394B1
:10569000049405940022694619480694FEF78DFC8F
:1056A00008B1FBF759FF40F2AA5001900422694665
:1056B0001348FEF782FC08B1FBF74EFF40F2DC50C6
:1056C0000190082269460E48FEF777FC08B1FBF707
:1056D00043FF0794089409944FF400500A94CDE9CD
:1056E0000B4007A906480E94FEF71EF908B1FBF718
:1056F00033FF0348FEF7C4FB16B010BD00040140A1
:10570000D00D00200C4810B50A4901604FF4E1317A
:105710004160002181600C22C160C0E904128161F6
:10572000C161FEF793FE002803D0BDE81040FBF7EF
:1057300013BF10BD00100140600E00200C4810B5D2
:105740000A4901600B494160002181600C22C1605F
:10575000C0E904128161C161FEF778FE002803D020
:10576000BDE81040FBF7F8BE10BD00000048004047
:10577000A40E0020A08601000C4810B50A49016063
:105780004FF4E1314160002181600C22C160C0E929
:1057900004128161C161FEF759FE002803D0BDE803
:1057A0001040FBF7D9BE10BD00140140E80E0020E8
:1057B000FEE7704710B50D4C2078AA2814D1A078C8
:1057C000812811D1607816280ED115212046FBF7CB
:1057D000ABFC617D884207D11222E11C04F12D004F
:1057E000FAF705FE002010BD012010BD771E002035
:1057F00070B53B49AA223B4C0A7000228870A1F187
:10580000080514282BD0152857D0172826D108238F
:105810004B7029892180A07005F10B0002210170D5
:1058200042708270304EC27040213046FCF7FEFE5E
:10583000002852D0002240213046FCF7FEFED5F869
:105840000B00C4F8030007212648FBF76DFCE0714C
:10585000082224492548FEF775FFA87070BD112362
:105860004B70298921802249A0701E4891ED020ABF
:10587000A030B1EE400A10EE103A03604B6843606E
:10588000096881601B49C98A0A2914D0102912D0DD
:10589000027314490D22A031E01CFAF7A8FD102173
:1058A0001048FBF741FC20741122BDE870400D49FF
:1058B0000E48FEF747BF0173EBE705224A702989BE
:1058C0002180A070687829780843E0700421054899
:1058D000FBF72AFC20710522E7E70122ABE7000075
:1058E000E6030020F71D002000000240600E0020AB
:1058F000D81100206E1D0020A0B1D0ED101AC0ED0F
:10590000111A90ED0F1A80ED101AC0ED060A80ED05
:10591000070A30EEC00A80ED0F0A017829B101298B
:105920003BD078E09FED3D0A7047D0ED010A60EE74
:10593000801AC0ED091AD0ED0A0A90ED022A42EE53
:10594000000A30EE410AC0ED0A0A90ED0D2A80ED02
:105950000E2A90ED0C2A80ED0D2A80ED0C0A90EDB8
:10596000031A21EE001A80ED0B1A90ED050AF4EEF1
:10597000C00AF1EE10FA09DCB1EE400AF4EEC00AFA
:10598000F1EE10FA02D390ED0A0A01E080ED0A0A66
:1059900031EE800A30EE010A2BE070EE410A90ED04
:1059A000012A20EE822A80ED092AD0ED020A60EE5B
:1059B000800AC0ED0A0AD0ED0D2A72EE200AC0ED71
:1059C0000E2AD0ED0C2AC0ED0D2AF0EE002A01EED1
:1059D000620A30EE210A80ED0C0A90ED031A21EEE6
:1059E000000A80ED0B0A30EE800AD0ED080A30EE96
:1059F000200A80ED080AD0ED040AB4EEE00AF1EEC8
:105A000010FA06DCF1EE600AB4EEE00AF1EE10FAEC
:105A100001D2C0ED080A90ED080A704700000000AE
:105A2000002828D0002A26D0017092ED001A80EDBF
:105A3000011A92ED011A80ED021A92ED021A80ED20
:105A4000031A80ED040A9FED0C0AC0ED050A80EDF3
:105A50000E0A80ED0D0A80ED0C0A80ED080A80ED3B
:105A60000B0A80ED0A0A80ED090A80ED110A80ED2B
:105A7000100A80ED0F0A70470000000070B50C4658
:105A80000546FEF747F821462846BDE87040FEF778
:105A900031BB0000084810B5C07C18B10748407CF5
:105AA000012805D000F05EF80548C178017110BDED
:105AB00000F008F8F8E70000E11D0020A41E002017
:105AC000A401002010B51F4C01202049E0701E48A1
:105AD0009FED201A214A90ED020A04F1800080ED2A
