:020000040800F2
:10000000600B0020290200084F230008CF1E0008C3
:100010004D2300081F040008DB2600080000000034
:100020000000000000000000000000005323000852
:100030005104000800000000512300085523000867
:10004000430200084302000843020008430200087C
:10005000430200084302000843020008430200086C
:10006000430200084302000843020008430200085C
:10007000430200084302000843020008430200084C
:10008000430200084302000843020008430200083C
:10009000210400082D040008430200084302000860
:1000A000430200084302000843020008430200081C
:1000B000430200084302000843020008430200080C
:1000C00043020008430200084302000843020008FC
:1000D00043020008430200084302000843020008EC
:1000E00043020008430200084302000843020008DC
:1000F00043020008430200084302000843020008CC
:1001000043020008430200084302000843020008BB
:100110004302000843020008FD23000843020008D0
:10012000430200084302000843020008430200089B
:10013000430200084302000843020008430200088B
:10014000390400084504000843020008430200087F
:10015000430200084302000843020008430200086B
:10016000430200084302000843020008430200085B
:100170004302000843020008430200080000000098
:10018000430200084302000800F002F800F03CF8C7
:100190000AA090E8000C82448344AAF10107DA45E2
:1001A00001D100F031F8AFF2090EBAE80F0013F0F8
:1001B000010F18BFFB1A43F0010318479C2A0000E7
:1001C000BC2A0000103A24BF78C878C1FAD8520778
:1001D00024BF30C830C144BF04680C6070470000C1
:1001E0000023002400250026103A28BF78C1FBD840
:1001F000520728BF30C148BF0B6070471FB502F0DF
:100200001DFD1FBD10B510BD00F0CFF81146FFF762
:10021000F5FF02F027FB00F0EDF803B4FFF7F2FF63
:1002200003BC00F0F5F80000094880470948004782
:10023000FEE7FEE7FEE7FEE7FEE7FEE7FEE7FEE796
:10024000FEE7FEE704480549054A064B70470000F3
:10025000ED2300088901000860050020600B0020E4
:10026000600700206007002053EA020C00F069805C
:100270002DE9F04B4FF00006002B1FBFB3FA83F5BA
:1002800003FA05F424FA05F65E4012BF1643B2FAEB
:1002900082F502FA05F4C5F120051EBF22FA05FC1D
:1002A00044EA0C04203556EA044C4FEA144418BFC3
:1002B000641C4FF000084FF00009904271EB030CF2
:1002C00039D3002919BFB1FA81F701FA07F6B0FA5C
:1002D00080F700FA07F6C7F120071EBF20FA07FCD7
:1002E00046EA0C062037B6FBF4FCA7EB0507103FE7
:1002F00007F01F0BCBF120060CFA0BFB2CFA06F6CD
:1003000044BFB3460026202FA4BF5E464FF0000B2B
:100310005BEA060C08BF4FF0010B19EB0B09ABFBB6
:10032000027C48EB0608C01B06FB02CC0BFB03CC8F
:1003300071EB0C01C1E70B46024641464846BDE859
:10034000F08B13B54FF000004FF00001AFF30080C9
:10035000BDE81C4070474FF0000200B513469446BC
:100360009646203922BFA0E80C50A0E80C50B1F10D
:100370002001BFF4F7AF090728BFA0E80C5048BF21
:100380000CC05DF804EB890028BF40F8042B08BFBF
:10039000704748BF20F8022B11F0804F18BF00F8BB
:1003A000012B7047704770477047754600F02CF876
:1003B000AE4605006946534620F00700854618B052
:1003C00020B5FFF73FFFBDE820404FF000064FF09B
:1003D00000074FF000084FF0000B21F00701AC467A
:1003E000ACE8C009ACE8C009ACE8C009ACE8C00999
:1003F0008D46704710B50446AFF300802046BDE837
:100400001040FFF70ABF000000487047FC040020BE
:1004100001491820ABBEFEE7260002007047FEE748
:10042000014800F094B9000044000020014800F0A9
:100430008EB9000044000020014800F088B9000097
:100440006C000020014800F082B900006C00002020
:10045000704772B6FEE790F82020012A07D0022AE2
:1004600005D0416A41F48021416201207047006853
:1004700042690A43426100207047F0B590F820506D
:100480000468A468012D05D0022D03D0416A41F40F
:1004900080215DE014F0406F01D1E50055D5C4F333
:1004A0000164022C03D9416A41F4000150E00125A6
:1004B000A5401D608D684FF4C0739DB1CE68354373
:1004C0004E6845EAC605066803EB0417F5514FF47C
:1004D000C275076805EB04150E697E51097D012977
:1004E00005D009E00E88CD6845EA4655EBE701687E
:1004F0004E5946F480764E511179D579567941EAB4
:10050000056195792D0445EA062529434FF4C67601
:10051000056806EB0416A9511178D57841EA056102
:10052000957852782D0445EA022211434FF4C475A0
:10053000026805EB04155151006803EB04114258A1
:1005400042F0010242500020F0BD416A41F4001126
:1005500041620120F0BD000010B590F82020012A72
:1005600007D0022A05D0416A41F48021416201206E
:1005700010BD3B48D0F8002242F00102C0F8002232
:10058000D0F8002222F47C52C0F80022D0F80022D9
:100590004B6A42EA0322C0F800220A7D02F01F03E0
:1005A00001229A40D0F81C329343C0F81C32CB6928
:1005B000B3B9D0F80C329343C0F80C328C894B6835
:1005C00064F31F434C6900EBC404C4F840320C8947
:1005D0000B6864F31F434C6900EBC404C4F8443255
:1005E000CB69012B16D1D0F80C321343C0F80C3272
:1005F0000C884B6864F31F434C6900EBC404C4F8D7
:1006000040320C89CB6864F31F434C6900EBC4048F
:10061000C4F844328B69002BD0F804320ED0134357
:10062000C0F804320B69002BD0F8143208D0134301
:10063000C0F81432096A012904D008E09343EFE7B7
:100640009343F5E7D0F81C121143C0F81C12D0F800
:10065000001221F00101C0F80012002010BD0000BE
:1006600000640040704730B590F82040012C05D060
:10067000022C03D0416A41F480215DE00468002926
:1006800055D02469A40754D04FF4D874056804EBFE
:1006900001142D5915F00405956005682D594ED0AB
:1006A000ED08556005682C5904F00204D4604FF43D
:1006B000DA74056804EB01142D5905F00F05156176
:1006C00005682D59C5F30725956105682C59240C3B
:1006D00054614FF4DC72046802EB0112A4581C70E0
:1006E0000468A458240A5C700468A458240C9C7004
:1006F0000468A258120EDA704FF4DE72046802EB3E
:100700000112A4581C710468A458240A5C7104687E
:10071000A458240C9C710468A258120EDA71006867
:1007200081B1016941F020010161002030BDE46820
:10073000A8E7416A41F400114162012030BD6D0D0E
:100740001560AFE7C16841F02001C160EDE72DE918
:10075000F05F0546006800244669D0F80490876879
:10076000D0F80CB0D0F810A0D0F81880F10748D01D
:10077000F90714D001218160B80703D5284600F09D
:100780005EFA0CE0780702D54FF4006407E0380702
:1007900002D54FF4805402E0284600F04FFAF805E5
:1007A00016D529684FF480708860B80503D52846AF
:1007B00000F047FA0CE0780502D544F4005407E055
:1007C000380502D544F4804402E0284600F038FAA7
:1007D000F80316D529684FF480308860B80303D534
:1007E000284600F030FA0CE0780302D544F40044C7
:1007F00007E0380302D544F4803402E0284600F0D4
:1008000021FA300707D55FEACB6004D529681020AC
:1008100044F40074C86070074FF0080707D55FEA1A
:100820000B7004D52868C760284600F0A9F9B00706
:1008300006D52868C068800702D0284600F0A2F9D3
:10084000700607D55FEACA6004D52968102044F411
:1008500080640861B00607D55FEA0A7004D528688D
:100860000761284600F0BAF9F00606D52868006945
:10087000800702D0284600F0B2F9B00308D55FEA3D
:10088000C96005D5296810204860284600F0A8F9FD
:10089000F00307D55FEA097004D528684760284649
:1008A00000F0D2F9300446D55FEA497040D5F00532
:1008B00004D55FEAC87001D044F00104B00504D546
:1008C0005FEA887001D544F00204700504D55FEA40
:1008D000487001D544F00404300529D518F0700F94
:1008E00026D008F07000402815D006DC102809D06A
:1008F00020280AD0302816D10AE050280ED06028CF
:1009000011D10EE044F008040DE044F010040AE0B8
:1009100044F0200407E044F0400404E044F0800484
:1009200001E044F480742868816921F070018161DC
:10093000296804204860002C05D0686A204368625A
:100940002846FFF78FFEBDE8F09F70B5040003D086
:1009500094F8200010B104E0012070BD204600F0A2
:1009600081F82068016841F00101016000F078FA27
:100970000546052604E000F073FA401B0A2811D84A
:1009800020684068C007F6D02068016821F00201A5
:10099000016000F065FA05460BE000F061FA401BCB
:1009A0000A2806D9606A40F40030606284F820604A
:1009B000D2E7206840688007EFD4207E01282068B5
:1009C00001683DD021F080010160607E012820682F
:1009D000016838D021F040010160A07E0128206824
:1009E000016833D021F020010160E07E01282068F9
:1009F00001682ED041F010010160207F012820689D
:100A0000016829D021F008010160607F0128206879
:100A1000016824D021F004010160D4E902010843F7
:100A2000D4E90412114308436168491E0843216850
:100A3000C86100206062012084F82000002070BDA1
:100A400041F08001C0E741F04001C5E741F02001DD
:100A5000CAE721F01001CFE741F00801D4E741F0E7
:100A60000401D9E7F0B587B0044614216846FFF7C2
:100A700072FC3E4B3E48DFF8F0E01968D4F800C045
:100A80003B4A03250226092710300024491CF4455F
:100A90002AD11960012907D1016841F00071016074
:100AA000006800F000700590106840F008001060C9
:100AB0001068CDE9005600F00800CDE904706946E1
:100AC0002C48CDE9024500F0D3F80022114614204D
:100AD00000F034FA142000F023FA00221146152009
:100AE00000F02CFA15203AE0DFF88CE0F44538D11C
:100AF000D0F800C04CF0806CC0F800C0D0F800C046
:100B000001290CF0806CCDF814C0196007D1016880
:100B100041F000710160006800F0007005901068FD
:100B200040F002001060106802AB00F00200059077
:100B30006020CDE9000683E8B00069460F4800F068
:100B400097F800221146402000F0F8F9402000F00C
:100B5000E7F900221146412000F0F0F9412000F0B1
:100B6000DFF907B0F0BD0000006400400400002081
:100B700030380240000C024000680040000402408F
:100B80007047000010B5114A0168914217D1104B0F
:100B9000104A0021FFF767FD0E480068A0F201200F
:100BA00004280CD80A49C0B208390870094900EB7A
:100BB000C000CC3901EB8000054901F0FFFD06487B
:100BC0000068416941F00201416110BD00640040CC
:100BD0002C000020C802002044000020704770470D
:100BE0007047000070B5044690F82000012804D03A
:100BF000606A40F40020606218E0022084F820005F
:100C00002068016821F00101016000F029F9054622
:100C10000EE000BF00F024F9401B0A2808D9606AE2
:100C200040F400306062052084F82000012070BD8F
:100C300020684068C007EDD1606270BD70477047A2
:100C400070477047704770477047000070B50446A2
:100C500000F006F90546601C02D004480078044400
:100C600000F0FEF8401BA042FAD370BD080000203F
:100C70002DE9F84FDFF8BCA10022012503264FF033
:100C80000F090AF1040BAAF1040E00BF0B6805FA64
:100C900002F42340A34270D10F7907F00307012F1C
:100CA00001D0022F16D187684FEA420806FA08FCE5
:100CB00027EA0C07D1F80CC00CFA08FC4CEA070C28
:100CC000C0F808C04768A7430C79C4F300149440E7
:100CD0003C4344600C79E443A4070AD0C4684FEA5B
:100CE000420C06FA0CF7BC438F6807FA0CF727434F
:100CF000C7600C7904F00304022C12D1D40800EB75
:100D0000840CDCF820405707FF0E09FA07F824EAA4
:100D10000804D1F8108008FA07F848EA0408CCF86B
:100D2000208004684FEA420C06FA0CF7BC430F79A6
:100D300007F0030707FA0CF7274307604C6814F421
:100D4000403F70D03C4C276847F4804727602468B8
:100D500022F0030704F480440094384C07EB040CA1
:100D6000DCF8084897074FEA177809FA08F7BC43F8
:100D7000334FB84202D1002724E054E0314FB8424B
:100D800001D101271EE0304FB84201D1022719E0FE
:100D90002E4FB84201D1032714E02D4FB84201D1A4
:100DA00004270FE02B4FB84201D105270AE02A4F54
:100DB000B84201D1062705E0284FB84201D10727E4
:100DC00000E0082707FA08F72743CCF80878DAF894
:100DD00000405746D1F804C09C435FEACC2C00D5B4
:100DE0001C433C60DBF800405F46D1F804C09C43E4
:100DF0005FEA8C2C00D51C433C60DEF8004077464F
:100E0000D1F804C09C435FEA8C3C00D51C433C6095
:100E1000084F083F3C68D1F804C09C435FEACC3CD3
:100E200000D51C433C60521C102AFFF42FAFBDE8D4
:100E3000F88F0000083C0140443802400030014077
:100E4000000002400004024000080240000C024082
:100E5000001002400014024000180240001C024032
:100E6000014880687047000008000020024881683F
:100E70000278114481607047080000200B4810B5CB
:100E8000016841F400710160016841F48061016012
:100E9000016841F480710160032000F06FF80F20B9
:100EA00000F006F800F024F8002010BD003C0240DD
:100EB00070B50D4D04464FF47A712878B1FBF0F00F
:100EC0000A490968B1FBF0F000F0ECFA48B9102CBF
:100ED00007D200222146501E00F030F800206C603E
:100EE00070BD012070BD000008000020140000202B
:100EF0000A4808B5016841F480410160006800F4C7
:100F0000804000900548001F016841F08051016059
:100F1000006800F08050009008BD00004438024096
:100F2000002809DB00F01F020121914040098000E8
:100F300000F1E020C0F8001170470000F0B40E4B43
:100F40001B680C46C3F30223C3F10705042D00D927
:100F50000425191D072901D2002300E0DB1E01260C
:100F600006FA05F1491E214099409E40761E164022
:100F70003143F0BC01F0B2BB0CED00E0064900F0DB
:100F8000070208684FF6FF03184040EA0220034AB0
:100F900010430860704700000CED00E00000FA0507
:100FA0002DE9F0470E46050065D0DFF81481D8F82A
:100FB0000000F7B200F00700B04207D288F80070D6
:100FC000D8F8000000F00700B04254D128683D4C2A
:100FD000810712D5400703D5206840F4E050206017
:100FE0002878000703D5206840F46040206020681E
:100FF000A96820F0F000084320602878C0072DD0B1
:10100000304968680839012812D0022813D0032813
:1010100011D00968890700292DDA216821F0030120
:1010200001432160FFF71CFF814641F2883A0EE040
:1010300009688903EFE709688901ECE7FFF710FF0A
:10104000A0EB0901514502D90320BDE8F0872068D3
:10105000696800F00C00B0EB810FEFD1D8F80010F8
:10106000404601F00701B14207D90770006800F05F
:101070000700B04201D00120E7E72878400705D5F6
:101080002068E96820F4E0500843206028780007D1
:1010900006D52068296920F4604040EAC10020603C
:1010A00000F018F82168084AC1F30311515CC840E8
:1010B0000649086006480068FFF7FAFE0020C4E70A
:1010C000003C024008380240462C00081400002072
:1010D0000C000020154810B5006810F00C021448F0
:1010E00013D01449042A0FD0082A0ED10F4C241F04
:1010F0002268236802F03F025B0207D52068C0F334
:101100008810A0FB010106E0084610BD2168C1F36C
:101110008811A1FB00010023FFF7A6F82168C1F3A5
:101120000141491C4900B0FBF1F010BD08380240F4
:101130000024F400001BB7002DE9F84F04006ED026
:101140002078DFF84C93C007A9F104054AD009F1D3
:1011500004000168C1F38101012908D00068C0F3CF
:10116000810002280AD1D9F80000400206D528687B
:10117000800337D560680028E1D033E06068B0F5BF
:10118000803F10D0B0F5A02F286810D020F4803018
:101190002860286820F4802028606068A8B1FFF7E4
:1011A0005FFE06460DE0286840F48030F4E740F426
:1011B00080202860F7E700BFFFF752FE801B6428FD
:1011C00073D828688003F7D50CE0FFF749FE064680
:1011D00005E000BFFFF744FE801B6428F0D82868B4
:1011E0008003F7D42078DFF8AC8280074FF0000A44
:1011F0003ED5A748001D016811F00C0F08D000680B
:10120000C0F3810002280BD1D9F80000400207D4B6
:101210002868800716D5E068012800D112E033E184
:10122000E068B8B10120C8F80000FFF719FE0646D3
:1012300005E000BFFFF714FE801B0228C0D8286815
:101240008007F7D52868216920F0F80040EAC1003E
:1012500028600DE0C8F800A0FFF702FE064604E093
:10126000FFF7FEFD801B02281FD828688007F7D4EF
:101270002078000722D5864F87486169703771B1A1
:1012800001210160FFF7ECFD064604E0FFF7E8FDF1
:10129000801B022809D838688007F7D50EE0C0F80F
:1012A00000A0FFF7DDFD064605E082E0FFF7D8FD70
:1012B000801B02287DD838688007F7D42078400743
:1012C00068D5DFF8CCB100270BF13C0BDBF8000050
:1012D000C0000BD4DBF8001041F08051CBF80010B7
:1012E000DBF80000012700F0805000906B4E306862
:1012F000C00510D4306840F480703060FFF7B0FD56
:10130000009005E0FFF7ACFD0099401A022850D884
:101310003068C005F6D55E4EA0686C3601280FD047
:101320000528306810D020F001003060306820F0CF
:1013300004003060A068B8B1FFF792FD00900FE0A4
:10134000306840F00100F4E740F004003060F7E757
:10135000FFF786FD0099411A41F28830814266D834
:1013600030688007F4D50EE0FFF77AFD009007E0C3
:10137000FFF776FD0099411A41F28830814256D834
:1013800030688007F4D42FB1DBF8001021F08051D1
:10139000CBF80010A069C8B33D49091D0968C1F325
:1013A000810102294AD00228504607D0C8F86000BF
:1013B00000E03CE0FFF754FD04463BE04746C8F838
:1013C0006000FFF74DFD064605E000BFFFF748FD52
:1013D000801B02282BD828688001F7D4D4E90701A4
:1013E0000843A16A2E4A490802EB0141626A41EAB8
:1013F0008211084394F82C1040EA0161C9F80010EA
:1014000001203866FFF72CFD044606E03EE000BFF1
:10141000FFF726FD001B022809D828688001F7D5B0
:1014200034E000BFFFF71CFD001B022802D9032097
:10143000BDE8F88F28688001F4D427E00128F7D0B0
:10144000D9F80000E26900F4800191421CD1226ABF
:1014500000F03F01914217D147F6C071626A014026
:10146000B1EB821F10D1A26A4FF0FF3300F440317C
:1014700003EB5202B1EB024F06D194F82C1000F0AE
:101480007060B0EB016F01D00120D1E70020CFE701
:101490000438024000004742800E4742007000407E
:1014A0000000FFFF10B5401EB0F1807F01D3012086
:1014B00010BD4FF0E02460610F21601701F00EF9BC
:1014C0000020A06107202061002010BD70477047F8
:1014D00010B590F83C20012A22D0012280F83C204F
:1014E000CA688C6822F4407222434C6822F48062FD
:1014F00022430C6822F4006222430C6922F48052D9
:1015000022434C6922F400522243C969002322F489
:1015100080420A4301684A6480F83C30002010BDD4
:10152000022010BD70B590F83C20012A32D0012471
:1015300080F83C40022280F83D2003685A689D688C
:1015400022F070060A6832435A60134B02689A42CE
:1015500014D0B2F1804F11D0104B9A420ED0104BE4
:101560009A420BD00F4B9A4208D00F4B9A4205D0AB
:101570000E4B9A4202D00E4B9A4204D1496825F094
:1015800080031943916080F83D40002180F83C10B1
:10159000084670BD022070BD0000014000040040FC
:1015A00000080040000C00400004014000400140E1
:1015B0000018004010B5040003D094F83D0010B1AD
:1015C00007E0012010BD002084F83C00204600F018
:1015D0001FF8022084F83D00211D206800F014FF50
:1015E000012084F8460084F83E0084F83F0084F827
:1015F000400084F8410084F8420084F8430084F8F5
:10160000440084F8450084F83D00002010BD00002F
:1016100008B501682248234A814207D1106840F08A
:1016200001001060106800F001000BE01D481E4B27
:10163000001F994208D1016841F00401016000686F
:1016400000F00400009008BD184B994207D10168D2
:1016500041F008010160006800F00800F2E7144B57
:10166000994211D1016841F0100101600068002227
:1016700000F01000009011463620FFF75FFCBDE837
:1016800008403620FFF74CBC0A488142DBD1106885
:1016900040F002001060106800F00200D2E7000085
:1016A000000001404438024000080040000C0040A7
:1016B000001000400004014090F83D10012901D0C5
:1016C00001207047022180F83D10006811498842CE
:1016D00014D0B0F1804F11D00F4988420ED00F497D
:1016E00088420BD00E49884208D00E49884205D066
:1016F0000D49884202D00D49884204D1816801F029
:101700000701062903D0016841F0010101600020B2
:101710007047000000000140000400400008004045
:10172000000C00400004014000400140001800404F
:1017300090F83D10012901D001207047022180F866
:101740003D100168CA6842F00102CA600068114990
:10175000884214D0B0F1804F11D00F4988420ED08A
:101760000E4988420BD00E49884208D00D49884264
:1017700005D00D49884202D00C49884204D18168C5
:1017800001F00701062903D0016841F00101016061
:1017900000207047000001400004004000080040A5
:1017A000000C0040000401400040014000180040CF
:1017B00070B5044690F83C000025012817D001269A
:1017C00084F83C60022084F83D002068826822F0A2
:1017D000770222F47F4282600868502838D00DDCFE
:1017E00020284FD005DC90B3102811D14AE0022008
:1017F00070BD302846D040280AD13BE060282FD069
:1018000070280DD0B0F5805F03D0B0F5005F12D026
:10181000012584F83D60002084F83C00284670BD16
:10182000CB68D1E90121206800F05FFE2068816863
:1018300041F0770109E0CB68D1E90121206800F08F
:1018400054FE2068816841F480418160E1E719E03D
:10185000CA684968206800F01DFF5021206806E032
:10186000CA684968206800F026FF6021206800F0FF
:1018700046FECEE7CA684968206800F00BFF4021A9
:101880002068F4E7226801461046F0E7704770B51B
:101890000446006801694FF00005C943890715D463
:1018A000C168C943890711D4E91E0161012020776D
:1018B000206880698007204602D0FFF7E7FF04E038
:1018C00000F049F9204600F009FA257720680169FF
:1018D000C943490717D4C168C943490713D46FF0F6
:1018E00004010161022020772068806910F4407FA4
:1018F000204602D0FFF7CAFF04E000F02CF9204692
:1019000000F0ECF9257720680169C943090716D46E
:10191000C168C943090712D46FF0080101610420AE
:1019200020772068C0698007204602D0FFF7AEFF0D
:1019300004E000F010F9204600F0D0F92577206887
:101940000169C943C90617D4C168C943C90613D47C
:101950006FF010010161082020772068C06910F441
:10196000407F204602D0FFF791FF04E000F0F3F83B
:10197000204600F0B3F9257720680169C943C907FB
:1019800008D1C168C943C90704D1891E0161204635
:1019900000F00AFA20680169C943090609D4C16840
:1019A000C943090605D46FF0800101612046FFF7A5
:1019B0008DFD20680169C943490609D4C168C9433E
:1019C000490605D46FF040010161204600F07EFA1F
:1019D00020680169C94389060BD4C168C9438906D7
:1019E00007D46FF0200101612046BDE87040FFF789
:1019F0006EBD70BD70B586B0044614216846FEF712
:101A0000AAFC364A2168002435480225914225D196
:101A1000016841F001010160016801F001010591D7
:101A2000016841F0100101600068012600F010001B
:101A300005904FF440600090CDE90154CDE9034694
:101A400069462848FFF714F94FF420600090CDE96B
:101A50000154CDE903466946234811E0234A9142E7
:101A600012D1016841F0080101600068694600F088
:101A70000800059010140090CDE901541C4815E0B1
:101A8000FFF7F6F806B070BD1A4A914211D101680D
:101A900041F0800101600068694600F08000059017
:101AA0004FF4E0500090CDE901541348CDE90345CF
:101AB000E6E7124A9142E5D1016841F48071016084
:101AC0000068694600F480700590E0200090CDE940
:101AD00001540320CDE903400948D1E7000001404B
:101AE0003038024000000240001002400008004070
:101AF000000C0240000C0040001C024000040140A9
:101B00000020024070B5044690F83C0000250128F2
:101B10000FD0012084F83C006AB1042A0FD0082AB3
:101B200011D00C2A13D00125002084F83C0028464F
:101B300070BD022070BD206800F0EAFCF4E7206868
:101B400000F016FDF0E7206800F048FDECE72068A3
:101B500000F078FDE8E7704710B5040003D094F872
:101B60003D0010B107E0012010BD002084F83C00CA
:101B7000204600F01EF8022084F83D00211D206858
:101B800000F042FC012084F8460084F83E0084F80E
:101B90003F0084F8400084F8410084F8420084F853
:101BA000430084F8440084F8450084F83D00002098
:101BB00010BD704770B5044690F83C0000260D46F5
:101BC00001280FD0012084F83C006AB1042A1DD0FE
:101BD000082A2FD00C2A3FD00126002084F83C0090
:101BE000304670BD022070BD206800F091FC206876
:101BF000816941F0080181612068816921F0040157
:101C00008161206881692A69114311E0206800F030
:101C1000AFFC2068816941F40061816120688169BD
:101C200021F480618161206881692A6941EA022189
:101C30008161D2E7206800F0D1FC2068C16941F0E1
:101C40000801C1612068C16921F00401C1612068F7
:101C5000C1692A69114311E0206800F0F3FC206893
:101C6000C16941F40061C1612068C16921F48061EA
:101C7000C1612068C1692A6941EA0221C161ACE7FA
:101C800010B5040003D094F83D0010B107E0012026
:101C900010BD002084F83C00204600F01EF8022011
:101CA00084F83D00211D206800F0AEFB012084F87F
:101CB000460084F83E0084F83F0084F8400084F831
:101CC000410084F8420084F8430084F8440084F81A
:101CD000450084F83D00002010BD704770470000AB
:101CE00010B50446022249B104290ED0082913D0A8
:101CF00094F84100012816D0012010BD94F83E0050
:101D00000128F9D184F83E200FE094F83F00012823
:101D1000F2D184F83F2008E094F840000128EBD18C
:101D200084F8402001E084F841200122206800F07E
:101D3000CFFB16492068164A884201D0904203D151
:101D4000436C43F4004343642068884213D0B0F1ED
:101D5000804F10D00F4988420DD00F4988420AD0D9
:101D60000E49884207D0904205D00D49884202D0E2
:101D70000C49884204D1816801F00701062903D08B
:101D8000016841F001010160002010BD0000014028
:101D9000000401400004004000080040000C004026
:101DA00000400140001800402DE9FC413F498842B5
:101DB00079D13F4C2068401C20604FF4FA7000F04D
:101DC0002DFD206804286ED13A4800262660B0F91F
:101DD000000000EE100A3848B8EEC00A00F0BCFC63
:101DE0003548364C364F4068606000EE100A354981
:101DF000B1EE400A84ED1B0AD7F8A800B0F5184FE1
:101E000004DB91ED000AB1EE400A04E010F5184F32
:101E100003DC91ED000A84ED690A002505EBC5009D
:101E200037F9200000EE100A05EB850000EBC50035
:101E300004EBC000B8EEC00A416E88476D1C052D4A
:101E4000ECDB94ED5B0ABDEEC00A10EE100A94EDD7
:101E5000410A00B2BDEEC00A10EE101A09B2CDE977
:101E6000001094ED270A4FF40071BDEEC00A10EE89
:101E7000100A94ED0D0A03B2BDEEC00A10EE100A6E
:101E800002B2114800F0B8FE0096019694ED750A72
:101E9000002340F2FF11BDEEC00A10EE100A02B29C
:101EA000094800F0A9FEBDE8FC8100006C0100209B
:101EB0000000002040000020E4020020F402002086
:101EC000FC0100203C000020440000207047FEE799
:101ED0000F4810B50D4901600321416000214FF406
:101EE00010228160C0E903124FF4001242610176B2
:101EF00041768176C17601774177FEF726FD00288D
:101F000003D0BDE81040FEF7A4BA10BD0064004045
:101F1000440000200F4810B50D49016003214160C5
:101F200000214FF410228160C0E903124FF4001227
:101F30004261017641768176C17601774177FEF77D
:101F400004FD002803D0BDE81040FEF782BA10BDA2
:101F5000006800406C000020194808B5016841F095
:101F600002010160016801F002010091016841F085
:101F700001010160016801F001010091016841F077
:101F800008010160016801F008010091016841F455
:101F900080710160016801F480710091016841F075
:101FA00080010160016801F080010091016841F049
:101FB00010010160006800F01000009008BD0000F2
:101FC0003038024010B596B000240F94109411944C
:101FD000129413941C2168461494FEF7BCF9202136
:101FE00007A8FEF7B8F9344832490160A721C0E9D3
:101FF000011444F61F61C0E9031444618461FFF7D2
:10200000D9FA08B1FEF725FA4FF480500F900FA9C6
:102010002948FFF7CDFB08B1FEF71BFA2648FFF76A
:102020002FFE08B1FEF715FA139413A92248149451
:10203000FFF778FA08B1FEF70CFA6020CDE900044A
:102040000294039404940594002269461A48069465
:10205000FFF7B0FD08B1FEF7FCF904226946164807
:10206000FFF7A8FD08B1FEF7F4F908226946124807
:10207000FFF7A0FD08B1FEF7ECF90C2269460E4807
:10208000FFF798FD08B1FEF7E4F907940894099466
:102090004FF400500A94CDE90B4007A906480E946E
:1020A000FFF716FA08B1FEF7D4F90348FFF7A2FCD0
:1020B00016B010BD000001409400002010B58EB095
:1020C00000240794089409940A940B941C216846F0
:1020D0000C94FEF740F91E481C49C0E9001445F273
:1020E0000721C0E9024104618461FFF763FA08B186
:1020F000FEF7AFF94FF48050079007A91448FFF797
:1021000057FB08B1FEF7A5F91148FFF7B9FD08B173
:10211000FEF79FF90B940BA90D480C94FFF702FAF8
:1021200008B1FEF796F96020CDE900040294082278
:10213000694607480494FFF73DFD08B1FEF789F9A9
:102140000348FFF757FC0EB010BD00000008004028
:10215000DC00002010B58EB0002407940894099488
:102160000A940B941C2168460C94FEF7F4F8264858
:102170002449C0E900144FF6FF71C0E9024104612F
:102180008461FFF717FA08B1FEF763F94FF4805046
:10219000079007A91C48FFF70BFB08B1FEF759F998
:1021A0001948FFF76DFD08B1FEF753F90B940BA921
:1021B00015480C94FFF7B6F908B1FEF74AF960200C
:1021C000CDE900040294002269460F480494FFF709
:1021D000F1FC08B1FEF73DF9042269460A48FFF711
:1021E000E9FC08B1FEF735F9082269460648FFF711
:1021F000E1FC08B1FEF72DF90348FFF7FBFB0EB039
:1022000010BD0000000C0040240100201CB500247B
:102210000F4800940D49019401605321C0E9011455
:1022200040F2E731C16080218161FFF7C3F908B155
:10223000FEF70FF90094694605480194FFF772F91B
:10224000002801D0FEF705F91CBD00000010004079
:102250006C01002010B596B000240F9410941194D6
:10226000129413941C2168461494FEF774F82021EC
:1022700007A8FEF770F8344832490160A721C0E989
:10228000011444F61F61C0E9031444618461FFF73F
:1022900091F908B1FEF7DDF84FF480500F900FA9C7
:1022A0002948FFF785FA08B1FEF7D3F82648FFF76B
:1022B000E7FC08B1FEF7CDF82348FFF74DFC08B165
:1022C000FEF7C7F8139413A91F481494FFF72AF9CF
:1022D00008B1FEF7BEF86020CDE900040294039433
:1022E000049405940022694617480694FFF762FC9F
:1022F00008B1FEF7AEF8042269461348FFF75AFC0E
:1023000008B1FEF7A6F8082269460F480094FFF7C7
:10231000F9FB08B1FEF79DF80794089409944FF46F
:1023200000500A94CDE90B4007A907480E94FFF727
:10233000CFF808B1FEF78DF80348FFF75BFB16B046
:1023400010BD000000040140B4010020FEE7FEE7DC
:1023500070477047FEF78ABD30B593B030216846AC
:10236000FDF7F9FF14210CA8FDF7F5FF1D48002526
:10237000016841F080510160006800F080501190C8
:102380001948016841F4804101600068022400F4AA
:102390008040119001200090000401908001CDE95F
:1023A000064006200890A820CDE9090404200B90DF
:1023B0006846FEF7C1FE08B172B6FEE70CA90F2011
:1023C00081E831004FF4A0500F904FF480501090EE
:1023D00005210CA8FEF7E4FD002801D072B6FEE747
:1023E00013B030BD40380240007000400248016820
:1023F00041F470010160704788ED00E00148FFF78B
:1024000046BA00006C010020F0B50268254C264D4C
:10241000264E274F274B4FF0804CA04209D06045F5
:1024200007D0A84205D0B04203D0B84201D09842AC
:1024300004D122F0700E4A6842EA0E02A0421BD07C
:10244000604519D0A84217D0B04215D0B84213D079
:10245000984211D0184DA8420ED0184DA8420BD06A
:10246000174DA84208D0174DA84205D0164DA842D6
:1024700002D0164DA84203D122F44075CA682A43FF
:102480004D6922F080022A4302608A68C2620A68AB
:102490008262A04201D0984201D109690163012101
:1024A0004161F0BD00000140000400400008004010
:1024B000000C004000040140004001400044014085
:1024C0000048014000180040001C0040002000406F
:1024D00010B501F01F030121046A99408C43046286
:1024E000016A9A401143016210BD10B5846842EA46
:1024F000032224F47F440A432243826010BD826891
:1025000022F070020A4342F0070181607047000028
:10251000F0B5026A22F001020262036A426884692D
:10252000124E24F073050C682C4323F002058B68CF
:102530002B430D4DA84201D0B04205D123F008072E
:10254000CB683B4323F00403A84201D0B04205D13D
:102550004D6922F4407215438A692A4342608461BE
:10256000496841630362F0BD00000140000401407E
:10257000F0B5026A22F010020262026A43688469BE
:102580000D6824F4E64444EA05248D6822F0200214
:1025900042EA05120F4D104EA84201D0B04206D1BA
:1025A000CF6822F0800242EA071222F04002A842DD
:1025B00001D0B04207D14D6923F4406343EA85035B
:1025C0008D6943EA850343608461496881630262DF
:1025D000F0BD00000000014000040140F0B5026AB7
:1025E00022F480720262026A4368C46922F40072B3
:1025F00024F073050C68124E2C438D6842EA0522C4
:102600000E4DA84201D0B04206D1CF6822F400623C
:1026100042EA072222F48062A84201D0B04207D1E8
:102620004D6923F4405343EA05138D6943EA0513CA
:102630004360C4614968C1630262F0BD00000140AB
:102640000004014030B5026A22F480520262046A3A
:102650004268C3690D6823F4E64343EA05238D68A5
:1026600024F4005444EA0534084DA84202D0084D31
:10267000A84204D14D6922F4804242EA85124260A8
:10268000C36149680164046230BD0000000001407C
:102690000004014010B5036A046A24F001040462D6
:1026A000846924F0F00444EA021423F00A020A4385
:1026B0008461026210BD10B5036A23F01003036247
:1026C0008369046A23F4704343EA023224F0A003CE
:1026D00043EA01118261016210BDFEE70907090E9C
:1026E000002804DB00F1E02080F80014704700F0BF
:1026F0000F0000F1E02080F8141D70470C4910B560
:10270000020E0A70C0F3074313FB02F34B80C0F3C1
:10271000072414FB02F48C80C0B210FB02F20548BF
:10272000CA8001684A6301688C630068C36310BD96
:102730001800002024010020024900200968C86315
:1027400070470000DC000020024A1368986210689D
:10275000C1637047DC00002010B510EE103A036032
:102760008168C26800EE101A00EE902A446830EECC
:10277000201A00EE101AC0EE010A00EE104A20EEF8
:10278000801A00EE101A00EE902A70EE201A00EE69
:10279000102AC0EE210A00EE103A00EE801A11EE67
:1027A000101A416010BD10EE101AC16010EE901AA0
:1027B00081600021016041607047000010B583898D
:1027C000C3810A88F1EE040A52BA82814C88D31A76
:1027D00064BA04808C88B3F5805F64BA00EE104A56
:1027E000B8EE400A20EE200ADFED0B0A20EE200AA8
:1027F00080ED010A89798172416901DD491E03E09A
:1028000013F5805F01DA491C416102EB4131028A14
:10281000891A816110BD00000000803830B50E4C6F
:10282000A168491CA16081420FDB0025A56060788A
:1028300060B101280CD00948FFF760FF6078401CA8
:10284000C0B26070022800D9657030BD0448F3E75B
:102850004FF0FF20F0E7000018000020FF0000FF0D
:102860000000FFFFFEF70AFBFFF776FDFFF774FBA2
:10287000FFF770FCFFF722FCFFF7A4FBFFF7EAFC71
:10288000FFF726FBFFF7C2FCFFF744FB00F0A4F9BB
:102890001848FEF711FF00211648FFF721FA04211E
:1028A0001448FFF71DFA08211248FFF719FA1248D9
:1028B000FEF702FF08211048FFF712FA0F48FEF753
:1028C00037FF00F01FF8002442F21075294600205F
:1028D000FFF73AFF6420FEF7B9F9FFF72DFF6420F8
:1028E000FEF7B4F9641C042CF0DB05494FF47A7050
:1028F0000880FEE724010020DC0000206C0100209D
:10290000400000202DE9F04720482DED028B84B0D7
:1029100000F046F81D48FEF765F902211B48FDF757
:102920009AFDDFED1B0A9FED1B0A1B48FFF73BFFDB
:102930000025194F9FED198A2E4610374FF4FA588B
:1029400040F6B83943F6982A05EB850000EBC50040
:1029500007EBC004204600F001F9CDE900682046ED
:102960000296E46DF0EE481AB6EE001AF0EE080A90
:10297000B2EE040A4B4652460121A0476D1C052DBC
:10298000E2DB04B0BDEC028BBDE8F0874400002020
:10299000ABAAAA3E6F12833BE402002000000000B5
:1029A00000B58BB001220021CDE9052102910091F3
:1029B0000191039104910E21CDE908210792694606
:1029C000FDF7CAFD002801D0FDF743FD0BB000BDA7
:1029D00010B504462DED028BB0EE408A006D6065A7
:1029E000FEF73EFA206594F85410401A84F8580017
:1029F00084ED068A94ED082A84ED092A94ED071ADD
:102A000084ED081AD4ED0D1AC4ED0E1A94ED010AE6
:102A100030EE480A84ED070AB5EEC00AF1EE10FA6E
:102A200002DDF0EE400A01E0F1EE400AD4ED112A99
:102A3000F4EEE20AF1EE10FA7EDD207810B1012802
:102A400043D064E0D4ED030A60EE800AC4ED0A0AC4
:102A5000F5EEC00AF1EE10FA02DDF0EE601A01E0C8
:102A6000F1EE601A11EE900A3A49884207DDD4ED82
:102A70000B1A94ED042A42EE001AC4ED0B1A30EE44
:102A8000410A94ED051A20EE011A84ED0C1AD4EDDA
:102A90000B1A94ED100AF4EEC01AF1EE10FA01DDF3
:102AA00084ED0B0AD4ED0B1AB1EE400AF4EEC01A15
:102AB000F1EE10FA02D3B0EE610A01E084ED0B0AE8
:102AC00030EE800A30EE010A1FE070EE410AD4EDCC
:102AD000032AB0EE003A60EEA22AC4ED0A2AD4ED31
:102AE000040A60EE800A01EE430AC4ED0B0A94ED7D
:102AF000051A72EEA00A30EE020A20EE010A84EDF9
:102B00000C0A30EE800A30EE210A84ED0D0AD4ED75
:102B10000D0A94ED0F0AF4EEC00AF1EE10FA01DD91
:102B200084ED0D0AD4ED0D0AB1EE400AF4EEC00AB0
:102B3000F1EE10FA08D200E002E084ED0D0A03E0A5
:102B40009FED050A84ED0B0A94ED0D0ABDEC028B96
:102B500010BD000000007A44000000000349C16578
:102B6000034901660349416670470000792B00085C
:102B7000D12B0008D12900089DED003A9DED022AD5
:102B8000DDED012AB8EE433A017080ED123A80ED96
:102B9000110A00EE103AB8EE400A80ED100A00EE7D
:102BA000102AB8EE400A80ED0F0AB8EEE20A80ED76
:102BB000130AB8EEC20A80ED010A9FED040A80ED07
:102BC0000D0A0C30C0EC030A704700000000000042
:102BD0000C3080EC030A704710B50648FEF76CFD18
:102BE00000210448FFF77CF8BDE8104004210148AB
:102BF000FFF776B894000020F0B40E4CDDE90465D0
:102C000021600021A160E160082121610A49140AC4
:102C10000C704A701A0A8A70CB70320A0A714E71AF
:102C20002A0A8A71CD71F0BCA1F10C030A46014950
:102C3000FDF723BCB0020020340000204FF04070AC
:102C4000E1EE100A704700000000000000000102E1
:102C50000304060708090000782C00080000002083
:102C600044000000C4010008BC2C000844000020FF
:102C70001C0B0000E0010008000000000000000044
:102C80000100000010000000000000000024F4001B
:102C90000000000000000000000000000000000034
:102CA00064000000000000000000000000000000C0
:0C2CB00000000000000000000000000018
:040000050800018965
:00000001FF
